:100000000C946D050C94B4050C94B4050C945F1A13
:100010000C94B4050C94B4050C94B4050C94B4057C
:100020000C94B4050C94B4050C94A32A0C94772B6F
:100030000C9443260C94B4050C94B4050C94B405AC
:100040000C94B4050C94B4050C94B4050C94B4054C
:100050000C94B4050C949A260C94B4050C94B40535
:100060000C94B4050C94B4050C94B4050C94B4052C
:100070000C94B4050C94B4050C94B4050C94B4051C
:100080000C94B4050C94B4050C94B4050C94B4050C
:100090000C94B4050C94B4050C94B4050C94B405FC
:1000A0000C94B4050C94B4050C94B40529001E00FE
:1000B0001F002000210022002B0014001A0008005D
:1000C00015001700390004001600070009000A0097
:1000D000E1001D001B00060019000500E000000003
:1000E000E200295D2C0000002300240025002600EA
:1000F00027002D001C0018000C001200130028001F
:100100000B000D000E000F0033002800110010003E
:100110003600370052008700000028002A5D50009A
:1001200051004F0035003A003B003C003D003E00CE
:100130002B001E001F00200021002200E000040010
:100140001600070009000A00E1001D001B00060060
:1001500019000500E0000000E200295D2C0000000D
:100160003F0040004100420043004C0023002400B7
:1001700025002600270045000B000D000E000F0093
:100180002D0034002E008900360037005200310067
:1001900000002A002A5D500051004F0029001E0077
:1001A0001F002000210022002B001E021F0220023F
:1001B00021022202E00004001600070009000A00E4
:1001C000E1001D001B00060019000500E000000012
:1001D000E000295D2C0000002300240025002600FB
:1001E00027002A0023022402250226022F022F00C4
:1001F0000B000D00300231023300340089022E0260
:100200003000310038028702000028002A5DE60035
:10021000E700E400005C00000000000000000000B7
:1002200000000000000000000000C65C00000000AC
:100230000000C65C0000C35C000000000000B200CB
:1002400000000000000000000000295D0000000028
:1002500000000000000000000000C25C0000000080
:10026000000000000000000000000000C55C00006D
:10027000000000000000000000000000C95C000059
:10028000000000002A5DC85CCA5CC75C32190A0025
:10029000047F3F1F643214643214783C1E1E140A1B
:1002A000052223252628292A2C2D2F3032333536B6
:1002B000383A3B3D3E4042434547494A4C4E5051F7
:1002C000535557595A5C5E6062646668696B6D6F1E
:1002D00071737577797B7D7F81838587898A8C8E21
:1002E00090929496989A9C9E9FA1A3A5A7A8AAAC29
:1002F000AEAFB1B3B4B6B8B9BBBCBEBFC1C2C3C563
:10030000C6C7C9CACBCCCDCED0D1D2D2D3D4D5D604
:10031000D7D7D8D9D9DADADBDBDBDCDCDCDCDCDD37
:10032000DDDDDDDCDCDCDCDCDBDBDBDADAD9D9D81B
:10033000D7D7D6D5D4D3D2D2D1D0CECDCCCBCAC9B3
:10034000C7C6C5C3C2C1BFBEBCBBB9B8B6B4B3B1E2
:10035000AFAEACAAA8A7A5A3A19F9E9C9A9896947D
:1003600092908E8C8A89878583817F7D7B79777552
:1003700073716F6D6B6968666462605E5C5A595731
:10038000555351504E4C4A4947454342403E3D3BF0
:100390003A3836353332302F2D2C2A29282625237A
:1003A00022FFAA7F55400001010101010101010165
:1003B0000202020202020202020303030303030316
:1003C00003040404040404040505050505060606E3
:1003D0000606070707070708080808090909090AA0
:1003E0000A0A0B0B0B0C0C0C0D0D0D0E0E0E0F0F45
:1003F0000F101011111112121313141415151616D3
:100400001717181819191A1A1B1B1C1D1D1E1E1F41
:100410002020212222232424252626272829292A90
:100420002B2C2D2D2E2F30313232333435363738B8
:10043000393A3B3C3D3E3F404142434445464748B4
:10044000494A4C4D4E4F50515354555658595A5B8A
:100450005D5E5F616264656668696B6C6D6F70722A
:10046000737577787A7B7D7E8082838587888A8C96
:100470008E8F91939596989A9C9EA0A2A3A5A7A9CA
:10048000ABADAFB1B3B5B7BABCBEC0C2C4C6C9CBC1
:10049000CDCFD1D4D6D8DBDDDFE2E4E7E9EBEEF077
:1004A000F3F5F8FAFDFF00AE00AF00DA0281FFD9E4
:1004B000F1DB20A4A62EAF00A0C000A1C800AED5DD
:1004C00080A81FD300408D14200000000000000011
:1004D0003E5B4F5B3E003E6B4F6B3E001C3E7C3EE6
:1004E0001C00183C7E3C18001C577D571C001C5EED
:1004F0007F5E1C0000183C180000FFE7C3E7FF0008
:10050000001824180000FFE7DBE7FF0030483A0638
:100510000E00262979292600407F05050700407F27
:1005200005253F005A3CE73C5A007F3E1C1C080052
:10053000081C1C3E7F0014227F2214005F5F005FB6
:100540005F0006097F017F00006689956A00606090
:100550006060600094A2FFA2940008047E0408007A
:1005600010207E20100008082A1C0800081C2A08F9
:1005700008001E10101010000C1E0C1E0C0030384D
:100580003E383000060E3E0E06000000000000005F
:1005900000005F000000000700070000147F147FC8
:1005A0001400242A7F2A12002313086462003649AB
:1005B00056205000000807030000001C22410000E4
:1005C0000041221C00002A1C7F1C2A0008083E084B
:1005D00008000080703000000808080808000000CB
:1005E000606000002010080402003E5149453E00B2
:1005F00000427F4000007249494946002141494D6F
:1006000033001814127F10002745454539003C4A35
:10061000494931004121110907003649494936004D
:10062000464949291E000000140000000040340023
:100630000000000814224100141414141400004196
:10064000221408000201590906003E415D594E007E
:100650007C1211127C007F49494936003E414141DC
:1006600022007F4141413E007F49494941007F09C5
:10067000090901003E41415173007F0808087F00CD
:1006800000417F4100002040413F01007F081422CB
:1006900041007F40404040007F021C027F007F04F9
:1006A00008107F003E4141413E007F0909090600D4
:1006B0003E4151215E007F091929460026494949DA
:1006C000320003017F0103003F4040403F001F20F4
:1006D00040201F003F4038403F006314081463006F
:1006E0000304780403006159494D4300007F4141F0
:1006F0004100020408102000004141417F00040233
:100700000102040040404040400000030708000090
:100710002054547840007F284444380038444444EE
:100720002800384444287F003854545418000008E6
:100730007E0902001824241C78007F080404780035
:1007400000447D4000002040403D00007F102844D0
:10075000000000417F4000007C04780478007C08A1
:10076000040478003844444438007C1824241800D9
:10077000182424187C007C080404080048545454AD
:10078000240004043F4424003C4040207C001C2002
:1007900040201C003C4030403C00442810284400CD
:1007A0004C9090907C004464544C440000083641C6
:1007B0000000000077000000004136080000020140
:1007C000020402003C2623263C0000C0404040407A
:1007D00040407808080808080878C00000C0407841
:1007E000080808080878404040404040404040C069
:1007F000000000000080E0F0381C0C0271FD1C0EAF
:10080000060CF000000000000000000000000000E6
:1008100000000000000000000000000000000000D8
:1008200000E0F83E9F7E0000000000000000000095
:100830000000FC3C1818181C1C0C0C0000F0F83CC4
:100840000C04040CF8F00000E0F0F0F0E0ECEEF73F
:10085000F37020007C7C7C7E007E7E7E7F7F7F002C
:100860000080C0E07E5B4F5BFEC00000C000DCD7B4
:10087000DEDEDED7DC00C00000000000000000006B
:100880000000000000000000000000FF0000000069
:10089000000000000000000000000106186186183A
:1008A000608000000000000000000000000000FF69
:1008B000000000FCFFFF07010000000000000080B6
:1008C000F01C0F00E0F8180080E0F8F80000987CB9
:1008D000408040F8F830181C1CFCF800000000F0C4
:1008E000EF330806E1FC3E0480C0FC3E000080803F
:1008F000909E9908080818F0F0E0000080C1673663
:100900001C081C36E78300000F1F3F7F7F7F7F7F1F
:100910003F1E0C001F1F1F3F003F3F3F7F7F7F0098
:10092000307B7F7830202030787F3B0003000F7FC2
:100930000F0F0F7F0F0003000000000000000000F9
:1009400000000000000000000000003F20202020E8
:1009500020202020202020202020202010082730A8
:100960002827202020202020202020202020203F59
:1009700000000000070F0F1C0818181808040201D7
:1009800000000000070F0E0201000F070602010021
:1009900000000E0F03000000060F09080402010109
:1009A000070E0402619B8BC5FE3F04040201000098
:1009B0000E1F19101010180F0F0300000F1F181032
:1009C0001010181E0F0700000000000000000000BB
:1009D0000000000000000000000000000000000017
:1009E0000000000000000000000000000000000007
:1009F00000000000000000000000000000000000F7
:100A000000000000000000000000040330000000AF
:100A10003C034F0077006E006C0079002000280036
:100A2000730070006C0069007400200067006100B2
:100A30006D0069006E00670020006B0065007900A2
:100A400062006F0061007200640029000000120360
:100A500044006900770061006D006F0074006F0052
:100A600000000403090409022200010100A0FA09A0
:100A700004000001030101000921110100012240CD
:100A8000000705810308000A120110010000000898
:100A90001E01A3C700010102030105010906A1010E
:100AA000050719E029E71500250195087501810260
:100AB0009501750881010507190029FF150026FF1A
:100AC0000095067508810005081901290595057529
:100AD000019102950175039101C011241FBECFEF52
:100AE000DAE0DEBFCDBF04B603FE27C08091070762
:100AF00090910807A0910907B0910A078730904BA1
:100B0000A740B04BD1F4109207071092080710923B
:100B1000090710920A0714BE84B7877F84BF0FB6F7
:100B2000F894A8958091600088618093600010928D
:100B300060000FBEE0E0F8E3099512E0A0E0B1E04C
:100B4000E2E8F3E602C005900D92A830B107D9F7AC
:100B500027E0A8E0B2E001C01D92A730B207E1F79C
:100B60000E94F5270C9487310C9400008091EF03CC
:100B70009091F003A091F103B091F20384309105BC
:100B8000A105B105E1F128F50097A105B10571F1C5
:100B900068E971E082309105A105B10549F1BF9383
:100BA000AF939F938F9383EB91E09F938F931F92CB
:100BB00088E18F9380E194E09F938F930E944A2E67
:100BC0008DB79EB70A960FB6F8949EBF0FBE8DBF25
:100BD00013C088309105A105B10529F08E3091052B
:100BE000A105B105E1F665EA71E002C06CE771E0CC
:100BF00080E194E00E94432E80E194E008956BE848
:100C000071E0F6CF84E091E008950C942006CF9334
:100C1000C82F0E947E0A811103C08C2FCF910895A6
:100C200082E0FCCF0E947E0A882329F00E94B6054C
:100C300060E00C943E150E94020660E00C942215C0
:100C4000CF93FB01C2818A32FDE59F0799F08B3279
:100C50002DE59207D9F089329D4509F581E0CC2335
:100C600059F00E94CE2243E062E081E00E94F1064A
:100C7000C0E009C082E0F3CF0E94EF2243E062E0CF
:100C800081E00E94F1068C2FCF91089583E0CC2360
:100C900019F00E94CE22ECCF0E94EF22F4CFC1E0E7
:100CA000F2CF81E0089508950C9453061F93CF93DB
:100CB000DF9300D000D00F92CDB7DEB749835A83BF
:100CC0006B8330918E0389819A8131111DC0662317
:100CD000B9F02223A9F00E94C123182F682F89811F
:100CE0009A810E946A2369817A81812F0F900F90E7
:100CF0000F900F900F90DF91CF911F910C946E0782
:100D00000E949823182FEFCF0E94C12369817A8116
:100D1000EDCFFC01262F4081518162817381848156
:100D20000C945606CF93DF93EC0160E00E94890695
:100D3000BE01DF91CF910C9454068F929F92AF9297
:100D4000BF92CF92DF92EF92FF920F931F936B01AE
:100D50007C0181E090E0A0E0B0E04C015D0104C0C6
:100D6000880C991CAA1CBB1C4A95D2F7B501A4019A
:100D70004C015D0104C0880C991CAA1CBB1C2A955F
:100D8000D2F7482959296A297B2904C0880F991F5D
:100D9000AA1FBB1F0A95D2F78A019B010C211D21B6
:100DA0002E213F21041715072607370789F48C29C0
:100DB0009D29AE29BF29BC01CD011F910F91FF9044
:100DC000EF90DF90CF90BF90AF909F908F9008955D
:100DD00080959095A095B0958C219D21AE21BF2145
:100DE000EACF0F93382F262F6091EF037091F00315
:100DF0008091F1039091F203042F432F0E949D06EE
:100E00000F910C94A8220E94F824811102C00E9424
:100E100095250C9430090C94330908950C940D0712
:100E200081E008950C941007CF93C82F0E940E07FD
:100E30008C2FCF910C94120708950E94491F0E9495
:100E40001C072FEF84E39CE0215080409040E1F7A5
:100E500000C000000C94BE260F931F93CF93DF9326
:100E6000EC0161E00E9489068C01BE010E9405062A
:100E7000882359F1BE01C8010E942117882329F156
:100E8000BE01C8010E9473178823F9F0BE01C80192
:100E90000E9496188823C9F0BE01C8010E94191348
:100EA000882399F08A81882339F001158CE5180789
:100EB00051F00E3D1C4579F0CE01DF91CF911F918D
:100EC0000F910C9451060E941D0780E0DF91CF9195
:100ED0001F910F9108950E949525F7CF972F70E0ED
:100EE00026E0929F600D711D1124FB019CE3899FF8
:100EF000E00DF11D1124EE0FFF1FE455FF4F85910A
:100F000094910895CF93DF930E946E070E94550835
:100F1000EC01811523E5920790F5811532E59307E1
:100F200008F096C081159042C8F4C11581E0D80739
:100F300088F4C53AD10548F4C430D10558F4C1301D
:100F4000D10541F0D0E0C0E005C0CE01805E91093E
:100F50000897C0F7CE01DF91CF910895C11591E5B3
:100F6000D90708F070C0C11520E5D20708F04EC0BF
:100F7000C11530E4D30730F3DF70D06AEBCF8115B1
:100F800046E59407F0F4C11585E5D80708F075C06B
:100F9000C11594E5D90708F06BC0CE01837099277D
:100FA00021E030E002C0220F331F8A95E2F7C69598
:100FB000C69590E2C99FE0011124C22BD32BDA68B9
:100FC000C9CF81152AE5920778F4811539E5930791
:100FD00008F05EC0811548E5940708F4B3CFD82F18
:100FE000CC27C06FD06AB6CF90568115904208F0DA
:100FF000A9CF8D2F8F710E94EC0890E0982F882741
:1010000088279F719C012C2BE90140C0CE01E4E0B0
:1010100096958795EA95E1F783702C2F269526956E
:10102000237040E2249F90011124382B8C2F837071
:10103000C1E0D0E002C0CC0FDD1F8A95E2F7C22BE1
:10104000D32BDC6887CFDC2FCC27C16FD06A82CF4F
:101050008370992721E030E002C0220F331F8A9568
:10106000E2F7C695C69580E2C89FE0011124E7CF5C
:10107000DC2FCC27C46FD06A6DCF8C2F0E94EC0878
:10108000C82FD0E0DC2FCC27CC27DF71D06262CF15
:101090008F700E94EC0834E0D695C7953A95E1F739
:1010A000CF709C2FEC01D06955CF82389105B1F1FA
:1010B000B0F48133910509F475C048F48932910583
:1010C00009F469C08A32910509F473C00895853323
:1010D000910509F459C08933910501F10895833EC2
:1010E0009105A9F138F4803E9105F9F0823E910511
:1010F00049F10895863E9105A9F1873E9105C9F110
:10110000843E910519F52091F90621FF1FC08091B9
:10111000F80684FD14C087EE90E008952091F8064B
:101120002370A1F080EE90E008952091F80620FD54
:1011300047C03091F90630FF09C024FF44C090E059
:1011400080E004C02091F80622FDF7CF0895209199
:10115000F80622FD3BC03091F90630FDE3CF24FFB5
:10116000F5CFEDCF2091F80623FFF0CF24FDE7CF98
:10117000D2CF2091F80623FD2CC03091F90631FF23
:10118000EECF84EE90E008952091F80625FFDECFA3
:1011900089E290E008952091F80625FFD7CF85E3F6
:1011A00090E008952091F80626FFD0CF8AE290E0E3
:1011B00008952091F80626FFC9CF81E390E00895B5
:1011C00089E390E0089583EE90E0089582EE90E048
:1011D000089586EE90E008959091F80692FF06C07B
:1011E000282F28712830F9F4877F846093FF06C088
:1011F000282F28712831F1F4877E84612091F90627
:1012000020FF06C0382F38713830D9F4877F8160CD
:1012100021FF06C0282F28712831D1F4877E8161F3
:1012200094FD877E0895282F24712430F9F68B7F52
:101230008860DCCF282F2471243101F78B7E8861F0
:10124000DDCF382F3171313019F78E7F8860E0CFD4
:10125000282F2171213121F78E7E8861E1CF0895F9
:101260000C942F0908950C943209E82FF0E0EE5CFD
:10127000FB4F80810895089580EA8A95F1F70895DB
:1012800008950E949C0A809144018091440195E058
:10129000811190E090933D0485E0891B80933C048C
:1012A000AAECB1E061E070E08D91E82FE295EF707B
:1012B000F0E041A18F709B0101C0220F8A95EAF7EF
:1012C000922F9095942391A382A1822B82A381E0F7
:1012D000AF3CB80749F7A4ECB1E061E070E08D9154
:1012E000E82FE295EF70F0E041A18F709B0101C003
:1012F000220F8A95EAF7922F9095942391A382A1C9
:10130000822B82A381E0AA3CB80749F7E8E2F4E027
:10131000A2E3B4E082E394E011921D928E179F073E
:10132000D9F785E00E94470A0E9403070C94B20A8D
:101330000E947E0A8823F9F080913C0490E08E5C44
:101340009B4F0E94E20A811113C0809108028F5FB7
:1013500080930802863050F0E0913C04F0E0EE5CAF
:10136000FB4F108211821282138214820C940B079D
:1013700010920802FBCF80913D0490E08E5C9B4F61
:101380000E94FF0A0C9440098F929F92AF92BF92E5
:10139000CF92DF92EF92FF920F931F93CF93DF9341
:1013A0008AECA82E81E0B82E08E214E0912CCC241F
:1013B000C394D12CF50181915F01C82FC295CF70E4
:1013C000D0E099A18F70760101C0EE0C8A95EAF702
:1013D000892F8E2989A38AA18E2C809488218AA3A3
:1013E0000E943C09E4ECF1E050E040E020E0319163
:1013F000A32FA295AF70B0E090968C9190E03F70D3
:1014000002C0959587953A95E2F780FD3CC08C2DFA
:10141000042E01C0880F0A94EAF7282B4F5F5F4F14
:101420004630510521F789A1882289A28AA1E82A9C
:10143000EAA2F8018081281741F1208381E0982AEF
:101440000F5F1F4FFFECAF16F1E0BF0609F0B2CF00
:1014500060913D0470E06E5C7B4F292D45E088E291
:1014600094E00E94480A0E949809892DDF91CF914B
:101470001F910F91FF90EF90DF90CF90BF90AF90B2
:101480009F908F90089580E0C8CF80E0D8CF0895D6
:10149000FF920F931F93CF93DF93F82E092F162FF0
:1014A000D72FC42F222349F081E080930B020E94A2
:1014B000732690930A028093090280910B0288237D
:1014C000A1F08091090290910A020E948B26069752
:1014D00060F0EF2DF02FA12FBD2FCE0FDF2FD11DEC
:1014E000EC17FD0741F410920B02DF91CF911F9191
:1014F0000F91FF90089581918D93F2CF80910C020E
:10150000811111C08091D80080618093D8008AE158
:101510008A95F1F700C09091D900892F817090FFD2
:1015200082E080930C0281E090910C02913009F0EE
:1015300080E008950C947E0A0E949A0A80934401E8
:1015400080914401882351F06CE180E00E94AE0B51
:101550000E947E0A882329F00C94B90A6DE18CE17F
:10156000F5CF08950E947E0A811102C00C94BF0A33
:10157000089562E070E085E491E00C940C1A62E05A
:1015800070E085E491E00C94151A0E94E010882325
:1015900061F084E192E00E94E61081E090E00E9418
:1015A000EE1A892B11F40C94E31008958091130224
:1015B000883039F460E084E192E00E94F6111092E4
:1015C00013020895CF93DF93D82FC92F0E94C50A25
:1015D00090E080E00E94EE1A009779F4ED2FFC2F46
:1015E000DC01A25FBD4F2C912193019685309105BE
:1015F000B9F781E0DF91CF91089580E0FBCFCF93E1
:10160000DF93D82FC92F0E94D60AED2FFC2F90E030
:1016100080E02191DC01A25FBD4F2C9301968530C3
:101620009105B9F7DF91CF910895EF92FF920F9353
:101630001F93CF93DF93EB01E82FD11110C0442308
:1016400021F0F0E0EA55FC4FE4916E2F7E2F8E2FB3
:10165000DF91CF911F910F91FF90EF9008950D2F83
:1016600010E0282F30E0442329F02A553C4FF9019F
:10167000249130E0F6E0CF9FC0011124EFEFF0E0BD
:10168000BF010E94432DAB018C2F90E0880F991F62
:10169000A5E5A49FB001A59F700D1124861B970B93
:1016A000982F990F980FBF01601B710B629FD0019B
:1016B000639FB00D729FB00D11248B2F9D9FB001C1
:1016C0001124672F7727EF01C61BD70BBE01629F3E
:1016D000E001639FD00D729FD00D11247F01E91AA4
:1016E000F108E09EB001E19E700DF09E700D112496
:1016F000672F7727E61BF70BE29F8001E39F100D12
:10170000F29F100D1124E12F722F4230510599F0F4
:1017100048F44115510569F04130510581F0EB2F36
:101720008D2F07C04430510569F080F046305105D7
:10173000B1F76E2F8DCFE22F7B2F812FFACFE22FC3
:101740007D2FF7CFEB2F822F712FF3CF7B2F822F9F
:10175000ED2FEFCF41E00C94150B0895E8E5F1E093
:10176000808361830895CF93DF93762FE901682FFB
:10177000842F0E94AA0B798368838A83DF91CF919B
:101780000895413F08F040EF0C94B30B80913E0464
:10179000982F9E7F61F48170826080933E048091D7
:1017A0004104813F18F080EF80934104089586350D
:1017B000B0F381708465F1CF88E090E00C94F13053
:1017C000CF92DF92EF92FF926B017C010E94C60BD9
:1017D000B701A60188E090E0FF90EF90DF90CF90F6
:1017E0000C940F31EEE3F4E083E0808311828FEFFD
:1017F000828380EF83831482A6E4B3E012968C91F7
:101800001297836012968C9360817181828193819B
:101810000C94E00B80913E0480FF02C086950895F1
:1018200080E0089590914204933018F49F5F909364
:101830004204882351F060913E0470913F048091EE
:101840004004909141040C94E00B089581E00C94C5
:10185000120C90914204992319F0915090934204F4
:10186000882351F060913E0470913F0480914004C0
:10187000909141040C94E00B089581E00C94290CA4
:1018800070E00C9488136091590180913E0480FFB0
:101890000AC08091580123E0829FC00111248D5B12
:1018A0009B4F0C94400C80915A0190915B0123E076
:1018B000829FF0011124ED5BFB4F891750F71182D5
:1018C000108212828F5F3396F8CF90913E0490FF82
:1018D00014C090915A0120915B0133E0939FF00175
:1018E0001124ED5BFB4F921710F00C94430C818395
:1018F000608342839F5F3396F6CF0895CF93DF9343
:1019000000D00F92CDB7DEB790913E0490FF0AC091
:101910009E012F5F3F4F0E94C10B4B8169818A81DD
:101920000E94650C0F900F900F90DF91CF9108955A
:10193000CF93DF93EC01EC81F0E0EF55FD4F449144
:10194000EEE3F4E0628181810E947E0C8C818F5FE6
:101950008C83DF91CF910895CF93DF93EC01EEE379
:10196000F4E0438162818C810E947E0C8C818F5FC8
:101970008C83DF91CF9108950F931F93CF93DF93C3
:1019800000D00F92CDB7DEB78C0180911C0281117F
:101990000AC09E012F5F3F4F40EF6FEF0E94C10BC7
:1019A0008A8180931C02F8016481613069F0809122
:1019B0001C0240E0662361F040E0623011F4409187
:1019C0001C0280E060E004C060911C0240E080E006
:1019D0000E94650CF801848190E0019663E070E05C
:1019E0000E94572D84830F900F900F90DF91CF911D
:1019F0001F910F910895AF92BF92CF92DF92EF9215
:101A0000FF920F931F93CF93DF9300D00F92CDB728
:101A1000DEB7182FF62E042FE22E90913E0490FF91
:101A20003AC0E92FE695AE2FB0E0AC52BE4F8C9194
:101A3000809346039E7F9230E1F59E012F5F3F4FDA
:101A4000812F0E94C10B4B8169818A810E94650CA4
:101A500080913F04811308C0809140048F1104C01D
:101A600080914104801729F080914803826080931F
:101A7000480310933F04F092400400934104EE2089
:101A800051F060913E0470913F0480914004909128
:101A900041040E94E00B0F900F900F90DF91CF91C7
:101AA0001F910F91FF90EF90DF90CF90BF90AF907C
:101AB0000895823019F400914104CACF863019F498
:101AC00010913F04C5CF8930D9F3893109F6E95126
:101AD0008E2F8170D82EE695F0E0EF55FC4FA59043
:101AE000B490C12CBB2460915C01C61618F00E9412
:101AF000430CAECF2C2D30E0A29EC001A39E900DD2
:101B0000B29E900D112470E00E94432D812FD110C0
:101B100013C0860F40915A01420F532F511D9A0155
:101B2000220F331F240F351F2D5B3B4F402F6F2D8E
:101B30000E94C10BC394D7CF861BECCFEEE3F4E039
:101B40009181282F438162818AE0890F0C94FB0CDC
:101B500081E00C949E0DEEE3F4E09181282F438107
:101B6000628186EF890F0C94FB0C81E00C94AB0D25
:101B7000EEE3F4E0628121E1620F08F46FEF282FB9
:101B8000438181810C94FB0C81E00C94B80DEEE351
:101B9000F4E0628121E1621B08F460E0282F4381B8
:101BA00081810C94FB0C81E00C94C70DEEE3F4E012
:101BB000438121E1420F08F44FEF282F6281818198
:101BC0000C94FB0C81E00C94D60DEEE3F4E0438121
:101BD00021E1421B08F440E0282F628181810C94AE
:101BE000FB0C81E00C94E50D20E00C94FB0CEF92D3
:101BF000FF921F93CF93DF93EC0110E0EE24EA9461
:101C0000F12C60915C01161770F00E94430C9A81D0
:101C10008C8190FF27C08F5F8C83DF91CF911F91C4
:101C2000FF90EF90089520915A01422F410F5527C0
:101C3000551FCA019A01220F331F280F391F2D5B30
:101C40003B4F70E0C7010E94572D962F8C81409129
:101C5000410460914004199F800D11240E94C10B22
:101C60001F5FCFCF8150D8CF8F929F92AF92BF92FC
:101C7000CF92DF92EF92FF920F931F93CF93DF9358
:101C8000EC018A81BB24BA9480FD02C0BB24B394CA
:101C90008C8181110AC081E0B8122AC080915C0158
:101CA000815080931E0281E08C83A12C49E3942E05
:101CB00080915C01A816F8F00E94430C80911E02EE
:101CC00091E0B91261C081115AC080915C018150CC
:101CD00080931E021C82DF91CF911F910F91FF9084
:101CE000EF90DF90CF90BF90AF909F908F9008952E
:101CF00010921E02D8CF00915A01CA2CD12C0C0D83
:101D00001D2D111DC801880F991F080F191F0D5B8C
:101D10001B4FF80111821082128234E0E32EF12C65
:101D2000812C80911E02880D8A331CF1692D0E943E
:101D3000352D892F082E000C990BC816D90691F461
:101D4000809141048E9DA0018F9D500D11245595C9
:101D500047955595479598016091400480913F04BF
:101D60000E94C10B8B0CF1E0EF1AF108D1F6A3949D
:101D70009FCF87FFDFCF90915C01890FDBCF815030
:101D800080931E02BC82A7CF90E0019660915C0117
:101D900070E00E94572D80931E028C839CCFEF929F
:101DA000FF920F931F93CF93DF93EC018C818111EE
:101DB00009C081E08C8310921D0292E0909357013C
:101DC0008093560180915A0190915B0123E0829F9C
:101DD000F0011124ED5BFB4F891768F110E003E07F
:101DE00060915C01161768F10E94430C80915601C6
:101DF00020911D02280F20931D0290915701980FEA
:101E000090935701191654F4022E000C330B409195
:101E10005C014150550B2417350734F081958093B0
:101E20005601813009F41C82DF91CF911F910F91EF
:101E3000FF90EF9008951182108212828F5F339687
:101E4000CBCFE12EF12C70E0C7010E94572D2091DD
:101E50005A01820F482F50E020911D02022E000CE3
:101E6000330BE216F306BCF020915701022E000C52
:101E7000330B2E153F057CF0809F900111242D5BC4
:101E80003B4F409141046091400480913F040E9487
:101E9000C10B1F5FA5CFFA01EE0FFF1FE40FF51F67
:101EA000ED5BFB4F118210821282F3CF8F929F92D3
:101EB000AF92BF92CF92DF92EF92FF920F931F9358
:101EC000CF93DF93EC014C81042F10E09801D801EF
:101ED0000E949B2D9B01AC010E94B12D4B015C0126
:101EE000E0E2F0E0E01BF10BA5E5B0E0AC019B0106
:101EF0000E94B12D6B017C019F01DF010E94932D97
:101F00009B01AC010E94BC2D9B01AC01280D391D29
:101F10004A1D5B1DC701B6010E946B2DF22E822F58
:101F200090E039E23F1560F143E0249F90011124D5
:101F300035952795122F109500E085E5E82EEF18CE
:101F400080915C01081758F10E94430C9C8181E04C
:101F5000992319F0903219F48FEF809355018091F5
:101F60005501890F8C83DF91CF911F910F91FF90C5
:101F7000EF90DF90CF90BF90AF909F908F9008959B
:101F800025E530E0B901681B790B9B01220F331F57
:101F9000260F371F37FFCCCF2F5F3F4FC9CF8E2D76
:101FA00001FD8F2D20915A01622F600F7727771F37
:101FB0009B01220F331F260F371F2D5B3B4F412FF5
:101FC000609140040E94C10B0F5FBACF0F931F9323
:101FD000CF93DF93EC0110E000E090915C0190174B
:101FE000110609F06CF40E94430C8C8190E001967C
:101FF000817099278C83DF91CF911F910F91089564
:1020000020915A01A801420F511D9A01220F331F3E
:10201000240F351F2D5B3B4F4C8160914004809114
:102020003F0496959017110651F04CF0442349F067
:10203000409141040E94C10B0F5F1F4FCECF44233C
:10204000B9F340E0F7CF8F929F92AF92BF92CF92B9
:10205000DF92EF92FF920F931F93CF93DF93FC01D8
:10206000B280948081E0848300E015E05BE4A52EDB
:1020700088248394EE24EA94F12C7BE4C72ED12C9F
:1020800080915C01081770F0DF91CF911F910F9143
:10209000FF90EF90DF90CF90BF90AF909F908F9088
:1020A0000C94430CC02FD0E01C9FF0011D9FF00D3D
:1020B0001124EE5DFD4F91101CC0138212822091FD
:1020C0005A01CE01820F911D9C01220F331F280F50
:1020D000391F2D5B3B4F1C9FF0011D9FF00D1124FC
:1020E000EE5DFD4F4281618180810E94C10B0F5FD7
:1020F000C7CF2381222379F12150238334818A2D74
:10210000821B311101C0822F1C9FF0011D9FF00D19
:102110001124EE5DFD4F90914104899FC00111246F
:10212000B6010E94432D6283211104C0332311F0B4
:102130001482A38222E02B1510F21C9FF0011D9F38
:10214000F00D1124EE5DFD4F80913F04808380915E
:1021500040048183B4CF0E94102E823091400CF055
:10216000AECF82E08B1530F50E94102EB7010E9491
:10217000572D1C9FF0011D9FF00D1124EE5DFD4FAA
:10218000808322E02B15C8F40E94102E2091400479
:102190002695622F70E00E94572D280F1C9FF0019A
:1021A0001D9FF00D1124EE5DFD4F21831282A3824D
:1021B000848285CF80913F04DCCF20914004EECF14
:1021C00080914803089510924803089525E0EEE3B6
:1021D000F4E0DC0101900D922A95E1F7209146038D
:1021E0003091470340914803FC01258336834783A0
:1021F0000895E6E4F3E01182828184608283089589
:10220000EEE3F4E080818E7F80830E94F910E6E4A3
:10221000F3E08281816082832FEF80E792E021509A
:1022200080409040E1F700C000000C94430CEEE3C6
:10223000F4E080818E7F80836081718182819381CF
:102240000E94E00B0E94F910E6E4F3E082818160D5
:1022500082832FEF80E792E0215080409040E1F7A9
:1022600000C000000C94430C60913E04669570E041
:102270004BE050E08DE591E00E94292E892B19F466
:1022800081E0809347030E947326909340038093DC
:102290003F038091480384608093480308959091A0
:1022A0003E0490FF3AC0917081112DC092609093CE
:1022B0003E0480914803816080934803662351F077
:1022C00060913E0470913F048091400490914104DC
:1022D0000E94E00B60913E04669570E04BE050E098
:1022E0008DE591E00E94292E892BA1F00E94F91022
:1022F00081E08093420340914104609140048091C9
:102300003F040C94F40D8B3210F09465D0CF880FFD
:10231000982BCDCF0E943411EBCF0895682F909168
:102320003E04969581E0890F8B3208F081E00C9491
:102330004F1181E00C948E11682F90913E04969578
:102340008FEF890F09F48AE20C944F1181E00C940D
:102350009C1161E00C944F11EEE3F4E08081816008
:10236000808386950C94A91180913E0480FD0C9485
:1023700017110C94AC1160E00C944F11809145033F
:10238000811133C00E94F824811104C00E94952558
:102390000E94F20B0E94DC0B60933E0470933F049A
:1023A000809340049093410480914803836080931C
:1023B00048036E7F61F40E94F20B0E94DC0B609375
:1023C0003E0470933F0480934004909341040E9424
:1023D000C60B0E94F91080913E0480FF03C08695D1
:1023E0000E94BB1181E08093450308951F93CF9312
:1023F000DF93EC01162F8F8180FF0CC0888180FF56
:1024000024C080913E04816080933E04888186953B
:102410000E944F118F8181FF06C0212F4B816A815D
:1024200089810E94FB0C8F8182FF05C08E818823E9
:1024300079F00E9434118F8183FF03C081E0809383
:102440004203DF91CF911F9108950E940011E2CFC6
:102450000E94F910F0CFEF92FF920F931F93CF934A
:10246000DF9380914703882309F468C08091460375
:10247000E0913E04E695E81BE0934103823009F0C9
:1024800064C0F0E0E356FD4FE491CE2FD0E008E9C0
:102490001CE080914203882389F0109242030E943D
:1024A00073269E0120953095820F931F90934003D1
:1024B00080933F03109244031092430380913F03A3
:1024C000909140030E948B268C179D07B8F1809154
:1024D00021028823B1F01092210280911F02909175
:1024E00020020E948B268033954758F00E94732665
:1024F0009093200280931F0280914803886080930C
:102500004803E0904303F0904403E0913F03F091CF
:102510004003CE0FDF1FD0934003C0933F038FE3F0
:1025200093E0F80109958091430390914403892B2E
:1025300029F4EF2819F081E080932102DF91CF91F7
:102540001F910F91FF90EF900895863049F4F0E0CD
:10255000E656FD4FE491CE2FD0E00CEA1CE099CF77
:10256000893051F4E695F0E0E956FD4FE491CE2F25
:10257000D0E007EF1DE08DCF8F3051F4E695F0E00D
:10258000EC56FD4FE491CE2FD0E004E31EE081CF66
:10259000853149F4F0E0EF56FD4FE491CE2FD0E0C5
:1025A0000FEC1EE076CFC8E2D0E006E51FE08831F0
:1025B00009F46FCF833239F4EFE8F2E0C591D4919A
:1025C0000CEB1CE066CFC4EFD1E006EE1FE08432D6
:1025D00009F45FCFC0EDD7E00DEA1BE0853209F0CA
:1025E00058CF8E2F63E00E94292DE92FF0E0E457A9
:1025F000FD4FE491CE2FD0E003E210E14ACFFA0183
:10260000811101C0FB010994CF93DF93C82FD62F0E
:102610000E940A0C8C1740F00E940A0C8D1720F4BF
:10262000DF91CF910C9499118C2FDF91CF910C9465
:10263000A9111F93CF93DF93EC01FB0112811111BC
:1026400010C00E9456248272FE01E25CFC45E43117
:10265000F10508F05BC0E757FE4C0C948D2D0E94ED
:10266000B411812FDF91CF911F91089546EA51E176
:1026700069E971E10E94FF12F4CF49E951E166EA8C
:1026800071E1F8CF45EB5DE068EA7DE0F3CF48EA21
:102690005DE065EB7DE0EECF43ED5DE064EC7DE079
:1026A000E9CF44EC5DE063ED7DE0E4CF41EF5DE038
:1026B00062EE7DE0DFCF42EE5DE061EF7DE0DACFFC
:1026C0004DE35CE066E27CE0D5CF46E25CE06DE3A2
:1026D0007CE0D0CF81E00E94A911C3CF65E082E009
:1026E0000E940413BECF68E086E0FACF6EE089E076
:1026F000F7CF64E18FE0F4CF67E185E1F1CF88E1C6
:10270000EACF62E289E1ECCF83E2E5CF11E0A9CF25
:10271000539A4BB1477F5BB15860EFB7F8949B0178
:10272000220F331F260F371F280F391F281739078D
:1027300041F4EFBF8FE594E00197F1F700C000008E
:102740000895DC016D91CD0178E05BB9000000C017
:1027500067FF4BB9660F000000C000C000C04BB956
:1027600000C07A9591F7E2CFCF92DF92EF92FF927D
:102770000F931F93CF93DF936C017B0164E670E0AE
:1027800088E70E94C618EC0197FD12C010E000E037
:10279000F601E00FF11F849164E670E00E942219B7
:1027A000EC01892B29F40F5F1F4F0E151F0581F7D0
:1027B0000E94A519CE01DF91CF911F910F91FF903B
:1027C000EF90DF90CF900895EEEEF4E080E092E09D
:1027D000DF019C011D9221503040E1F7F093F30698
:1027E000E093F2068FEF9FEF90937503809374034D
:1027F00008950E9407068093700380FD0FC080E853
:1028000080936F030E94C0186DE070E08DEB94E040
:102810000E94B413892B21F080E0089580E2F0CF6C
:102820008091700363E070E081FD26C08AEB94E044
:102830000E94B413892B81F76DE070E08AEA94E07E
:102840000E94B413892B41F70E947F26605A75417C
:102850008F4F9F4F6093EE067093EF068093F006C4
:102860009093F1060E94E41381E0809373038093B8
:10287000720310927103089587EB94E0D9CF2091F1
:102880006F0336E0839FC0011124629F800D911D6C
:102890001124811522E0920714F090E080E082512B
:1028A0009B4F9093F3068093F20608952091F206D1
:1028B0003091F306285E344040916F03642F70E03E
:1028C000C9010E94432D481B463010F4240F311DCE
:1028D000211582E0380710F030E020E022513B4F14
:1028E0003093F3062093F20608951F93CF93DF935E
:1028F000162F8A3031F481E0DF91CF911F910C9433
:10290000EF148D3011F480E0F7CFC091F206D09132
:10291000F30696E0FE01A9E4B3E001900D929A95CA
:10292000E1F7803EC8F086E0FE0111928A95E9F752
:1029300011111EC0C091F206D091F30646E050E09E
:10294000BE0189E493E00E94362E892BF9F4DF91D1
:10295000CF911F910C945614F6E08F9FB001112473
:1029600066537B4F46E050E0CE010E94202EE0CF20
:10297000E091F206F091F3069F012A5F3F4F2E1778
:102980003F07C1F2808180958193F9CFCE5ED4401C
:10299000CE0125E0969587952A95E1F721E030E074
:1029A000A90102C0440F551F8A95E2F7CA01409160
:1029B000740350917503842B952B259645E0D6958D
:1029C000C7954A95E1F702C0220F331FCA95E2F777
:1029D000822B932B9093750380937403B8CFCF937E
:1029E000382FE091F206F091F306EE5EF44020916C
:1029F0006F03622F70E0CF010E94432D281B822FAE
:102A0000332369F066E00E94292DC82FC15010F4CD
:102A1000CF91089560E080E20E947514F7CF9F0186
:102A2000280F311D2115324018F080E0F0E0E0E081
:102A30008E0F9F2F911D82519B4F9093F306809391
:102A4000F206E6CFFF920F931F93CF93DF93EC0133
:102A5000F62EFC0101900020E9F78F0101501109C9
:102A6000C017D10730F0DF91CF911F910F91FF90E8
:102A700008956F2D89910E947514F2CF0E9422153E
:102A800081E00C94EF140E947F26605A75418F4FAD
:102A90009F4F6093EE067093EF068093F00690933D
:102AA000F10680917203811108C062E070E088EA4B
:102AB00094E00E94B413892B19F080917203089559
:102AC00081E080937203F9CF2F923F925F926F92D1
:102AD0007F928F929F92AF92BF92CF92DF92EF92AE
:102AE000FF920F931F93CF93DF9320917403309144
:102AF00075032115310531F08091710361E070E0BB
:102B0000882399F0DF91CF911F910F91FF90EF9063
:102B1000DF90CF90BF90AF909F908F907F906F90FD
:102B20005F903F902F9008958F5F082F10E01B015A
:102B3000082E02C0220C331C0A94E2F7A90142219C
:102B40005321452B89F39091700390FD44C08295E9
:102B5000880F807680936A0198013695279536957F
:102B6000279520936D01815E80936B0110926E0119
:102B700024E630E047E050E068E671E088E70E9434
:102B80005119892B09F0BECFA80125E0440F551F2C
:102B90002A95E1F78091700380FD2BC042515B4F75
:102BA00004E610E020E230E060E488E70E94781953
:102BB000892B09F0A7CF0E944315E101C095D0955C
:102BC0008091740390917503C823D923D093750322
:102BD000C093740397CF880F880F880F80936A0182
:102BE00010926D01895F80936B0183E080936E0189
:102BF000BFCFEFE4F3E080E2DF011D928A95E9F7B1
:102C0000A3E0B2E00FEF11E087E0C82E82E0D82EFB
:102C100097E0592E772473948D91E80129918E01C4
:102C2000240F352F311D22513B4FE82FF0E0E15B9F
:102C3000FC4F90E080E0652C681A872C082E01C0BC
:102C4000880C0A94EAF77901A12CE701B9907E017A
:102C5000B820662D6A196770962E062E000C770B29
:102C6000DB2D01C0DD0F9A94EAF77195619571092A
:102C70006770772701C0B6946A95EAF7BD2A60812C
:102C8000962E9B289082A39468E0A612DECF019630
:102C900031968830910579F6CA16DB0609F0BCCF6B
:102CA00004E610E020E230E04FE453E07DCF809175
:102CB0007203882369F062E070E086EA94E00E9483
:102CC000B413892B19F08091720308951092720346
:102CD0008091720391E0892708950F931F9380914B
:102CE0007303882301F160E080E00E943F140E949A
:102CF00012060E946415809172038823A1F00E943D
:102D00007F260091EE061091EF062091F00630919B
:102D1000F106601B710B820B930B97FD04C01F9192
:102D20000F910C9457161F910F910895AF92BF9277
:102D3000CF92DF92EF92FF920F931F93CF93DF9387
:102D40007C015B01C42FD22FFC0182818823F9F022
:102D5000409378030E9473269093770380937603C1
:102D600080E28C0F883008F061C0C77081E001C03C
:102D7000880FCA95EAF7DF91CF911F910F91FF90CD
:102D8000EF90DF90CF90BF90AF900C940D1D1091FD
:102D90007803141340C080917603909177030E94CA
:102DA0008B266C01B701C5010E94BF21C816D90648
:102DB00090F5C0E2CD0F1D17B9F080E2810F883089
:102DC00040F4177081E001C0880F1A95EAF70E945D
:102DD000141DC83048F481E09D2F977001C0880F02
:102DE0009A95EAF70E940D1D802F0E94FA1CC830A8
:102DF000E8F4D77081E001C0880FDA95EAF7DF9137
:102E0000CF911F910F91FF90EF90DF90CF90BF90E7
:102E1000AF900C94141D80E28C0F883038F4C7708A
:102E200081E001C0880FCA95EAF7E9CFDF91CF9121
:102E30001F910F91FF90EF90DF90CF90BF90AF90D8
:102E400008950F939C01CB01233F4CE5340759F1C2
:102E5000A8F4283DFCE53F0701F1293D4CE5340786
:102E6000D1F1273D3C4591F406E221EE41EE67EDBC
:102E70007CE50E94961680E00F910895253FFCE5C1
:102E80003F07E9F0B0F0263F3C45F9F0FC018281B4
:102E9000882339F110927803EFCF07E225EE45EE53
:102EA00068ED7CE5E6CF06E221EE40EE63EF7CE5DF
:102EB000E0CF07E225EE44EE64EF7CE5DACF06E2F0
:102EC00021EE42EE65EF7CE5D4CF07E225EE46EE3B
:102ED00066EF7CE5CECF08E221E045EE69ED7CE5CA
:102EE000C8CF81E0C9CFCF93DF93EC01FB01828192
:102EF000882309F419C1C230FCE5DF07C0F1C631EF
:102F00009CE5D90730F09E012A5F3C452930310508
:102F100070F50E940B259093F9068093F806C03156
:102F2000ECE5DE0709F4CFC008F05BC0C8308CE5E3
:102F3000D80709F4B6C088F5C430ECE5DE0709F41B
:102F4000A8C0C0F4C2308CE5D80709F49CC08091B9
:102F5000F8068260C330DC4509F498C08091F80619
:102F60009091F9060E9419250E94491F80E0DF9187
:102F7000CF9108958091F8068061C630ECE5DE07B8
:102F800009F484C08091F8068860C730DC4508F4F5
:102F90007DC08091F806806279C0CC308CE5D8077E
:102FA00009F489C070F48091F8068C60CA30ECE5B1
:102FB000DE0709F46BC008F478C08091F8068E7FB4
:102FC00065C0CE308CE5D80709F479C08091F80649
:102FD0008B7FCF30DC4508F459C08091F8068F7E96
:102FE00055C0CB3FECE5DE0709F457C030F5C331DF
:102FF0008CE5D80709F46FC078F4C131ECE5DE0741
:1030000009F465C0C231DC4509F0A8CF0E94491F10
:103010008091F8068F773AC0C5318CE5D80709F45E
:1030200062C008F476C08091F9068160CA3FDC4531
:1030300009F094CF8093F90691CFCF3FFCE5DF07ED
:1030400009F44DC088F48091F9068D7FCD3F9CE551
:10305000D90781F38091F9068E7FCE3FDC4550F38E
:103060008091F9068360E6CFC130FDE5DF0709F402
:1030700059C008F444C080E0C230DD4509F06ECF8D
:103080000E9497256BCF8091F80681608093F806A7
:1030900065CF8091F8068460F9CF8091F90682604F
:1030A000C9CF8091F8068064F1CF0E94491F8091BA
:1030B000F8068068EBCF8091F8068D7FE7CF80918E
:1030C000F806877FE3CF8091F8068F7DDFCF809170
:1030D000F8068F7BDBCF8091F806837FD7CF809176
:1030E000F9068C7FA7CF8091F80682FB992790F98B
:1030F00021E0922790FB82F990FB83F9C7CF809162
:10310000F906982F909591708E7F892B90FB81F90D
:1031100091CF0E94491F9091F806892F97FB87F95C
:103120008058B4CF81E0ACCF81E021CFCF93DF9343
:10313000EB0186319C4511F50E9456249A81992312
:1031400099F08A7A91E009F490E0909379038111E3
:1031500009C089E20E9431240E94952480E0DF9119
:10316000CF91089585E3F6CF80917903811104C052
:1031700089E20E943824F0CF85E3FBCF81E0EFCFD6
:103180001092B9008CE08093B8000895EF92FF92FE
:103190000F931F93CF93DF93182FEB011092BC0076
:1031A00084EA8093BC000E9473267C018091BC005D
:1031B00087FF27C08091B900887F883029F08091EF
:1031C000B900887F8031D9F51093BB0084E88093E3
:1031D000BC000E9473268C018091BC0087FF24C034
:1031E0002091B900287F90E080E02831B1F081E0A3
:1031F00090E0203411F490E080E091958195910960
:103200000CC0CF3FDC0791F20E9473268E199F09F4
:103210008C179D0758F28EEF9FEFDF91CF911F9192
:103220000F91FF90EF900895CF3FDC07A9F20E9425
:103230007326801B910B8C179D0770F2ECCF8FEFDC
:103240009FEFEBCF0F931F93CF93DF93EB0180930F
:10325000BB0084E88093BC000E9473268C0180919F
:10326000BC0087FF11C02091B900287F81E090E069
:10327000283211F490E080E0919581959109DF91D9
:10328000CF911F910F910895CF3FDC0741F30E942A
:103290007326801B910B8C179D0708F38EEF9FEF11
:1032A000EECFCF92DF92EF92FF920F931F93CF93C7
:1032B000DF936B018A017901B9010E94C618E6010A
:1032C0000C0D1D1DC017D10761F424E92093BC002B
:1032D000DF91CF911F910F91FF90EF90DF90CF90F2
:1032E000089597FDF2CFB70189910E942219EACF84
:1032F000CF92DF92EF92FF920F931F93CF93DF93C2
:10330000C62F6A017901B8010E94C61897FD0CC04A
:10331000B8018C2F0E942219E601EC0CFD1CCE1581
:10332000DF0511F097FF0CC024E92093BC00DF916A
:10333000CF911F910F91FF90EF90DF90CF90089564
:10334000B80189910E942219EACF84E98093BC00D8
:1033500008958EE14A9B02C08150E1F74A9BFECF5F
:1033600008955A9880E28A95F1F75A9A0895FC01D7
:103370003BE03A95F1F720E090E080E031E040E179
:103380004A95F1F7880F4A9B02C08160232742E0EB
:103390004A95F1F7000040E14A95F1F79F5F691304
:1033A000EECF90E19A95F1F799B132E03A95F1F7C5
:1033B000000040E14A95F1F792FB992790F9922796
:1033C0002081920F90830895EF92FF920F931F93A5
:1033D000CF93DF930F92CDB7DEB719828C017C01BA
:1033E000E60EF11C0E151F0561F481E09981911123
:1033F00080E00F90DF91CF911F910F91FF90EF90A0
:1034000008950E94A91968E0CE0101960E94B7199B
:10341000F80181938F01E6CF90937C0380937B0327
:1034200060937A03529A5A9A089590937C038093FA
:103430007B0360937A0352985A9AEA9AE9E6F0E09D
:1034400080818F7C808308956150770B91E001C06B
:10345000990F6A95EAF720E031E0911108C0222324
:1034600091F05A9A80E28A95F1F75A980895492F77
:10347000482339F05A9A232740E24A95F1F7969566
:10348000ECCF5A98F9CF5A98EDCFFF920F931F9334
:10349000CF93DF93EC018C01060F111DC017D107EC
:1034A00031F4DF91CF911F910F91FF900895F99022
:1034B0000E94B11968E08F2D0E94241AEFCF1F924D
:1034C0000F920FB60F9211240F931F932F933F93D8
:1034D0004F935F936F937F938F939F93AF93BF931C
:1034E000EF93FF93CF93DF930F92CDB7DEB719829F
:1034F0000E94A91967E0CE0101960E94B719082F12
:10350000069506950695982F92959570202F257013
:10351000920F292F2370969596958770920F891395
:1035200044C08981811141C080917A038017E8F1FC
:1035300020E12A95F1F75A9A529A82E08A95F1F79A
:1035400000C0A8E00A9FC001112400917B031091E4
:103550007C03080F191F5A98F8016581662321F032
:10356000868197810E94451A0E94B119F0E1FA956F
:10357000F1F75A9852985A9A20E12A95F1F7D80112
:1035800012966C911297662331F113968D919C914E
:103590000E94E419D801ED91FC91882311F088E094
:1035A00001C082E080830E94A9190F90DF91CF9122
:1035B000FF91EF91BF91AF919F918F917F916F910B
:1035C0005F914F913F912F911F910F910F900FBEDF
:1035D0000F901F901895ED91FC91E1CF0F931F93E1
:1035E000CF93DF9320917A03281719060CF471C04A
:1035F0008C0193E0000F111F9A95E1F7C0917B03B6
:10360000D0917C03C00FD11FF894529A5A9825E0AC
:103610002A95F1F70000982F969595708570980F70
:10362000892F837096959695980F092B0E94B11952
:1036300000C067E0802F0E94241A80E18A95F1F78C
:1036400052985A9A4A9B17C087E090E04A9915C051
:103650006D81662321F18E819F810E94E419811181
:103660001EC0529A5A9AE881F98182E08083789448
:1036700082E090E00DC000C0E5CF019771F4529A4E
:103680005A9AE881F98181E08083789481E090E022
:10369000DF91CF911F910F91089500C0D7CF0E9465
:1036A000A91920E22A95F1F75A98529A80E18A9551
:1036B000F1F76A81662321F08B819C810E94451A73
:1036C0000E94B119E881F9811082789490E080E03D
:1036D000DFCF84E090E0DCCF90938203809381037E
:1036E0000895E0918103F0918203309721F00190D9
:1036F000F081E02D099480E00895E0918103F0913C
:103700008203309721F00280F381E02D099408951F
:1037100020917F03309180032817390771F090932F
:10372000800380937F03E0918103F09182033097BF
:1037300021F00680F781E02D0994089520917D0302
:1037400030917E032817390771F090937E038093A0
:103750007D03E0918103F0918203309721F0008492
:10376000F185E02D0994089585B7806885BF85B7F8
:10377000806885BF0895089508950C94BB1B089533
:103780000C94BF1B0E94B41B0E94BC1B0C94BD1B5D
:103790000C947E0A0E946A260E94410980E00E94E1
:1037A000F9130E94CF260E94BE110C94C01BAF9249
:1037B000BF92CF92DF92EF92FF920F931F93CF931E
:1037C000DF93CDB7DEB72A970FB6F894DEBF0FBEF2
:1037D000CDBF0E94C409B82E0E94C81B882309F4DB
:1037E00065C084E8C82E83E0D82E10E000E0A02E4B
:1037F000802F0E943509E82EF601F1906F01F8162E
:1038000009F44EC08091040481FD0E943B099F2D64
:103810009E2580E0FF24F394292F2F21E1F18E8350
:10382000AF82EF2081E009F480E088870E94732650
:103830008160782F9A8789874E815F8168858A8524
:103840000E94781CF801EC57FC4F8081F826F0822A
:103850000E942B120E946D16B1100E9443150E9407
:10386000711B90918303891791F10E94711B8093C2
:1038700083032A960FB6F894DEBF0FBECDBFDF914B
:10388000CF911F910F91FF90EF90DF90CF90BF905D
:10389000AF900C9414078F5FFF0C863009F0BCCFFB
:1038A0000F5F1F4F0A30110509F0A1CF8FEF8983F9
:1038B0008A831B820E9473268160782F9D838C836C
:1038C00049815A816B818D810E94781CC1CF2A96D3
:1038D0000FB6F894DEBF0FBECDBFDF91CF911F9121
:1038E0000F91FF90EF90DF90CF90BF90AF90089531
:1038F000CF93DF93CDB7DEB72B970FB6F894DEBF2B
:103900000FBECDBF4F83588769877A878B871E820A
:103910001D8285E0FE013796DE01119601900D9221
:103920008A95E1F749815A816B817C818D819E81E5
:103930002B960FB6F894DEBF0FBECDBFDF91CF91AF
:103940000C94C221FC01808191810C940324CF93BB
:10395000C82F882329F18CEF8C0F813AA0F46C2FAB
:1039600080916F01909170010E94AE25882329F00B
:103970008C2F0E9438240E9495248C2F0E94312481
:10398000CF910C94952480E28C0F883048F4C77056
:1039900081E001C0880FCA95EAF70E945924F0CF50
:1039A000CF910895882329F19CEF980F913A20F444
:1039B0000E9438240C94952490E2980F983050F48B
:1039C000877091E001C0990F8A95EAF7892F0E94CC
:1039D0005F24F0CF9BE5980F933020F490E080E0D7
:1039E0000C94881B885A873120F490E080E00C9476
:1039F0009E1B0895CF93C82F0E94A71CC93349F47A
:103A00002FEF87EE93E0215080409040E1F700C017
:103A100000008C2FCF910C94D21C882321F00E949F
:103A200059240C9495240895882321F00E945F2442
:103A30000C9495240895BF92CF92DF92EF92FF925B
:103A40000F931F93CF93DF936C01D62FC72FFC01E9
:103A5000158112951F70028101110E9476240E9427
:103A60004F24E82E882391F00023E9F08C2F807FEB
:103A7000803421F080E28D0F8830A8F082E00E942F
:103A8000E0240E944F2491E0E82EE926BC2EB29457
:103A90009FE0B922FBE0FB15A8F1EB2DF0E0E35627
:103AA000FE4C0C948D2DE12CF1CF1C2F1F70C07F8C
:103AB00011F01295107F0023A9F0112359F080E234
:103AC0008D0F883010F0D11109C0812F0E94592428
:103AD0000E9495248D2F0E94A71C14C0812F0E9444
:103AE0006924F6CF8D2F0E94D21C112359F080E259
:103AF0008D0F883010F0D1112CC0812F0E945F24CF
:103B00000E9495242B2D2850330B2430310520F4AE
:103B10000E94711B0E941407EE2009F467C10E94E5
:103B20004B2480FD63C1F60112820E9445240E944D
:103B3000CE22C6010E94171F0E944524DF91CF911B
:103B40001F910F91FF90EF90DF90CF90BF900C945A
:103B5000EF22812F0E946F24D3CF2C2F2F70F22EB3
:103B6000C07FC03219F0F29480EFF822DD2369F0B3
:103B7000D13049F1002391F1112351F1F6018581F2
:103B800080FFA8CF8F70858323C0002381F011119F
:103B900006C00E947C248F290E940D1DB3CF1130D6
:103BA000C1F70E947C248F290E948224ABCF11117F
:103BB00006C00E948B248F2D0E94141DA3CF1130AC
:103BC00009F4A0CFF6CF002329F0163008F09ACFE1
:103BD0008F2DE2CF153008F095CFEDCF112359F39B
:103BE000D93349F4FFEF27EE33E0F1502040304065
:103BF000E1F700C000008D2F0E94D21C83CF8C2FD4
:103C0000837009F041C001117DCF4D2F429546953B
:103C10004770440F440F0D2F0F7010E030E020E08C
:103C2000042E04C0000F111F221F331F0A94D2F765
:103C300060E070E0CB01D4FF0FC06FE070E080E087
:103C400090E004C0660F771F881F991F4A95D2F72E
:103C50006095709580959095C695C695C370602BBC
:103C6000712B822B932BC23049F058F4C13019F0DC
:103C70000E94802247CF0E946E2244CF0E9492224F
:103C800041CF0E946C223ECF8695002311F08C2FED
:103C90008170882309F436CF4D2F429546954770A1
:103CA000440F440F0D2F0F7010E030E020E0042E81
:103CB00004C0000F111F221F331F0A94D2F760E0C7
:103CC00070E0CB01D4FF0FC06FE070E080E090E0C7
:103CD00004C0660F771F881F991F4A95D2F7609519
:103CE000709580959095C695C695C370602B712B85
:103CF000822B932BC23049F058F4C13019F00E9446
:103D0000452300CF0E943323FDCE0E945723FACED5
:103D10000E94A822F7CECF70002329F08C2F0E949A
:103D2000CE228D2F39CF8D2F0E94141D8C2F0E94F3
:103D3000EF22E8CED23F89F160F4D03FC9F0D13F05
:103D400029F1002309F442C01111C4CE8C2F8F71C8
:103D500021C0D33F39F1D43FA1F7002369F1CF71DE
:103D60008C2F0E94CE2263E08C2F0E94CB24CACEDF
:103D7000002341F0153008F0C5CE8C2F8F710E94C2
:103D80001223C0CE163008F0BDCEF7CF8C2F8F7126
:103D9000002369F20E94CE22B5CE8C2F8F710023B2
:103DA000C9F3C5CF002329F08C2F8F710E94B9224F
:103DB000A9CE0E94B422A6CE81E00E94E024123057
:103DC00008F4A0CE82E00E94E0249CCE112359F09A
:103DD000D93309F010CF8FEF97EEE3E08150904098
:103DE000E040E1F706CF8C2F8F71A1CFDF91CF910B
:103DF0001F910F91FF90EF90DF90CF90BF900895AB
:103E00000F931F93CF93DF93EC01688179818A81AF
:103E10000E940D248C010E9469230E946B22B8012C
:103E2000CE01DF91CF911F910F910C941B1DCF9369
:103E3000DF93EC018B819C81892B29F0888199810A
:103E400089238F3F59F4DF91CF910895CE010E94CD
:103E5000001FCE01DF91CF910C949206CE010E94FB
:103E60002C078111F3CF0E944F24882361F38A81AC
:103E7000882349F382E0DF91CF910C94E0240E94E3
:103E800076240E9479240C9495240E943F240C945B
:103E90003F1F0E9466240C94451FE92FE295EF70A6
:103EA000E250EE3070F4F0E0E755FE4C0C948D2DAE
:103EB000803F19F020F4883E20F481E00895843F8B
:103EC000E1F380E00895883EC0F3813FD1F7F5CF5C
:103ED00093FB882780F908950E9403240C944D1FBA
:103EE000CF93DF9300D000D00F92CDB7DEB70F9005
:103EF0000F900F900F900F90DF91CF910895CF9377
:103F0000DF9300D000D000D0CDB7DEB726960FB635
:103F1000F894DEBF0FBECDBFDF91CF9108951F9300
:103F2000CF93DF93C0918F0316E0809190038C13A1
:103F300004C0DF91CF911F910895D0E01C9FF00144
:103F40001D9FF00D1124EF56FC4F4081518162817D
:103F50007381848195810E947F1F2196C770E5CF70
:103F60004091C1035091C2036091C3037091C40397
:103F70008091C5039091C6030C947F1F1F93CF932C
:103F8000DF938091C603807FA9F48091C3038823C7
:103F900089F080918F03C09190036091C10370916B
:103FA000C203A091C403B091C503D62FD72316E056
:103FB000C81304C0DF91CF911F91089590E010972E
:103FC00011F0DF3F19F401968770F2CF189F90012E
:103FD000199F300D1124F901EF56FC4F4181471311
:103FE000F2CF40814613EFCF42814111ECCF4381A4
:103FF00054814A1B5B0B483C510528F78091C6034E
:104000008F7080618093C603F901EA56FC4F80816E
:104010008F708061808381EC93E00E94171FDF9195
:10402000CF911F910C948F1FAF92BF92CF92DF92CE
:10403000EF92FF920F931F93CF93DF93CDB7DEB72D
:1040400061970FB6F894DEBF0FBECDBF8C0185E03F
:10405000F801DE011D9601900D928A95E1F7F801B5
:1040600040815181E28081ECC82E83E0D82E60919E
:10407000C4037091C5036115710509F461C1909184
:10408000C1032091C203892F82238F3F09F458C1B5
:10409000A380B480F090C303F501E61BF70BFF206B
:1040A00009F4FCC08091C603382F307FE83CF1054D
:1040B00008F0B2C0311179C0FE2C251323C094132F
:1040C00021C0E1101FC08F7080618093C6030E94E1
:1040D000B01FC6010E94171F8091C603F801858397
:1040E0008F2D61960FB6F894DEBF0FBECDBFDF9166
:1040F000CF911F910F91FF90EF90DF90CF90BF90E5
:10410000AF900895AB2829F0842F85238F3F09F0C5
:1041100033C180E0F82FF170DF2E80FF3CC080912A
:104120008F032091900336E0821315C04D875E8780
:104130008D859E850E940324292F22952F70223081
:10414000F0F0243018F59F70F1F0F8019581907F20
:10415000D1F4D12C1EC090E0389FF001399FF00DB2
:104160001124EF56FC4F6181651306C06081641312
:1041700003C062816E110FC001968770D5CF9F700A
:1041800011F0882331F3805E883018F3C8010E9453
:10419000171FFD2CA5CFEE2009F4A2CF8091C603F6
:1041A00081608093C603F12C9BCF251306C0941326
:1041B00004C0F801EE2009F48DC04D875E878D851F
:1041C0009E850E946C1F882319F1EE2009F18091D1
:1041D000C603803270F02091C1033091C20338874A
:1041E0002F831986BB86AA868C87CE0107960E94EC
:1041F000171F86E0F801A1ECB3E001900D928A95BB
:10420000E1F70E94BE1F0E94B01FFF24F39468CF05
:10421000C8010E94171FF9CF311113C07A2DB98A36
:10422000A88A6E2D89890E94701F81EC93E00E94FC
:10423000171F86E0F60111928A95E9F70E94B01FD8
:10424000B2CF25130FC094130DC0E1100BC0F801BD
:104250008583C8010E94171F86E0F60111928A9596
:10426000E9F73ECF4D875E878D859E850E946C1F46
:10427000882371F2EE2061F28091C603803208F447
:10428000B8CF2091C1033091C2033A8329831B82A6
:10429000BD82AC828E83CE010196A9CFE83CF105A8
:1042A00008F041C0FE2CEE2009F4B2CF25132AC03D
:1042B000941328C08091C60380FD1BC0982F907F67
:1042C000C1F0F8018583903F31F0982F907F905F87
:1042D0008F70892B8583C8010E94171F86E0F80123
:1042E000A1ECB3E001900D928A95E1F70E94B01F16
:1042F000F7CE86E0F801A1ECB3E001900D928A952B
:10430000E1F7EECE4D875E878D859E850E946C1FFE
:1043100081116FCF8091C60381608093C603C8016D
:104320000E94171FDDCE7A2DB98AA88A6E2D898941
:104330000E94701F86E0F60111928A95E9F7D6CFA8
:10434000EE2009F465CF4D875E878D859E850E949E
:104350006C1FF82E882309F45BCF86E0F801A1ECEE
:10436000B3E001900D928A95E1F781EC93E00E9411
:10437000A21C0E94BE1FBACF81E08E25CBCE88EC56
:1043800090E008951F93CF93DF93CDB7DEB72C97BE
:104390000FB6F894DEBF0FBECDBF4F835887698735
:1043A0007A878B879C87CE0107960E9414208823EA
:1043B00069F08A859B85892B39F04F815885842F38
:1043C00085238F3F09F071C016E05FC086E0FE01D3
:1043D0003796DE01119601900D928A95E1F78A8554
:1043E0009B85892B89F38F81988589238F3F61F382
:1043F0002091900330E0C901019687709927409180
:104400008F034817190671F40E94491F10929003F8
:1044100010928F0386E0E1ECF3E0DF011D928A95B4
:10442000E9F7D2CF96E0929FD001939FB00D11246F
:10443000AF56BC4FFE01319601900D929A95E1F76F
:10444000809390030E948F1FBFCF819FC0011124D2
:104450008F569C4F0E9414208823E9F0E0918F032F
:104460001E9FF0011124EF56FC4F40815181628163
:104470007381848195810E947F1F80918F0390E0DA
:1044800001968770992780938F0380918F03909175
:1044900090038913DACF2C960FB6F894DEBF0FBEC7
:1044A000CDBFDF91CF911F91089569857A858B8566
:1044B0009C850E947F1F88CF08950C945C220E94E7
:1044C0005D226093F3037093F4038093F50390935C
:1044D000F6030C943F1F08950C945F220F931F93D3
:1044E0000091F3031091F4032091F5033091F6034A
:1044F000602B712B822B932B1F910F910C945F22B9
:104500000F931F930091F3031091F4032091F5038F
:104510003091F60360237123822393231F910F911F
:104520000C945F220F931F930091F3031091F403F7
:104530002091F5033091F603602771278227932796
:104540001F910F910C945F220C945C220C94A42276
:104550000E94A6226093EF037093F0038093F1030F
:104560009093F2030C943F1F60E070E0CB010C9439
:10457000A8220F931F9341E050E060E070E08A01B1
:104580009B0104C0000F111F221F331F8A95D2F711
:10459000C901B8011F910F910C94A8220F931F938A
:1045A00041E050E060E070E004C0440F551F661F1A
:1045B000771F8A95D2F78091EF039091F003A09135
:1045C000F103B091F2038A019B01082B192B2A2BCE
:1045D0003B2BC901B8011F910F910C94A8220F9396
:1045E0001F9341E050E060E070E004C0440F551FAD
:1045F000661F771F8A95D2F7CB01BA016095709537
:10460000809590950091EF031091F0032091F103B4
:104610003091F20360237123822393231F910F9122
:104620000C94A8220F931F9341E050E060E070E0EB
:1046300004C0440F551F661F771F8A95D2F78091DB
:10464000EF039091F003A091F103B091F2038A017E
:104650009B01082719272A273B27C901B8011F9169
:104660000F910C94A8220F931F930091EF031091C8
:10467000F0032091F1033091F203602B712B822B18
:10468000932B1F910F910C94A8220F931F930091CD
:10469000EF031091F0032091F1033091F2036023B6
:1046A0007123822393231F910F910C94A8220F93BF
:1046B0001F930091EF031091F0032091F1033091CB
:1046C000F20360277127822793271F910F910C9483
:1046D000A8220895E92FEE0FE90FEE0F8E0F982F05
:1046E000977041E001C0440F9A95EAF78695869548
:1046F000869595E0899FF0011124E953FC4F30E045
:1047000020E070E05191DF011197CB01022E02C031
:10471000969587950A94E2F7817081958527842381
:1047200085278C932F5F3F4F2530310559F708952A
:10473000E92FEE0FE90FEE0F8E0F982F97708695E9
:104740008695869525E0829FF0011124E953FC4F60
:1047500050E040E080E0219130E0092E02C0369523
:1047600027950A94E2F721703327042E01C0220F07
:104770000A94EAF7822B4F5F5F4F4530510559F796
:104780000895BF92CF92DF92EF92FF920F931F9303
:10479000CF93DF938C01C090EF03D090F003E090B3
:1047A000F103F090F2038091F3039091F403A09150
:1047B000F503B091F603C82AD92AEA2AFB2ACFE1E9
:1047C000D0E0BC2ED701C6010C2E04C0B695A7952B
:1047D000979587950A94D2F780FD0EC0219788F7A8
:1047E000B12C8B2DDF91CF911F910F91FF90EF9006
:1047F000DF90CF90BF900895B8018C2F0E94820760
:10480000019761F3EECFCF93DF93EC010E94C123B8
:10481000BE01DF91CF910C9482071F93CF93DF935A
:10482000EB0190918E03992331F0CB01DF91CF9171
:104830001F910C940324882379F0CB010E94C1239B
:10484000182F682FCE010E946A23BE01812FDF91AD
:10485000CF911F910C948207CB010E949823182FAF
:10486000F4CF682F80916F01909170010C94E42532
:10487000682F80916F01909170010C94E6258091D2
:104880006F01909170010C94E8258091F703859554
:104890008595859508958091F70387700895909187
:1048A000F703977081E009F480E008958091030494
:1048B000089590910304892B8093030408958095B3
:1048C0009091030498239093030408951092030495
:1048D000089590910204892B809302040895809595
:1048E0009091020498239093020408951092020478
:1048F00008951092010408958091F8030895089591
:104900000C947F249091F803981721F08093F8037A
:104910000C94802408958091F803882329F0109244
:10492000F80380E00C9480240895E0916F01F091E9
:104930007001809103048083E0916F01F091700118
:10494000808190910204892B8083E0916F01F09126
:104950007001808190910104892B80839091F803EC
:10496000992381F0E0916F01F09170018081892B92
:10497000808380916F01909170010E949C2581112C
:104980000E948B2480916F01909170010C947D1B8B
:1049900008950C94C82498E0899F90011124622BFB
:1049A0006093F7030E94CE228091F7038595859549
:1049B00085950C94C9241092F70380E00C94C924C7
:1049C0009091F703809589238093F703282F277010
:1049D00071F4282F082E000C330B9217130639F0B0
:1049E0008595859585950E94EF220C94DB2408958A
:1049F00090E080E00E94F73021E08C3E9E4F09F06D
:104A000020E0822F089582E090E00C94E93083E06A
:104A100090E00C94E930CF9384E090E00E94E9307C
:104A2000C82F81E290E00E94E930982F8C2FCF911F
:104A30000895CF93C92F682F84E090E00E94FD3045
:104A40006C2F81E290E0CF910C94FD30AB01BC0162
:104A50008FE090E00C940F31AB01BC0183E190E05A
:104A60000C940F3160E070E0CB010C942C2560E0D9
:104A700070E0CB010E9426250C9432256CEE7EEF6F
:104A800090E080E00E941B3160E082E090E00E94B4
:104A9000FD3060E083E090E00E94FD301092F3036F
:104AA0001092F4031092F5031092F60360E084E094
:104AB00090E00E94FD3060E081E290E00E94FD30D5
:104AC00060E085E090E00E94FD3060E086E090E0EC
:104AD0000E94FD306FEF87E090E00E94FD3040E0E3
:104AE00050E0BA0188E090E00E940F3160E08DE074
:104AF00090E00E94FD3040E050E0BA0188E190E093
:104B00000E940F3160E087E190E00E94FD3040E0BC
:104B100050E0BA018CE190E00E940F3160E080E249
:104B200090E00E94FD300C9437250C943E25682FB0
:104B30008EE090E00C94FD309C012E5F3F4FAC0165
:104B4000485F5F4F80E02417350709F40895F901A5
:104B500091919F019923B9F38F5FF5CF662349F0B7
:104B6000FC01329608962191261729F0E817F907DB
:104B7000D1F780E0089581E008959C01FC01329610
:104B80009FEF80E04191461751F09F3F19F441118A
:104B900001C0982F8F5F8630A9F79F3F09F40895D1
:104BA000290F311D97FD3A95F90162830895FC01A3
:104BB000329608962191261303C0DF0111971C92AB
:104BC000E817F907B9F708950C94BD250C94D7257B
:104BD000029626E0FC0111922A95E9F708950895BE
:104BE00008950C94F0250E94F1258091FE068430F2
:104BF00049F11092050488E190E020E40FB6F894A2
:104C0000A895809360000FBE2093600080E00E9412
:104C100014070E94F12583B7817F846083BF83B727
:104C2000816083BF7894889583B78E7F83BF0FB6EA
:104C3000F894A8958091600088618093600010923C
:104C400060000FBE08950895CF930E94EF250E9443
:104C5000C4090E942326C0E08C2F0E9435098111CF
:104C600005C0CF5FCA30C1F7CF91089581E0FCCF76
:104C700008950C9438260E94491F0E94711B0E94BF
:104C800014070C9439261F921FB61F9211248F937C
:104C90009F93AF93BF9380910504811113C08091BE
:104CA000F4069091F506A091F606B091F7064196AC
:104CB000A11DB11D8093F4069093F506A093F6060E
:104CC000B093F706BF91AF919F918F911F901FBE38
:104CD0001F90189582E084BD93E095BD9AEF97BD33
:104CE00080936E0008952FB7F8948091F406909108
:104CF000F506A091F606B091F7062FBF08952FB7DD
:104D0000F8946091F4067091F5068091F606909102
:104D1000F7062FBF08959C014FB7F8948091F406D1
:104D20009091F506A091F606B091F7064FBF821B51
:104D3000930B089578941F921FB61F9211248F939E
:104D40009F93AF93BF938091F4069091F506A09145
:104D5000F606B091F7060196A11DB11D8093F406E9
:104D60009093F506A093F606B093F706BF91AF9126
:104D70009F918F911F901FBE1F90189587E797E70F
:104D8000909301088093000888E19AE00FB6F894A8
:104D9000A895809360000FBE90936000FFCF0E94A3
:104DA000F824811102C00E9495250E94032580935A
:104DB00004040E940B259093F9068093F8060E9444
:104DC0000725682F70E090E080E00E946C226091DF
:104DD000EF037091F0038091F1039091F2030C9432
:104DE000A62280910E04089508950895CF93DF932D
:104DF000EC0181E08093E9008FEF9091E800815011
:104E000095FD06C095ED9A95F1F700008111F5CF5B
:104E10008091E80085FF14C050E040E068E070E059
:104E2000CE010E9498288091E8008E778093E80058
:104E300088E0FE01A6E0B4E001900D928A95E1F7CA
:104E4000DF91CF91089508958091FD06811109C0E9
:104E50000E94282A0E94852A8091E2008460809323
:104E6000E20008951092FD060895089508950C94A7
:104E70003B2642E061EC81E00C94A429809100077C
:104E8000833009F45FC030F48130C1F1823009F41D
:104E90009BC008958A3009F487C08B3009F46DC037
:104EA000893009F04EC08091FF06813209F049C077
:104EB0008091030790910407892B09F042C08091EB
:104EC000E800877F8093E8008091E80082FF35C08A
:104ED0009091F3008091F200029729F48091F10003
:104EE0008B7F813021F48091F10080930E048091BA
:104EF000E8008B778093E8000C94D8298091FF0616
:104F0000813AF9F48091E800877F8093E8008091EE
:104F1000030790910407892B61F468E086E094E030
:104F200070E00E94E7288091E8008B778093E8008A
:104F3000089560E090E080E0F3CF8091FE0681115B
:104F4000C3CF08958091FF06813AD9F78091030776
:104F500090910407892BA9F78091E800877F8093BF
:104F6000E8008091E80080FFFCCF80917B01809376
:104F7000F1008091E8008E77BDCF8091FF068132ED
:104F800001F78091030790910407892BD1F6809156
:104F9000E800877F8093E8000E94D829809101076C
:104FA00080937B010C94491F8091FF06813249F662
:104FB0008091E800877F8093E8000E94D829809143
:104FC000020780930F0408958091FF06813A09F04B
:104FD000B8CF8091E800877F8093E8008091E80057
:104FE00080FFFCCF80910F04C2CF84B7877F84BF3E
:104FF0000FB6F894A8958091600088618093600056
:10500000109260000FBE80E890E00FB6F894809395
:105010006100909361000FBE0E94C21B0E94282A6B
:105020000E94852A8091E20084608093E200789457
:105030000E940E2D0E94CA1B81E791E00E946C1B0A
:105040008091FE06853019F00E94D71BF9CF0E948F
:10505000F3258091FC06882399F30E942426882357
:1050600079F30E948228ECCF0C943628292F33271D
:1050700023303105C9F058F421303105C9F122300F
:105080003105D9F190E080E030E020E020C021320D
:10509000310539F122323105A9F780E490E02AE99F
:1050A0003AE0672B79F713C099278130910599F081
:1050B000009741F08230910589F0039719F7EAE0F3
:1050C000FAE002C0E2E6FAE0849190E09F01FA0182
:1050D000318320830895EEE4FAE0F6CFE0E1FAE0D0
:1050E000F3CF89E090E028E73AE0672B59F6EFCF5D
:1050F00082E190E028E83AE0EACF82E290E026E61A
:105100003AE0E5CF80E189BD82E189BD09B400FEC6
:10511000FDCF8091D8008F7D8093D8008091E000F2
:1051200082608093E0008091E00081FDFCCF0895D3
:10513000AF92BF92CF92DF92FF920F931F93CF93C4
:10514000DF936C01EB018A010E94F729F82E81118F
:1051500023C00115110539F0F80180819181C81B28
:10516000D90BC80ED91EB12CA12C2097A9F0809183
:10517000E80085FD22C08091E8008E778093E800EA
:1051800001151105A1F0F80180819181A80EB91EC9
:10519000B182A08285E0F82E8F2DDF91CF911F91F3
:1051A0000F91FF90DF90CF90BF90AF9008950E9435
:1051B000F7298823D1F2F82EEFCFF60181916F0104
:1051C0008093F1002197FFEFAF1ABF0ACECFFC0109
:1051D000809105079091060786179707A0F0611543
:1051E000710529F49091E8009E779093E80090E093
:1051F0006115710551F4911108C08091E80082FF9A
:1052000034C080E00895BC01F2CF8091FE0688236F
:10521000C1F18530C1F18091E80083FD30C08091FB
:10522000E80082FDEACF8091E80080FFE1CF809125
:10523000F3002091F200382F6115710519F0283024
:10524000310558F091E02830310509F090E02091C7
:10525000E8002E772093E800CBCF81918093F10076
:10526000615071092F5F3F4FE7CF8091FE06882381
:1052700041F0853041F08091E80083FFBECF81E0AE
:10528000089582E0089583E00895FC018091050768
:105290009091060786179707A0F06115710529F40C
:1052A0008091E8008E778093E80090E061157105A9
:1052B00051F4911108C08091E80082FF35C080E070
:1052C0000895BC01F2CF8091FE068823C9F1853094
:1052D000C9F18091E80083FD31C08091E80082FD32
:1052E000EACF8091E80080FFE1CF8091F300209128
:1052F000F200382F6115710519F02830310558F08A
:1053000091E02830310509F090E08091E8008E7737
:105310008093E800CBCF84918093F1003196615067
:1053200071092F5F3F4FE6CF8091FE06882341F041
:10533000853041F08091E80083FFBDCF81E0089582
:1053400082E0089583E00895982F973028F08F70B9
:105350008093E90081E008959093E900242F762F4F
:1053600050E0981731F07091EC002091ED005091D1
:10537000F00021FD02C09F5FE8CF3091EB003E7F3F
:105380003093EB003091ED003D7F3093ED00309194
:10539000EB0031603093EB007093EC002093ED0054
:1053A0005093F0002091EE0027FDE5CF80E00895B6
:1053B0008091FF0687FF13C08091E80082FF06C03E
:1053C0008091E8008B778093E80004C08091FE060E
:1053D0008111F2CF08958091FE068823D9F3809140
:1053E000E80080FFF8CF8091E8008E77ECCF209125
:1053F000E4003091E50095E6A9012091EC00822FB0
:10540000817020FF06C08091E80080FF06C080E028
:1054100008952091E80022FD1AC08091FE0688239D
:1054200089F0853089F08091EB0085FD0FC02091D7
:10543000E4003091E50042175307F9F29150E1F68C
:1054400084E0089582E0089583E0089581E008955E
:105450000E94962A0E949E2AE0EEF0E08081816000
:105460008083E8EDF0E080818F77808319BCA7ED21
:10547000B0E08C918E7F8C9380818F7E80831092A0
:10548000FD0608950F931F93CF93DF930E94962AF2
:105490000E949E2AC8EDD0E088818F77888388811A
:1054A0008068888388818F7D888319BC1092FE066E
:1054B0001092FA061092FC061092FB0600EE10E025
:1054C000F80180818B7F808388818160888342E0BE
:1054D00060E080E00E94A429E1EEF0E080818E7F10
:1054E0008083E2EEF0E0808181608083808188604B
:1054F0008083F80180818E7F8083888180618883AA
:10550000DF91CF911F910F910895E8EDF0E0808138
:105510008F7E8083E7EDF0E080818160808384E08E
:1055200082BF81E08093FD060C94422AE8EDF0E012
:1055300080818E7F80831092E20008951092DA00BD
:105540001092E10008951F920F920FB60F9211244E
:105550002F933F934F935F936F937F938F939F937B
:10556000AF93BF93EF93FF938091E10082FF0BC055
:105570008091E20082FF07C08091E1008B7F8093E1
:10558000E1000E940D2D8091DA0080FF19C080910A
:10559000D80080FF15C08091DA008E7F8093DA00FA
:1055A0008091D90080FF96C080E189BD82E189BDEC
:1055B00009B400FEFDCF81E08093FE060E942427FF
:1055C0008091E10080FF19C08091E20080FF15C04A
:1055D0008091E2008E7F8093E2008091E200806102
:1055E0008093E2008091D80080628093D80019BC3B
:1055F00085E08093FE060E9436278091E10084FFBB
:105600002BC08091E20084FF27C080E189BD82E148
:1056100089BD89B5982F917080FFFBCF8091D8000C
:105620008F7D8093D8008091E1008F7E8093E10090
:105630008091E2008F7E8093E2008091E2008160A1
:105640008093E2008091FA06882309F449C084E03F
:105650008093FE060E9437278091E10083FF29C0D6
:105660008091E20083FF25C08091E100877F8093D5
:10567000E10082E08093FE061092FA068091E1003C
:105680008E7F8093E1008091E2008E7F8093E20024
:105690008091E20080618093E20042E060E080E07F
:1056A0000E94A4298091F00088608093F0000E94FD
:1056B0003527FF91EF91BF91AF919F918F917F918E
:1056C0006F915F914F913F912F910F900FBE0F906F
:1056D0001F90189519BC1092FE060E94322770CFB9
:1056E0008091E30087FD93E09093FE06B3CF1F9275
:1056F0000F920FB60F9211242F933F934F935F9306
:105700006F937F938F939F93AF93BF93CF93DF93C9
:10571000EF93FF93D091E900DF708091EC00C82FE8
:10572000C17080FDC0E81092E9008091F000877F91
:105730008093F00078940E94BB2B1092E900809136
:10574000F00088608093F000CD2BCF70C093E9000B
:10575000FF91EF91DF91CF91BF91AF919F918F9189
:105760007F916F915F914F913F912F910F900FBE5D
:105770000F901F9018951F93CF93DF93CDB7DEB78F
:10578000AA970FB6F894DEBF0FBECDBF8FEF96E09D
:105790002091F100FC012193CF01F7E087309F07B2
:1057A000B9F70E943E278091E80083FF1EC18091D7
:1057B000FF06909100079A3008F017C1E92FF0E03A
:1057C000E954FE4C0C948D2D803899F0823809F004
:1057D0000CC1809103078F70873008F006C1809359
:1057E000E9008091EB0085FB882780F91092E900A1
:1057F00006C08091FB069091FC0691118260909109
:10580000E800977F9093E8008093F1001092F100F8
:105810008091E8008E77E5C0882309F4D3C08230F8
:1058200009F0E3C0809101078111D6C08091030780
:105830008F702FEF280F263008F0D7C08093E90033
:105840002091EB0020FFC8C0933031F48091EB0031
:1058500080628093EB00C0C09091EB0090619093C8
:10586000EB0021E030E001C0220F8A95EAF7209397
:10587000EA001092EA008091EB008860EACF811183
:10588000B4C0109101071F778091E3008078812BCD
:105890008093E3008091E800877F8093E8000E9476
:1058A000D8298091E80080FFFCCF8091E3008068D8
:1058B0008093E30082E0111183E08093FE0695C09F
:1058C0008058823008F091C08091010790910207C2
:1058D0008C3D23E09207A1F583E08A838AE28983E5
:1058E0004FB7F894DE01139620E03EE051E2E32F3B
:1058F000F0E050935700E49120FF03C0E295EF7071
:105900003F5FEF708E2F90E0EA30C0F0C7968D9326
:105910009D932F5F243159F74FBF8091E800877F17
:105920008093E8006AE270E0CE0101960E94E728C9
:105930008091E8008B778093E80057C0C096E7CF4E
:105940006091030770910407AE014F5F5F4F0E94A3
:105950003428BC01892B09F448C09091E800977F56
:105960009093E80089819A810E944529E1CF80388F
:10597000E1F58091E800877F8093E8008091FA0646
:105980008093F10045CF811130C090910107923092
:1059900060F58091E800877F8093E8009093FA0695
:1059A0000E94D8298091FA06882311F084E005C06E
:1059B0008091E30087FDFACF81E08093FE060E948C
:1059C000392713C080910107813079F481E0933049
:1059D00009F080E08093FC061092E9008091E800D5
:1059E000877F8093E8000E94D8298091E80083FF98
:1059F0000AC08091E800877F8093E8008091EB00E7
:105A000080628093EB00AA960FB6F894DEBF0FBEBB
:105A1000CDBFDF91CF911F9108950895CF938091CD
:105A2000FE068823A1F0C091E900CF709091EC00B0
:105A3000892F817090FD80E8C82B1092E900809139
:105A4000E80083FD0E94BB2BCF70C093E900CF918B
:105A50000895991B79E004C0991F961708F0961BCA
:105A6000881F7A95C9F78095089587FB082E06262A
:105A700087FD819567FD61950E94292D0EF4919512
:105A800007FC81950895AA1BBB1B51E107C0AA1F03
:105A9000BB1FA617B70710F0A61BB70B881F991FCF
:105AA0005A95A9F780959095BC01CD01089597FB73
:105AB000072E16F4009407D077FD09D00E94432DDD
:105AC00007FC05D03EF4909581959F4F0895709501
:105AD00061957F4F0895A1E21A2EAA1BBB1BFD0101
