:100000000C9432050C9479050C9479050C946D30A0
:100010000C9479050C9479050C9479050C94790568
:100020000C9479050C9479050C94AB190C94671910
:100030000C94A72E0C9479050C9479050C947905F1
:100040000C9479050C9479050C9479050C94790538
:100050000C9479050C9495150C9479050C947905FC
:100060000C9479050C9479050C9479050C94790518
:100070000C9479050C9479050C9479050C94790508
:100080000C9479050C9479050C9479050C947905F8
:100090000C9479050C9479050C9479050C947905E8
:1000A0000C9479050C9479050C94790500010101F3
:1000B0000101010101010202020202020202020325
:1000C00003030303030303040404040404040505F5
:1000D00005050506060606060707070707080808B8
:1000E00008090909090A0A0A0B0B0B0C0C0C0D0D67
:1000F0000D0E0E0E0F0F0F101011111112121313FF
:100100001414151516161717181819191A1A1B1B77
:100110001C1D1D1E1E1F20202122222324242526D3
:1001200026272829292A2B2C2D2D2E2F303132320B
:10013000333435363738393A3B3C3D3E3F40414217
:10014000434445464748494A4C4D4E4F50515354FD
:10015000555658595A5B5D5E5F61626465666869B1
:100160006B6C6D6F7072737577787A7B7D7E808231
:10017000838587888A8C8E8F91939596989A9C9E7A
:10018000A0A2A3A5A7A9ABADAFB1B3B5B7BABCBE8A
:10019000C0C2C4C6C9CBCDCFD1D4D6D8DBDDDFE257
:1001A000E4E7E9EBEEF0F3F5F8FAFDFF00AF290024
:1001B0001E001F002000210022002B0014001A0046
:1001C000080015001700E0000400160007000900F1
:1001D0000A00E1001D001B00060019000500E000F8
:1001E0000000E200295D2C0000002300240025000F
:1001F000260027002D001C0018000C001200130020
:100200002F000B000D000E000F0033003400110012
:1002100010003600370038008700000028002A5DF3
:10022000E600E700E40035003A003B003C003D00FA
:100230003E002B001E001F00200021002200E000D5
:10024000040016004C0009000A00E1001D001B001C
:10025000060019000500E0000000E200295D2C0006
:1002600000003F0040004100420043004C002300DA
:10027000240025002600270045000B000D000E007D
:100280000F002D0034002E00890036003700520088
:10029000310000002A002A5D500051004F00880004
:1002A0001E001F002000210022002B001E021F0242
:1002B000200221022202E0000400160007000900CB
:1002C0000A00E1001D001B00060019000500E00007
:1002D0000000E000295D2C00000023002400250020
:1002E000260027002A0023022402250226022F02CC
:1002F0002F000B000D003002310233003400890260
:1003000010003000310038028702000028002A5D0A
:10031000E600E700E400005C0000000000000000D0
:10032000000000000000000000000000C65C0000AB
:100330000000CC5CC65C0000C35C00000000000054
:10034000B20000000000000000000000295D000075
:10035000000000000000000000000000C25C00007F
:1003600000000000000000000000C45C0000C55C4C
:10037000CB5C000000000000000000000000C95C31
:100380000000000000002A5DC85CCA5CC75C00DA9F
:100390000281FFD9F1DB20A4A62EAF00A0C000A1EE
:1003A000C800AED580A81FD300408D14200000AE39
:1003B00005010902A10185020901A1000509190130
:1003C0002905150025019505750181029501750323
:1003D00081010501093009311581257F95027508D4
:1003E000810609381581257F950175088106050C60
:1003F0000A38021581257F950175088106C0C00560
:10040000010906A1018505050719E029E715002561
:10041000019508750181020507190029EF150025CE
:100420000195F075018102050819012905950575E9
:10043000019102950175039101C005010906A10111
:10044000050719E029E715002501950875018102C6
:100450009501750881010507190029FF150026FF80
:10046000009506750881000508190129059505758F
:10047000019102950175039101C009023B0002013F
:1004800000A0FA0904000001030101000921110183
:1004900000012240000705810308000A0904010049
:1004A0000103000000092111010001228A00070553
:1004B000820320000A12011001000000081E01A39F
:1004C000C70001010203010403300000003C034F98
:1004D0000077006E006C0079002000280073007027
:1004E000006C00690074002000670061006D006905
:1004F000006E00670020006B006500790062006FED
:1005000000610072006400290000001203440069C9
:1005100000770061006D006F0074006F0000000440
:100520000309040000000000003E5B4F5B3E003EFC
:100530006B4F6B3E001C3E7C3E1C00183C7E3C1802
:10054000001C577D571C001C5E7F5E1C0000183C81
:10055000180000FFE7C3E7FF00001824180000FFA1
:10056000E7DBE7FF0030483A060E00262979292606
:1005700000407F05050700407F05253F005A3CE706
:100580003C5A007F3E1C1C0800081C1C3E7F0014C7
:10059000227F2214005F5F005F5F0006097F017FFA
:1005A00000006689956A0060606060600094A2FF48
:1005B000A2940008047E04080010207E2010000889
:1005C000082A1C0800081C2A0808001E1010101019
:1005D000000C1E0C1E0C0030383E383000060E3E5B
:1005E0000E060000000000000000005F0000000098
:1005F0000700070000147F147F1400242A7F2A12AA
:100600000023130864620036495620500000080792
:10061000030000001C224100000041221C00002AAF
:100620001C7F1C2A0008083E08080000807030006B
:10063000000808080808000000606000002010089A
:100640000402003E5149453E0000427F40000072D6
:1006500049494946002141494D33001814127F1081
:10066000002745454539003C4A494931004121119F
:10067000090700364949493600464949291E000004
:100680000014000000004034000000000814224163
:10069000001414141414000041221408000201591B
:1006A0000906003E415D594E007C1211127C007F0C
:1006B00049494936003E41414122007F4141413E86
:1006C000007F49494941007F09090901003E414134
:1006D0005173007F0808087F0000417F410000201F
:1006E00040413F01007F08142241007F40404040CC
:1006F000007F021C027F007F0408107F003E414102
:10070000413E007F09090906003E4151215E007FFC
:10071000091929460026494949320003017F01038E
:10072000003F4040403F001F2040201F003F403816
:10073000403F00631408146300030478040300615D
:1007400059494D4300007F414141000204081020F7
:1007500000004141417F000402010204004040408A
:100760004040000003070800002054547840007FF8
:100770002844443800384444442800384444287FFE
:100780000038545454180000087E0902001824242C
:100790001C78007F080404780000447D400000209D
:1007A00040403D00007F102844000000417F400091
:1007B000007C04780478007C080404780038444401
:1007C0004438007C1824241800182424187C007C49
:1007D000080404080048545454240004043F4424EA
:1007E000003C4040207C001C2040201C003C40304D
:1007F000403C004428102844004C9090907C0044D9
:1008000064544C44000008364100000000770000AA
:10081000000041360800000201020402003C2623C9
:10082000263C0000C040404040404078080808088E
:10083000080878C00000C040780808080808784018
:100840004040404040404040C0000000000080E088
:10085000F0381C0C0271FD1C0E060CF000000000AC
:100860000000000000000000000000000000000088
:1008700000000000000000000000E0F83E9F7E0045
:100880000000000000000000000000FC3C181818E8
:100890001C1C0C0C0000F0F83C0C04040CF8F000DC
:1008A00000E0F0F0F0E0ECEEF7F37020007C7C7CF0
:1008B0007E007E7E7E7F7F7F000080C0E07E5B4F7B
:1008C0005BFEC00000C000DCD7DEDEDED7DC00C08F
:1008D0000000000000000000000000000000000018
:1008E00000000000FF000000000000000000000009
:1008F00000000001061861861860800000000000FA
:100900000000000000000000FF000000FCFFFF07E7
:10091000010000000000000080F01C0F00E0F8184B
:100920000080E0F8F80000987C408040F8F830182B
:100930001C1CFCF800000000F0EF330806E1FC3E50
:100940000480C0FC3E00008080909E990808081832
:10095000F0F0E0000080C167361C081C36E7830019
:10096000000F1F3F7F7F7F7F7F3F1E0C001F1F1FD9
:100970003F003F3F3F7F7F7F00307B7F78302020EC
:1009800030787F3B0003000F7F0F0F0F7F0F0003B6
:100990000000000000000000000000000000000057
:1009A000000000003F2020202020202020202020A8
:1009B0002020202020100827302827202020202039
:1009C00020202020202020203F00000000070F0FC3
:1009D0001C081818180804020100000000070F0E78
:1009E0000201000F070602010000000E0F030000C5
:1009F00000060F090804020101070E0402619B8B27
:100A0000C5FE3F0404020100000E1F19101010184B
:100A10000F0F0300000F1F18101010181E0F0700F3
:100A200000000000000000000000000000000000C6
:100A300000000000000000000000000000000000B6
:100A400000000000000000000000000000000000A6
:100A50000000000000000000000000000000000096
:100A60000000000011241FBECFEFDAE0DEBFCDBFD3
:100A700004B603FE27C080915A0790915B07A091AE
:100A80005C07B0915D078730904BA740B04BD1F425
:100A900010925A0710925B0710925C0710925D0744
:100AA00014BE84B7877F84BF0FB6F894A895809151
:100AB0006000886180936000109260000FBEE0E0EB
:100AC000F8E3099527E0A8EBB2E001C01D92AA3532
:100AD000B207E1F712E0A0E0B1E0E4E4FCE602C016
:100AE00005900D92A83BB107D9F70E94162A0C94E5
:100AF000C1350C940000E8EDF0E080818E7F8083AA
:100B00001092E2001092DA001092E100A0EEB0E044
:100B10008C9181608C9380818F77808319BCA7ED45
:100B2000B0E08C918E7F8C9380818F7E8083109239
:100B3000E70408952091E4003091E50095E6A901CD
:100B40002091EC00822F817020FF06C08091E80088
:100B500080FF06C080E008952091E80022FD1AC0C1
:100B600080910C05882389F0853089F08091EB0015
:100B700085FD0FC02091E4003091E5004217530736
:100B8000F9F29150E1F684E0089582E0089583E05F
:100B9000089581E00895EF92FF920F931F93CF93F2
:100BA0007C018B010E949A05C82F811117C080918A
:100BB000E80085FD0BC08091E8008E778093E80007
:100BC0000E949A05882399F3C82F08C0F7018191E4
:100BD0007F018093F1000150110949F78C2FCF91CB
:100BE0001F910F91FF90EF90089580910E0587FF60
:100BF00013C08091E80082FF06C08091E8008B77E7
:100C00008093E80004C080910C058111F2CF089513
:100C100080910C058823D9F38091E80080FFF8CFFC
:100C20008091E8008E77ECCF982F9093E900242FE5
:100C3000762F50E0891731F07091EC002091ED0093
:100C40005091F00021FD07C09F5F973071F78093AE
:100C5000E90081E008953091EB003E7F3093EB0096
:100C60003091ED003D7F3093ED003091EB0031602D
:100C70003093EB007093EC002093ED005093F00064
:100C80002091EE0027FDE0CF80E00895CF92DF9223
:100C9000EF92FF920F931F93CF93DF93C8EDD0E0B5
:100CA00088818F7E8883E7EDF0E08081816080839A
:100CB00084E082BF81E08093E70488818E7F88830F
:100CC00002EE10E0F80110821092DA0081EEC82ED8
:100CD000D12CF601108288818F7788838881806883
:100CE000888388818F7D888319BC10920C051092AF
:100CF0000D0510920B0510920A0590EEE92EF12CCD
:100D0000F70180818B7F808388818160888342E0C6
:100D100060E080E00E941406F60180818E7F80836F
:100D2000F801808181608083808188608083F70101
:100D300080818E7F8083888180618883DF91CF91DD
:100D40001F910F91FF90EF90DF90CF900895FC01DD
:100D5000809114059091150586179707A0F06115ED
:100D6000710529F49091E8009E779093E80090E057
:100D70006115710551F4911108C08091E80082FF5E
:100D800034C080E00895BC01F2CF80910C05882327
:100D9000C1F18530C1F18091E80083FD30C08091C0
:100DA000E80082FDEACF8091E80080FFE1CF8091EA
:100DB000F3002091F200382F6115710519F02830E9
:100DC000310558F091E02830310509F090E020918C
:100DD000E8002E772093E800CBCF81918093F1003B
:100DE000615071092F5F3F4FE7CF80910C05882339
:100DF00041F0853041F08091E80083FFBECF81E073
:100E0000089582E0089583E00895089508958091FB
:100E1000E90408959091D704803F59F48091D80453
:100E200087FF0DC01092D80491110BC01092D2040C
:100E300008C0813F81F48091D80418169CF399234F
:100E400081F08091D9049091DA04892B09F064C073
:100E50001092CF040895823F49F497FFF0CF10928B
:100E6000D7048091D8048111ECCFE0CF833F19F4EF
:100E70001916ACF3E4CF2091D904893F29F4121656
:100E8000F4F61092D904DBCF8A3F19F427FFD7CFAD
:100E9000F8CF2091DA048B3F29F427FFD0CF1092AE
:100EA000DA04CDCF8C3F19F41216CCF3C8CF843FAF
:100EB00031F48091D6048E7F8093D604C0CF853FD5
:100EC00021F48091D6048D7FF7CF863F21F4809165
:100ED000D6048B7FF1CF873F21F48091D604877FA2
:100EE000EBCF883F21F48091D6048F7EE5CF8D3FF4
:100EF00031F480914A048E7F80934A04A0CF8E3FC4
:100F000021F480914A048D7FF7CF8F3F09F097CF6E
:100F100080914A048B7FF0CF089580914A0480FD30
:100F200016C081FD16C082FD16C08091CF048823B3
:100F3000A1F0883280F428E0829FC001112468E289
:100F400070E00E949A31862F672B39F0089582E075
:100F5000089584E0089588E0089581E008958091DF
:100F60004A0480FD14C081FD14C082FD16C080912A
:100F7000D204882381F0843180F422E3829FC0016F
:100F8000112464E170E00E949A31862F08958CE06C
:100F9000089589E1089585E0089582E30895803FEA
:100FA00031F40E94AF0781958093D8040895813F62
:100FB00019F40E94AF07F8CF823F31F40E94AF07C7
:100FC00081958093D7040895833F19F40E94AF0759
:100FD000F8CF893F29F40E948D078093D9040895A2
:100FE0008A3F21F40E948D078195F7CF8B3F31F422
:100FF0000E948D0781958093DA0408958C3F19F43F
:101000000E948D07F8CF843F31F48091D60481602F
:101010008093D6040895853F21F48091D6048260A0
:10102000F7CF863F21F48091D6048460F1CF873FCB
:1010300021F48091D6048860EBCF883F21F4809121
:10104000D6048061E5CF8D3F31F480914A04816000
:1010500080934A0408958E3F21F480914A0482606F
:10106000F7CF8F3FB9F780914A048460F1CF9C019C
:101070004FB7F8948091460490914704A09148049A
:10108000B09149044FBF821B930B08952FB7F8947A
:1010900060914604709147048091480490914904FE
:1010A0002FBF0895209160012223C9F02091800470
:1010B00027FF15C0E62FE695E695E695EE31D8F4C4
:1010C000E80FF92FF11D677021E030E001C0220F19
:1010D0006A95EAF720958281282322830895FC01EE
:1010E000329608962191621303C0DF0111971C927A
:1010F000E817F907B9F70895209160012223C1F09C
:101100002091800427FF14C0E62FE695E695E6952A
:10111000EE31F8F4E80FF92FF11D677021E030E0AF
:1011200001C0220F6A95EAF78281822B828308959B
:10113000FC0132962FEF30E04191641751F02F3FC0
:1011400019F4411101C0232F3F5F3630A9F72F3F1B
:1011500009F40895820F911D27FD9A95FC01628381
:101160000895809141048111109241040895809165
:10117000400490913F04892B90913E04892B8093E9
:10118000B802909141049923A1F0892B8093B80271
:1011900080916001882341F18091800487FF24C001
:1011A0008EE1EAEBF2E090E0815000F591110E94AF
:1011B000B108E0918204F09183043097E1F08091CE
:1011C0006001882359F08091800487FF07C08091D7
:1011D000B8028093B90285E08093B8020280F3815F
:1011E000E02D88EB92E0099486E0DBCF2191222369
:1011F000D9F29F5FD9CF0895E92FEE0FE90FEE0FD7
:101200008E0F982F977086958695869525E0829FFC
:10121000F0011124EB5EFB4F50E040E080E02191B3
:1012200030E0092E02C0369527950A94E2F7217026
:101230003327042E01C0220F0A94EAF7822B4F5F56
:101240005F4F4530510559F70895E92FEE0FE90F2B
:10125000EE0F8E0F982F977041E001C0440F9A95C2
:10126000EAF786958695869595E0899FF001112489
:10127000EB5EFB4F30E020E070E05191DF01119711
:10128000CB01022E02C0969587950A94E2F78170F1
:1012900081958527842385278C932F5F3F4F2530A9
:1012A000310559F70895809114049091E303981340
:1012B00001C008958F5F8770FACF882341F0809531
:1012C000909140048923809340040C94B7080895BA
:1012D000882339F090914004982B909340040C940B
:1012E000B7080895E0918204F0918304309721F0CB
:1012F0000190F081E02D099480E00895FA018111B8
:1013000001C0FB010994E8EEF2E08183608342832F
:10131000339693E0E339F907C1F70895FC01EE0F26
:10132000FF1FE80FF91FE851FD4F618340832283BF
:1013300008950C9483090C948E09EF92FF920F93F9
:101340009701201B31092F3F310519F010F02FEFC5
:1013500030E02095382F320F08F43FEF832F0F91A4
:10136000FF90EF900895EF92FF920F939701201B4B
:1013700031092F3F310519F010F02FEF30E0322FF7
:101380003095482F430F08F44FEF842F620F0F91D1
:10139000FF90EF900895EF92FF920F93972F0934EB
:1013A00038F4B701601B71096F3F710519F010F037
:1013B0006FEF70E0485F5F4F4131510540F0A90188
:1013C000485F5F4F4131510510F06FEF70E060955D
:1013D000482F460F08F44FEF842F37FF02C02D5FD0
:1013E0003F4F359527953595279560911B05620FE1
:1013F000792F0F91FF90EF900895EF92FF920F9346
:101400001F930E0D1F2D111DF90137FF03C0F1951C
:10141000E195F10924E0EE0FFF1F2A95E1F7EF3F78
:10142000F10519F014F0EFEFF0E09A0157FF03C057
:1014300031952195310994E0220F331F9A95E1F7F8
:101440002E173F070CF4F901E00FF11FEF3FF105F4
:1014500019F010F0EFEFF0E0E095282F3E2F230F6A
:1014600008F42FEF822F1F910F91FF90EF900895B6
:10147000EF92FF920F93970195E0099F200D311D88
:1014800011242F3F310519F010F02FEF30E0209597
:10149000382F320F08F43FEF832F0F91FF90EF901A
:1014A000089522E8241B08F420E0620F0895409577
:1014B000282F429F412D1124842F08950F931F93AD
:1014C00010E0F801EE0FFF1FE45FFD4F9081905791
:1014D00097FD9195000F111FF801E053FE4F05ADE8
:1014E0000052110B2003F001219FF00D112408E39D
:1014F00010E0091B110997FD139540039001419FCE
:10150000300D1124E20FF31F9F01220F331F2E0F06
:101510003F1F37FF02C021583F4F220F232F221FAA
:10152000330B620F1F910F9108950F931F93522F4A
:1015300010E0F801EE0FFF1FE053FE4FA5ADA052E3
:10154000BB0B9D015203F001539FF00D1124000FBE
:10155000111FD801A45FBD4F0C910057110B400320
:101560009001419F300D11242E0F3F1F37FF02C005
:10157000215C3F4F96E0359527959A95E1F7620FEC
:101580001F910F9108950F931F93522F10E0F801B0
:10159000EE0FFF1FE053FE4FA5ADA052BB0B9D0108
:1015A0005203F001539FF00D1124000F111FD801B9
:1015B000A45FBD4F0C910057110B40039001419F58
:1015C000300D11242E0F3F1F37FF02C021583F4F0F
:1015D000220F232F221F330B620F1F910F910895AB
:1015E000EF920F93972F23E0029FB001112475957E
:1015F00067956E0D792F0F91EF900895322F50E07F
:10160000FA01EE0FFF1FE053FE4F95AD905297FD8C
:101610009195440F551FFA01E45FFD4F2081231B74
:10162000330B290F311D97FD3A95620F0895E42F72
:10163000F0E0EE0FFF1FE053FE4F65AD621B089513
:10164000E42FF0E0EE0FFF1FE45FFD4F6081621BAF
:101650000895622F0895E42FF0E0EE0FFF1FE45F7E
:10166000FD4F408134EE439F412D1124E82FF0E0DF
:1016700050E0445E5F4FDA01A21BB1099D01B7FF44
:1016800003C031952195310993E0220F331F9A95BC
:10169000E1F7AF01421B530B9A0157FD20E0582F91
:1016A000259F212D1124822F0895E42FF0E0EE0FC5
:1016B000FF1FE45FFD4F408134EE439F412D112415
:1016C000E72FF0E050E0445E5F4FDA01A21BB10962
:1016D0009D01B7FF03C031952195310993E0220F99
:1016E000331F9A95E1F7AF01421B530B9A0157FD47
:1016F00020E0279F212D1124722F0895FC019B01CA
:10170000009729F480E077FF2BC080E80895AC01B2
:1017100097FF04C044275527481B590BB901640F94
:10172000751F37FD10C0241B350BC901A5E0880FBC
:10173000991FAA95E1F70E949A3180E2861BF7FF74
:101740000FC081950895CB0165E0880F991F6A95B8
:10175000E1F7BA01621B730B0E949A3180E6EECF6B
:101760000895EF920F93CF93DF93D72FC82FC9011E
:101770000E19BA010E947E0B602F681B7D2F8C2FE3
:10178000DF91CF910F91EF9008950F93CF93DF9357
:10179000D72FC82FC901BA010E947E0B682F600F96
:1017A0007D2F8C2FDF91CF910F910895EF920F93A2
:1017B0001F93CF93DF93D62FC72F182FC9010E1970
:1017C000010FBA010E947E0B081B202F219F212DA3
:1017D0001124822F6D2F7C2FDF91CF911F910F91BC
:1017E000EF900895EF920F931F93CF93DF93D62F2F
:1017F000172FC82FC9010E19070FBA010E947E0BBF
:10180000702F781B719F712D11246D2F8C2FDF91FC
:10181000CF911F910F91EF9008950F931F93CF9346
:10182000DF93D62FC72F182FC901212F201B022F7E
:10183000BA010E947E0B982F990F990F891B800F78
:10184000282F219F212D1124822F6D2F7C2FDF9196
:10185000CF911F910F9108950F931F93CF93DF9313
:10186000D62F172FC82FC901272F201B022FBA01EF
:101870000E947E0B982F990F990F782F791B700F6C
:10188000719F712D11246D2F8C2FDF91CF911F919E
:101890000F910895E82F86FDE0952E2F2F7086FD7D
:1018A0002F5FE695E695E695E670F0E0E055FE4F91
:1018B0009181929F902D212D112492959F702295B8
:1018C000207F922B2081920F87FD919580E8890FD0
:1018D0000895AC018230910508F408959FEF413ED0
:1018E0008EE1580740F49A0195E0369527959A9530
:1018F000E1F798E0920F61E0E62FE90FFF27FF1F65
:101900009F0135952795822F229FF001239FF00D8F
:10191000F00D11244E175F0738F49FEF920F9617C2
:1019200058F78FEF860F08952F3FE9F361E0620FBC
:10193000F6CF0F93CF93DF93D72FC82F47FD419555
:1019400088E390E0841B910947FD9395889FB0013F
:10195000899F700D700D1124229FC001239F900D4F
:10196000900D1124860F971F0E94690C982F990FD4
:10197000890F682F600F7D2F8C2FDF91CF910F91F2
:10198000089530E020E0869F212D969F200D311D87
:101990001124C9010895AF92BF92CF92DF92FF92B6
:1019A0000F931F93CF93DF93362F472FE82FF0E04D
:1019B000E455FF4F71110FC0E4918E2F2E2F6E2F23
:1019C000722FDF91CF911F910F91FF90DF90CF90F9
:1019D000BF90AF900895C72FD0E02491F22E022F30
:1019E00010E056E0659FC0011124EFEFF0E0BF0169
:1019F0000E948631832F90E0880F991F35E5369F2E
:101A0000D001379FB00D11248A1B9B0B982F990F83
:101A1000980F6F01CC1ADD0AC09ED001C19EB00D97
:101A2000D09EB00D11248B2F499FA0011124452F6A
:101A300055276F01C41AD50AC09EA001C19E500D42
:101A4000D09E500D11245F01A91AB108AC9E60010F
:101A5000AD9ED00CBC9ED00C1124CD2CDD24EC19F5
:101A6000FD09E09FE001E19FD00DF09FD00D112412
:101A7000ED2F62307105A1F050F46115710509F484
:101A80009ECF6130710581F0EB2F852F98CF6430A8
:101A9000710569F080F06630710509F490CFF4CFDC
:101AA000E22F2B2F8D2F8BCFE22F252F88CFEB2FDF
:101AB000822F2D2F84CF2B2F8F2DE52F80CF2F928C
:101AC0003F925F926F927F928F929F92AF92BF925E
:101AD000CF92DF92EF92FF920F931F93CF93DF93FA
:101AE000CDB7DEB72A970FB6F894DEBF0FBECDBFD5
:101AF0008B837E836D83209162018CE0289F802DF3
:101B000011248F83845F89838A838A3310F039E3B9
:101B10003A8380911F058C83FF81EF2FF0E0FA87D5
:101B2000E987CF01880F991F9C0120533E4F69011F
:101B30003B81832F90E0FC013196F887EF838A8107
:101B400099859817E8F081E0E981E93308F080E0B1
:101B50002A960FB6F894DEBF0FBECDBFDF91CF91AE
:101B60001F910F91FF90EF90DF90CF90BF90AF90BB
:101B70009F908F907F906F905F903F902F900895EF
:101B8000E985FA85E258FD4F8081909163018923B0
:101B9000F1F020901B0530901C052F813885215EC7
:101BA0003A4F39015B8010E0FC815F16D0F0209144
:101BB0001D05129F112D1124B101812F0E94CB0C04
:101BC000462F282F672F89859A850E949B09298592
:101BD0003A852F5F3F4F3A87298732E0C30ED11CE9
:101BE000AECFF30181913F01F601A4ACA81ABB0866
:101BF00085ACF3018781881A9908AA9C9001AB9C57
:101C0000300D300D1124889CC001899C900D900DE1
:101C10001124820F931F0E94690C082FF301EE0F0D
:101C2000FF1FEF51F54060911E05858996890E943E
:101C3000C10C7C019401A501B101812FED81FE81D0
:101C400009951B015394182FAFCFCF92DF92EF92DB
:101C5000FF920F931F93CF93DF937C01C09162019A
:101C60008CE0C89FC02D11242CE0D22EDC0ECD2C90
:101C700089E38D1510F499E3C92E20911E0530E0FB
:101C800050E040E06FEF7FEF80E090E00E945E3533
:101C90008901D0E02C2FCC1570F081E0F8E3FD1520
:101CA00008F480E0DF91CF911F910F91FF90EF90AA
:101CB000DF90CF900895FE01E258FD4F8081909112
:101CC00063018923F1F040911F054150042E000C5F
:101CD000550B47FF18C0C80160911E050E94C10C3A
:101CE000AC0160911B0570911C0580911D05F701E9
:101CF00009950E94CB0C462F282F672FCE010E94FA
:101D00009B092196C7CFFA01E15EFA4F81898213C0
:101D10000AC0FA01EE0FFF1FE15EFA4F818D928D2E
:101D200080179107C8F241505109D3CF9F92AF92CB
:101D3000BF92CF92DF92EF92FF920F931F93CF93B8
:101D4000DF936C01C09162018CE0C89FC02D11240B
:101D50001CE01C0FB12E1A3310F039E3B32E609142
:101D60001E056695669580911605909117050E944F
:101D7000C10CF82E80E48F0D0E944A0C90E8A92E29
:101D8000A80E8F2D0E944A0C20E8922E980ED0E0CB
:101D9000CB1580F081E0193308F080E0DF91CF911E
:101DA0001F910F91FF90EF90DF90CF90BF90AF9079
:101DB0009F900895FE01E258FD4F8081909163014C
:101DC0008923A1F060911B0570911C0580911D0570
:101DD000EF2C0C2F292D4A2DF60109950E94CB0CD2
:101DE000462F282F672FCE010E949B092196D0CF26
:101DF0005F926F927F928F929F92AF92BF92CF929B
:101E0000DF92EF92FF920F931F93CF93DF933C01EA
:101E1000C09162018CE0C89FC02D11241CE01C0FF2
:101E2000F12E1A3310F039E3F32E60911E056695FA
:101E300080911605909117050E94C10C582ED0E094
:101E4000CE01880F991F9C0120533E4F6901CF1589
:101E5000A0F081E0193308F080E0DF91CF911F916D
:101E60000F91FF90EF90DF90CF90BF90AF909F9039
:101E70008F907F906F905F900895FE01E258FD4F24
:101E8000808190916301892379F1F60184AD282F37
:101E90002057330B590185ADE82FE052FF0B4F015E
:101EA000AA9C9001AB9C300D300D1124EE9FC00117
:101EB000EF9F900D900D1124820F931F0E94690CCB
:101EC000082F60911B0570911C0580911D05E52C64
:101ED0009401A501F30109950E94CB0C462F282FF0
:101EE000672FCE010E949B09F2E0CF0ED11C2196F4
:101EF000AECFAF92BF92CF92DF92EF92FF920F934D
:101F00001F93CF93DF936C01C09162018CE0C89F57
:101F1000C02D11241CE01C0FB12E1A3310F039E330
:101F2000B32E60911E056695809116059091170558
:101F30000E94C10CA82ED0E0CE01880F991F9C01F1
:101F400020533E4F7901CB1578F081E0193308F02A
:101F500080E0DF91CF911F910F91FF90EF90DF9084
:101F6000CF90BF90AF900895FE01E258FD4F808161
:101F7000909163018923C1F0F70125AD2052330B05
:101F800044AD4057550B60911B0570911C05809125
:101F90001D050A2DF60109950E94CB0C462F282F0E
:101FA000672FCE010E949B09F2E0EF0EF11C2196F3
:101FB000CACFDF92EF92FF920F931F93CF93DF93DD
:101FC0007C01C09162018CE0C89FC02D11241CE0EF
:101FD0001C0F012F1A3308F009E360911E05669566
:101FE000669580911605909117050E94C10CD82E18
:101FF000D0E0C01760F081E0193308F080E0DF9195
:10200000CF911F910F91FF90EF90DF900895FE0107
:10201000E258FD4F808190916301892391F0609196
:102020001B0570911C0580911D052D2D4C2FF7016E
:1020300009950E94CB0C462F282F672FCE010E94B6
:102040009B092196D6CF9091800492FF06C0282F3D
:1020500028712830F9F4877F846093FF06C0282F09
:1020600028712831F1F4877E84612091810420FF5A
:1020700006C0382F38713830D9F4877F816021FF4E
:1020800006C0282F28712831D1F4877E816194FD04
:10209000877E0895282F24712430F9F68B7F88607D
:1020A000DCCF282F2471243101F78B7E8861DDCFAE
:1020B000382F3171313019F78E7F8860E0CF282FAB
:1020C0002171213121F78E7E8861E1CFCF93DF939B
:1020D000972F70E026E0929F600D711D1124FB0187
:1020E0003CE3839FE00DF11D1124EE0FFF1FE2552D
:1020F000FE4FC591D491CE01C238D10591F1C0F502
:10210000C133D10509F494C028F5C932D10509F4C9
:1021100088C0CA32D10509F492C0C11542E5D4077E
:1021200008F0A9C0C11521E5D20708F012C1CF3FC0
:10213000D10511F008F090C0C03FD10508F0E6C00D
:10214000C53AD10508F082C0C430D105F8F4219712
:10215000E9F040C0C533D10509F45CC0C933D105ED
:10216000E1F620918004237089F080EE90E00EC0AB
:10217000C33ED10591F168F4C03ED105F9F0C23EED
:10218000D10559F62091800422FD20C0DF91CF9126
:102190000895C63ED10561F1C73ED10581F1C43E27
:1021A000D10509F0BACF2091810421FFEFCF8091B2
:1021B000800484FD0FC087EE90E0E8CF209180047A
:1021C00020FDF4C03091810430FFE0CF83EE90E039
:1021D00024FFDCCF90E080E0D9CF2091800422FD65
:1021E000E8C03091810430FDC0CF24FFCFCFF2CFC3
:1021F0002091800423FFCACF24FDECCFDCCF2091B7
:10220000800423FDD9C03091810431FFEECF84EEEC
:1022100090E0BCCF2091800425FFB8CF89E290E008
:10222000B5CF2091800425FFB1CF85E390E0AECFFC
:102230002091800426FFAACF8AE290E0A7CF2091C8
:10224000800426FFA3CF81E390E0A0CFC05ED10938
:10225000289708F49BCFBECFC11530E5D30708F00F
:102260005CC0C11540E4D40708F053C0C115D0428A
:1022700008F48CCFAFCFC11536E5D30718F5C115DB
:1022800045E5D40708F07BC0C11584E5D80708F000
:1022900071C09C2F96959695AE0143705527C11538
:1022A000D34508F45BC021E030E002C0220F331FA9
:1022B0004A95E2F740E2949FC0011124822B932BB0
:1022C0009A6864CFC1153AE5D30778F4C11549E59A
:1022D000D40708F05EC0C11588E5D80708F47ACFA6
:1022E0009C2F8827806F906A51CFCE019056811520
:1022F000904208F06FCF8D2F8F710E94231090E0D5
:10230000982F882788279F718C2B41C0CE0190651C
:102310003DCFCE019F70906A39CF9E01E4E03695A3
:102320002795EA95E1F723708C2F86958695837023
:1023300030E2839FC0011124922BC37021E030E072
:1023400002C0220F331FCA95E2F7822B932B9C68A1
:102350001DCF9C2F8827816F906A18CF21E030E035
:1023600002C0220F331F4A95E2F740E2949FC0015A
:102370001124EBCF9C2F8827846F906A07CF8C2F76
:102380000E94231090E0982F882788279F719062E1
:10239000FDCE8C2F8F700E94231034E0D695C79508
:1023A0003A95E1F7CF709C2F9069F0CE89E390E0E9
:1023B000EDCE82EE90E0EACE86EE90E0E7CEBF92E0
:1023C000CF92DF92EF92FF920F931F93CF93DF9301
:1023D0008C01C0905307D0905407E0905507F090BF
:1023E00056078091420490914304A0914404B09117
:1023F0004504C82AD92AEA2AFB2ACFE1D0E0BC2E1C
:10240000D701C6010C2E04C0B695A7959795879560
:102410000A94D2F780FD0EC0219788F7B12C8B2D3E
:10242000DF91CF911F910F91FF90EF90DF90CF90B0
:10243000BF900895B8018C2F0E946610019761F338
:10244000EECFCF93DF93EC010E94DF11BE01DF914D
:10245000CF910C9466100E942112292F2F70929513
:102460009F7092509E3078F4E92FF0E0ED53FA4CD3
:102470000C94AE31803F19F020F4883E20F481E0C6
:102480000895843FE1F380E00895883EC0F3813FE2
:10249000D1F7F5CF822F8695869586950895CF93AF
:1024A000DF93682F81E06A3019F06D3029F480E005
:1024B000DF91CF910C94D0128091510790915207E7
:1024C00026E0FC01ABE4B7E001900D922A95E1F71C
:1024D000603E08F45AC026E0FC0111922A95E9F703
:1024E000C0915107D091520746E050E0BE018BE405
:1024F00097E00E9450329E012B543540892B41F1C8
:10250000C90145E0969587954A95E1F741E050E08D
:10251000BA0102C0660F771F8A95E2F7CB0160917E
:10252000490570914A05862B972BB9016B5F7F4F48
:10253000E5E076956795EA95E1F702C0440F551FEF
:102540006A95E2F7842B952B90934A058093490571
:102550002A5F3F4F40914805642F70E0C9010E94F7
:102560008631481B463010F4240F311D211572E0CE
:10257000370710F030E020E0255B3A4F30935207E8
:1025800020935107DF91CF910895F6E06F9FB0013E
:1025900011246D5D7A4F46E050E00E944732A0CF93
:1025A000CF93382FE0915107F0915207EB54F5404B
:1025B00020914805622F70E0CF010E948631281BD0
:1025C000822F332361F066E00E947A31C82FC15018
:1025D00010F4CF91089580E20E944F12F8CF9F012E
:1025E000280F311D2115324018F080E0F0E0E0E0C6
:1025F0008E0F9F2F911D855B9A4F9093520780936A
:102600005107E7CF0F931F93CF93DF93EC01FC01AA
:1026100001900020E9F78F0101501109C017D1077F
:1026200028F0DF91CF911F910F91089589910E9419
:102630004F12F4CFCF92DF92EF92FF920F931F933E
:10264000CF93DF936C017B0164E670E088E70E9422
:10265000D42EEC0197FD12C010E000E0F601E00F6F
:10266000F11F849164E670E00E94302FEC01892B09
:1026700029F40F5F1F4F0E151F0581F70E94B32F1E
:10268000CE01DF91CF911F910F91FF90EF90DF90DE
:10269000CF9008950E944608605A75418F4F9F4F12
:1026A0006093C9047093CA048093CB049093CC04C4
:1026B0008091CD04811108C062E070E08CEA91E065
:1026C0000E941A13892B19F08091CD04089581E09E
:1026D0008093CD04F9CFCF9384E090E00E941C3525
:1026E000C82F81E290E00E941C35982F8C2FCF914B
:1026F00008959C0182E08093E9009FEF8091E800BB
:10270000915085FD06C085ED8A95F1F70000911185
:10271000F5CF8091E80085FF0CC050E040E066E016
:1027200070E0C9010E94CB058091E8008E7780930C
:10273000E8000895CF93DF93EC0180916001882336
:10274000B1F18091800487FF32C060E282E0809323
:10275000E9008FEF9091E800815095FD06C095ED5E
:102760009A95F1F700008111F5CF8091E80085FF7F
:102770001BC08091600170E050E040E0811104C016
:1027800050E040E068E070E0CE010E94CB0580910F
:10279000E8008E778093E80080E2FE01AAEEB4E0C4
:1027A00001900D928A95E1F7DF91CF91089568E04D
:1027B00081E0CDCF539A3BB1377F2BB128604FB723
:1027C000F89488EE92E0FC015191CF0168E02BB9BA
:1027D000000000C057FF3BB9550F000000C000C00B
:1027E00000C03BB900C06A9591F7F3E083399F07B9
:1027F00051F74FBF8FE594E00197F1F700C000005B
:1028000008958091E702811114C088EC9091E30053
:1028100097FD16C0EFE3FCE93197F1F700C0000027
:102820008150A1F70E947B0510920C0582E08093F5
:10283000E70281E09091E702913009F080E008958D
:1028400081E0F5CF6CEE7EEF90E080E00E9458359D
:1028500060E082E090E00E943A3560E083E090E042
:102860000E943A351092420410924304109244049C
:102870001092450460E084E090E00E943A3560E008
:1028800081E290E00E943A3560E085E090E00E94AD
:102890003A3560E086E090E00E943A356FEF87E0DD
:1028A00090E00E943A3540E050E0BA0188E090E0C4
:1028B0000E944C3560E08DE090E00E943A3540E0A7
:1028C00050E0BA0188E190E00E944C3560E087E179
:1028D00090E00E943A3540E050E0BA018CE190E08F
:1028E0000E944C3560E080E290E00E943A3540E082
:1028F00050E0BA018FE090E00E944C3540E050E09B
:10290000BA0183E190E00C944C351F93CF93DF9391
:10291000EC01FC01E258FD4F80816823A1F00E9488
:102920003732182F0E943732612F782F80911D0582
:102930000E94CB0C462F282F672FCE01DF91CF911D
:102940001F910C949B09DF91CF911F910895DF9205
:10295000EF92FF920F931F93CF93DF938C01FC01B3
:10296000E258FD4F8081682381F1D0901C05D09101
:102970001D05C0911B05EC2EF12C0E943732282F2B
:10298000C7018C549F4F68E671E00E949A318E19FE
:102990009F0997FD03969595879595958795237043
:1029A0006C2F289F600D11247D2D8D2F0E94CB0C44
:1029B000462F282F672FC801DF91CF911F910F91CC
:1029C000FF90EF90DF900C949B09DF91CF911F91C6
:1029D0000F91FF90EF90DF90089545E050E06CE19B
:1029E00070E08AE195E00C942A3590911A05937075
:1029F00089F0811107C0946090931A0510926101CB
:102A00000C94ED14873210F09869F6CF880F880F78
:102A1000982BF2CF089580911A058695869581505E
:102A200009F486E20C94F51480911A058695869532
:102A30008F5F873208F081E00C94F51490911A05AD
:102A4000937059F080931B0560931C05473908F07B
:102A500046E940931D050C94ED140895EAE1F5E074
:102A6000438128E0421B08F440E08181628190E0CC
:102A70000C941E15EAE1F5E0438128E0420F08F4CA
:102A80004FEF8181628190E00C941E15EAE1F5E040
:102A9000628128E0621B08F460E08181438190E05C
:102AA0000C941E15EAE1F5E0628128E0620F08F45B
:102AB0006FEF8181438190E00C941E15EAE1F5E00F
:102AC0008181438162818850990B0C941E15EAE143
:102AD000F5E0818190E04381628108960C941E1597
:102AE000EAE1F5E024813AE0230F08F42FEF248394
:102AF0000C94ED14EAE1F5E024813AE0231B08F49C
:102B000020E024830C94ED14EAE1F5E085E3808372
:102B10008091650190916601A09167018183928304
:102B2000A3838FE784830C94ED1478941F921FB6CF
:102B30001F9211248F939F93AF93BF93809146046C
:102B400090914704A0914804B09149040196A11DB9
:102B5000B11D8093460490934704A0934804B0931A
:102B60004904BF91AF919F918F911F901FBE1F90FD
:102B700018952FB7F8948091460490914704A0913E
:102B80004804B09149042FBF08950E94B9159C01D3
:102B90009091D7048091D804982B21F03093D404DD
:102BA0002093D3049091D9048091DA04982B21F0DA
:102BB0003093D1042093D004E0918204F0918304F7
:102BC000309749F082E08093D5040480F581E02DB0
:102BD00085ED94E00994089510923F0410923E040C
:102BE0000E94B70886E0E5EDF4E0DF011D928A95CA
:102BF000E9F71092D2041092CF0410924A040C9478
:102C0000C5156093530770935407809355079093AD
:102C100056070C94EC150F931F9360915307709116
:102C2000540780915507909156078B019C010670BF
:102C3000112722273327063011052105310529F4F4
:102C400068601F910F910C940116677FFACF0F9364
:102C50001F9341E050E060E070E004C0440F551F56
:102C6000661F771F8A95D2F7CB01BA0160957095E0
:102C70008095909500915307109154072091550726
:102C80003091560760237123822393231F910F9164
:102C90000C94011690913D048095892380933D0406
:102CA000282F277071F4282F082E000C330B921751
:102CB000130639F08595859585950E942716109203
:102CC0003D0408950F931F9341E050E060E070E0F1
:102CD00004C0440F551F661F771F8A95D2F7809155
:102CE000530790915407A0915507B09156078A0158
:102CF0009B01082B192B2A2B3B2BC901B8011F91D3
:102D00000F910C94011660934204709343048093D6
:102D10004404909345040C94EC1510924004809167
:102D20006001EAEBF2E0882359F08091800487FF8C
:102D300007C08EE1DF011D928A95E9F70C94EC152E
:102D400086E0F8CF1F93CF93DF93CDB7DEB7AA9776
:102D50000FB6F894DEBF0FBECDBF8EE095E0209198
:102D6000F100FC012193CF01F5E086319F07B9F70F
:102D700080910F05833009F46FC0B8F4813009F4F5
:102D800046C0823009F4B0C08091E80083FF87C25A
:102D900080910E0590910F059A3008F080C2E92FBE
:102DA000F0E0EF52FA4C0C94AE318A3009F48BC04B
:102DB0008B3009F46EC0893039F780910E0581326D
:102DC00019F780911205909113050297E8F680910A
:102DD000E800877F8093E8008091E80082FF37C099
:102DE0009091F3008091F200029729F48091F10014
:102DF0008B7F813021F48091F1008093E9048091F0
:102E0000E8008B778093E8000E94F505BDCF8091A4
:102E10000E05813A09F0B8CF8091E800877F809352
:102E2000E8008091120590911305892B61F460E20E
:102E30008AEE94E070E00E94A7068091E8008B770C
:102E40008093E800A1CF60E090E080E0F3CF809134
:102E50000C058111C1CF98CF80910E05813A09F000
:102E600093CF8091120590911305892B09F08CCF97
:102E70008091E800877F8093E8008091E80080FFE0
:102E8000FCCF809160018093F1008091E8008E7703
:102E9000B9CF80910E05813209F076CF809112056D
:102EA00090911305892B09F06FCF8091E800877FFF
:102EB0008093E8000E94F5058091100580936001E1
:102EC0000E948D1661CF80910E05813209F05CCF92
:102ED0008091E800877F8093E8000E94F50580914B
:102EE00011058093E80450CF80910E05813A09F0D6
:102EF0004BCF8091E800877F8093E8008091E800C5
:102F000080FFFCCF8091E804BECF803899F08238F2
:102F100009F0C5C1809112058F70873008F0BFC1DC
:102F20008093E9008091EB0085FB882780F910925F
:102F3000E90006C080910A0590910B05911182600D
:102F40009091E800977F9093E8008093F1001092B1
:102F5000F1008091E8008E779EC1882309F48CC12E
:102F6000823009F09CC18091100581118FC1809140
:102F700012058F702FEF280F263008F090C1809334
:102F8000E9002091EB0020FF81C1933031F4809162
:102F9000EB0080628093EB0079C19091EB0090612F
:102FA0009093EB0021E030E001C0220F8A95EAF710
:102FB0002093EA001092EA008091EB008860EACF4B
:102FC00081116DC1109110051F778091E300807809
:102FD000812B8093E3008091E800877F8093E80055
:102FE0000E94F5058091E80080FFFCCF8091E3000E
:102FF00080688093E30082E0111183E080930C05E8
:103000004EC18058823008F04AC1809110059091DD
:1030100011058C3D23E09207A1F583E08A838AE2C3
:1030200089834FB7F894DE01139620E03EE051E229
:10303000E32FF0E050935700E49120FF03C0E295A6
:10304000EF703F5FEF708E2F90E0EA30C0F0C796D0
:103050008D939D932F5F243159F74FBF8091E800E6
:10306000877F8093E8006AE270E0CE0101960E94BB
:10307000A7068091E8008B778093E80010C1C09686
:10308000E7CF4091120550911305292F33272330A4
:10309000310509F445C078F52130310509F47BC0CC
:1030A0008BE390E0EAE7F4E02230310509F0F7C065
:1030B0002091E800277F2093E800209114053091AB
:1030C00015058217930708F49C0140E0211531058E
:1030D00009F070C041116EC08091E80082FDC9CF37
:1030E00080910C05882329F2853019F28091E8003F
:1030F00083FFF2CFBECF2132310509F440C0223226
:10310000310509F0CCC04115510509F44EC04130DC
:10311000510509F0C4C08AE890E0E0EBF3E0C8CFC5
:10312000992781309105D9F0009771F0823091058F
:10313000F1F0039709F0B3C0E7ECF4E0E4918E2FCF
:1031400090E0E7ECF4E007C0EFE1F5E0E4918E2FCA
:1031500090E0EFE1F5E0009709F4A1C0A9CFEBE022
:10316000F5E0E4918E2F90E0EBE0F5E0F4CFEDECAC
:10317000F4E0E4918E2F90E0EDECF4E0ECCF41151B
:10318000510571F04130510509F089C089E090E0A6
:10319000E5EAF4E08DCF82E190E0E5EBF4E088CF62
:1031A00089E090E0ECE8F4E083CF80E490E0EAE3AB
:1031B000F4E07ECF80910C05882309F45ACF853046
:1031C00009F457CF8091E80083FD53CF8091E80048
:1031D00082FD82CF8091E80080FF78CF9091F3004C
:1031E0008091F2002115310519F08830910550F0D9
:1031F00041E0089709F040E08091E8008E778093E5
:10320000E80064CF44914093F10031962150310998
:103210000196E8CF803809F042C08091E800877FAE
:103220008093E80080910D058093F10092CE81118A
:1032300036C010911005123090F58091E800877F1C
:103240008093E80010930D050E94F505112311F0FD
:1032500084E005C08091E30087FDFACF81E0809390
:103260000C0542E061EC81E00E94140642E261EC50
:1032700082E00E94140613C080911005813079F419
:1032800081E0933009F080E080930B051092E90013
:103290008091E800877F8093E8000E94F505809187
:1032A000E80083FF0AC08091E800877F8093E800F0
:1032B0008091EB0080628093EB00AA960FB6F894A1
:1032C000DEBF0FBECDBFDF91CF911F9108951F923A
:1032D0000F920FB60F9211242F933F934F935F934A
:1032E0006F937F938F939F93AF93BF93CF93DF930E
:1032F000EF93FF93D091E900DF708091EC00C82F2D
:10330000C17080FDC0E81092E9008091F000877FD5
:103310008093F00078940E94A2161092E9008091A8
:10332000F00088608093F000CD2BCF70C093E9004F
:10333000FF91EF91DF91CF91BF91AF919F918F91CD
:103340007F916F915F914F913F912F910F900FBEA1
:103350000F901F9018951F920F920FB60F92112485
:103360002F933F934F935F936F937F938F939F938D
:10337000AF93BF93EF93FF938091E10082FF09C069
:103380008091E20082FF05C08091E1008B7F8093F5
:10339000E1008091DA0080FF24C08091D80080FF96
:1033A00020C08091DA008E7F8093DA008091D9006E
:1033B00080FF9FC080E189BD82E189BD09B400FE24
:1033C000FDCF81E080930C058091E704811109C055
:1033D0000E947B050E9446068091E20084608093F3
:1033E000E2008091E10080FF17C08091E20080FF41
:1033F00013C08091E2008E7F8093E2008091E20012
:1034000080618093E2008091D80080628093D80030
:1034100019BC85E080930C058091E10084FF2DC0EC
:103420008091E20084FF29C080E189BD82E189BDED
:1034300089B5982F917080FFFBCF8091D8008F7D48
:103440008093D8008091E1008F7E8093E10080918D
:10345000E2008F7E8093E2008091E20081608093A1
:10346000E20080910D05882309F449C084E080932F
:103470000C050E948D160E9472098091E10083FF65
:1034800027C08091E20083FF23C08091E100877F05
:103490008093E10082E080930C0510920D058091ED
:1034A000E1008E7F8093E1008091E2008E7F809327
:1034B000E2008091E20080618093E20042E060E0FF
:1034C00080E00E9414068091F00088608093F000F4
:1034D000FF91EF91BF91AF919F918F917F916F91EC
:1034E0005F914F913F912F910F900FBE0F901F90C2
:1034F000189519BC10920C051092E70472CF8091B8
:10350000E30087FD93E090930C05B3CF882309F483
:1035100058C09CEF980F913A38F4682F88EB92E0EE
:103520000E9452080C94B70890E2980F983088F4E3
:10353000877021E030E0A90102C0440F551F8A9531
:10354000E2F7CA018095909140048923809340045A
:10355000E9CF9BE5980F9330B0F48091D903909117
:10356000DA03892B71F11092DA031092D903E091FA
:103570008204F0918304309721F10680F781E02DD9
:1035800090E080E0099498E5980F9731A0F480913D
:10359000DB039091DC03892BA1F01092DC031092E5
:1035A000DB03E0918204F0918304309751F00084B2
:1035B000F185E02DE5CF803F20F00E940A070C94B2
:1035C000C5150895CF93C82F882309F455C08CEFF3
:1035D0008C0F813AC0F580916001882311F18091B0
:1035E000800487FF1EC0EC2FE695E695E695F0E097
:1035F000E854FD4F828190E04C2F477021E030E08D
:1036000002C0220F331F4A95E2F782239323892BAE
:1036100091F06C2F88EB92E00E9452080E94B7084C
:103620000AC0EAEBF2E080EC92E02191C21789F344
:103630008E179F07D1F76C2F88EB92E00E947C08D1
:10364000CF910C94B70880E28C0F883068F4C77073
:1036500021E030E001C0220FCA95EAF780914004D2
:10366000822B80934004ECCFC03F30F08C2F0E941F
:10367000CF07CF910C94C515CF9108950F931F9349
:10368000CF93DF93C42FD22FFC0182818823A1F036
:103690004093D7030E94B9159093940380939303AA
:1036A000C77081E001C0880FCA95EAF7DF91CF911A
:1036B0001F910F910C9468091091D703141338C00F
:1036C00080919303909194030E943708843691056A
:1036D00078F5C0E2CD0F1D17B9F080E2810F883078
:1036E00040F4177081E001C0880F1A95EAF70E9434
:1036F0005D09C83048F481E09D2F977001C0880FA4
:103700009A95EAF70E946809802F0E94E21A802F9A
:103710000E94861AC83098F4D77081E001C0880FE3
:10372000DA95EAF7DF91CF911F910F910C945D0923
:10373000C77081E001C0880FCA95EAF7F3CFDF9127
:10374000CF911F910F9108957F928F929F92AF9288
:10375000BF92CF92DF92EF92FF920F931F93CF937E
:10376000DF9300D000D00F92CDB7DEB77C01DC0133
:1037700013968D919C911497892B41F01C91119671
:10378000CC90812F8C218F3F09F0CFC60F900F90E6
:103790000F900F900F90DF91CF911F910F91FF909D
:1037A000EF90DF90CF90BF90AF909F908F907F90E1
:1037B00008950E94DF11082F682F89819A810E9445
:1037C000250996E0E12FF0E0C99EE00DF11D1124DE
:1037D000BCE30B9FE00DF11D1124EE0FFF1FE2551E
:1037E000FE4F05911491F7018281882381F0818138
:1037F0002081989FC001112480539E4F820F911DFC
:10380000DC01DC90BFEFCC24C394DB1201C0C12CDF
:1038100070904B04AC2CB12CC501870D911D0997FC
:103820006CF188E090E04C018A189B08B501645B5C
:103830007B4FA4018CE494E00E945D32B5016C5A88
:103840007B4FA40184E594E00E945D32A401440F03
:10385000551FB501660F771F6C597B4F84E694E0C6
:103860000E945D32B501645A7B4FA4018CE594E05F
:103870000E945D328FEF870D80934B0480914B0443
:1038800090E02D2D30E0D901AA0FBB1FBD01645F70
:103890007D4F9D01235F3D4F41E0480F9C1508F48B
:1038A00073C080934B0480911A058C7F843609F095
:1038B000B8C0F7017181208199249A94970EF1E0A4
:1038C000F70F88248A94820EE1E0E20FA72EB12C34
:1038D000821688F446E04A9DC0014B9D900D11244C
:1038E0008B569C4F880D911DDC014C9150E1450F8A
:1038F00008F44FEF4C93422F50E066E06A9DC00100
:103900006B9D900D11248B569C4F5C01A40EB51E2F
:10391000D5016C91B0E23B2F630F08F46FEFD50136
:103920006C93E63058F48E0F911DDC016C91B0E180
:103930003B2F630F08F46FEFDC016C93FA3008F44F
:1039400038C0692D70E0821608F48FC026E0269FEB
:10395000C001279F900D11248B569C4FDC01A40FB2
:10396000B51F2C9130E1230F08F42FEF2C93E63094
:1039700008F057C0E80FF92FF11D20813DE0230F1B
:1039800008F42FEF20834DC090E0FC01E55BFB4F76
:10399000DB015C915183D9015C915187D18A880FF9
:1039A000991FFC01E55BFB4F128E118E91E0842F75
:1039B00073CFCF2ED12C821690F466E06C9DC0019F
:1039C0006D9D900D11248B569C4F880D911DDC012F
:1039D0006C91FDE03F2F630F08F46FEF6C9366E08E
:1039E0006C9DC0016D9D900D11248B569C4F6C01F8
:1039F000C40ED51ED6016C91F0E13F2F630F08F481
:103A00006FEF6C93E63050F48E0F911DDC016C91DA
:103A1000FDE03F2F630F08F46FEF6C93971608F4E7
:103A200090CFF70192810A32FDE51F0709F471C0BA
:103A30000B322DE5120709F49FC009323DE513074B
:103A400009F0A3C081E0992311F18093D603D70137
:103A500013968D919C919093D5038093D40381E02C
:103A60000E9462160E940B1634C026E0269FC001F9
:103A7000279F900D11248B569C4FDC01A80DB11D82
:103A80002C913DE0230F08F42FEF2C935FCF0E9481
:103A900027160E940B168091D6038823C1F0F701E8
:103AA000838194812091D4033091D503821B930BA1
:103AB0008436910560F481E90E94E21A8BE80E9445
:103AC000E21A8BE80E94861A81E90E94861A1092F7
:103AD000D60380913D04877009F458CED701129621
:103AE0008C91882309F452CE82E00F900F900F90B2
:103AF0000F900F90DF91CF911F910F91FF90EF905A
:103B0000DF90CF90BF90AF909F908F907F900C945C
:103B10004A16992369F081E08093D303D701139665
:103B20008D919C919093D2038093D10382E098CFA2
:103B300082E00E9427160E940B168091D3038823EF
:103B4000C1F0F701838194812091D1033091D20398
:103B5000821B930B8436910560F480E90E94E21A7F
:103B60008AE80E94E21A8AE80E94861A80E90E9486
:103B7000861A1092D303ADCF83E0992319F00E94E7
:103B80006216A7CF0E942716A4CF992309F473C009
:103B90001092D6031092D303033FFCE51F0709F4EC
:103BA000A0C0B8F4083D3CE5130709F494C0093DF2
:103BB0008CE5180709F4A7C0073DACE51A07A9F47E
:103BC00006E221EE41EE67ED7CE5C7010E943E1B57
:103BD00080CF053FBCE51B0709F48FC008F487C000
:103BE000063FFCE51F0709F470C01092D7030230AE
:103BF0003CE5130708F46AC106318CE5180738F074
:103C000098012A5F3C452930310508F05FC10E94C8
:103C10006B13909381048093800400319CE5190715
:103C200009F423C108F0ADC00830BCE51B0709F456
:103C30000EC108F081C00430FCE51F0709F4FFC085
:103C400008F067C002303CE5130709F4EEC003300A
:103C50001C4509F4F0C0609180041091810484E057
:103C600090E00E943A35612F81E290E00E943A355F
:103C70000E948D162ECF033F2CE5120791F1E0F440
:103C8000083D8CE5180739F1093DACE51A07D9F173
:103C9000073DBCE51B0709F493CF0631BCE51B07C4
:103CA00009F02FC18091D80369E2811165E388EBA7
:103CB00092E00E94520820C1053FECE51E07E9F0A2
:103CC000B0F0063F2CE5120741F707E225EE46EE7D
:103CD00066EF7CE57ACF07E225EE45EE68ED7CE500
:103CE00074CF06E221EE40EE63EF7CE56ECF07E293
:103CF00025EE44EE64EF7CE568CF06E221EE42EE6D
:103D000065EF7CE562CF08E221E045EE69ED7CE5F8
:103D10005CCF80918004806106309CE5190709F42E
:103D200087C080918004886007301C4508F480C0FB
:103D30008091800480627CC0809180048D7F0C30F3
:103D4000BCE51B0709F474C070F4809180048C609A
:103D50000A30FCE51F0709F46BC008F47CC08091B1
:103D600080048E7F65C080918004877F0E303CE5A3
:103D7000130709F45DC008F474C0809180048F7E3D
:103D800057C00B3F9CE5190709F45DC030F50331BE
:103D9000BCE51B0709F471C078F40131FCE51F078D
:103DA00009F467C002311C4509F055CF0E948D16F9
:103DB000809180048F773CC005313CE5130709F4FE
:103DC00064C008F478C08091810481600A3F1C457A
:103DD00009F041CF809381043ECF0F3FACE51A0735
:103DE00009F44FC088F4809181048D7F0D3FECE58C
:103DF0001E0781F3809181048E7F0E3F1C4550F396
:103E0000809181048360E6CF01302DE5120709F42B
:103E10005BC008F446C060E002301D4509F01BCFCE
:103E20008EE090E00E943A3516CF80918004816048
:103E30008093800410CF809180048260F9CF8091BC
:103E400080048460F5CF809181048260C3CF80912B
:103E500080048064EDCF0E948D168091800480687C
:103E6000E7CF809180048B7FE3CF809180048F7DAA
:103E7000DFCF809180048F7BDBCF80918004837FB4
:103E8000D7CF809181048C7FA5CF8091800482FB65
:103E9000992790F921E0922790FB82F990FB83F912
:103EA000C7CF80918104982F909591708E7F892B38
:103EB00090FB81F98FCF0E948D1690918004892FFD
:103EC00097FB87F98058B4CF61E0AACF0631ACE503
:103ED0001A07A9F4992309F4E5CE809140048A7A5F
:103EE00091E009F490E09093D80369E2811165E3D1
:103EF00088EB92E00E947C080E94B708EACD9111FD
:103F000057C0809140048272F801E25CFC45E431C4
:103F1000F10508F056C0E552FA4C0C94AE31809190
:103F20001A0591E0892780931A05109261010E9479
:103F3000ED14CFCD4BE055E164E175E10E947E09BF
:103F4000C8CD44E155E16BE075E1F8CF4EE555E1B0
:103F500067E675E1F3CF47E655E16EE575E1EECF33
:103F600046E455E162E575E1E9CF42E555E166E4F5
:103F700075E1E4CF4EE255E16AE375E1DFCF4AE354
:103F800055E16EE275E1DACF4AE755E160E775E1A8
:103F9000D5CF40E755E16AE775E1D0CF81E00E94D7
:103FA000F51497CD85E0FBCF8DE0F9CF82E1F7CF17
:103FB0000115BCE51B0709F44AC00E3D1C4509F478
:103FC00062C0F70100811181992309F45FC0C80123
:103FD0000E94DF11D82E682FC8010E942509B80160
:103FE0008D2D0E9466108C01882ED7011596AC90FD
:103FF0001597A2944FE0A4221296BC90B110109293
:104000003F0480913D04877099F0BB2089F0812F97
:10401000807F803421F080E2800F883048F082E099
:104020000E944A1680913D048770DD24D39481114B
:10403000D12CC12EC2943FE0C322BBE0BC1508F4D2
:104040005FC0EC2DF0E0E151FA4C0C94AE310E94CF
:104050008D16FFEF24E33CE0F15020403040E1F7C3
:1040600000C0000087E797E790930108809300085D
:1040700088E19AE00FB6F894A895809360000FBE8F
:1040800090936000FFCF0E94221423CDC8010E94AC
:10409000FC08D82EA4CFE12FEF70AE2E107F19F0C0
:1040A000A29420EFA222BB20C9F0AA2069F080E2EE
:1040B000800F883010F081100BC080914004A82A36
:1040C000A09240040E94B708802F0E94E21A18C0F4
:1040D00080913F04A82AA0923F04F4CF802F0E9431
:1040E000861AAA2069F0A094005E083010F08110B2
:1040F00045C080914004A822A09240040E94B708C5
:10410000AC2DA850BB0B149710F40E947209DD204F
:10411000A9F080913D0480FD11C0F70112828595C0
:10412000859585950E946216C7010E94A41B809107
:104130003D048595859585950E94271685E0F701B4
:10414000DE01119601900D928A95E1F789819A819D
:104150000E94FC089A81E981F0E026E0929FE00D40
:10416000F11D11243CE3839FE00DF11D1124EE0F9E
:10417000FF1FE255FE4F8591949108CB80913F043B
:10418000A822A0923F04BACFF12FFF709F2E107F7C
:10419000103219F0929490EF9922882071F021E06A
:1041A000821661F1BB20B9F1AA2071F1F701858176
:1041B00080FF8ACF8F70858327C0BB2091F09091BC
:1041C0004104892D892BA11003C00E94680998CF52
:1041D00031E0A312FACF981709F492CF80934104EB
:1041E0008FCFA11006C00E94B108892D0E945D09E1
:1041F00087CF81E0A81609F483CFF5CFBB2031F03B
:1042000095E09A1508F47CCF892DDFCFA4E0AA159C
:1042100008F476CFEACFAA2041F3F9E38F1209C060
:104220002FEF37EE83E0215030408040E1F700C0AF
:104230000000802F0E94861A63CF802FBB2029F0B8
:104240000E94CF070E94C5155BCF0E940A07FACFD4
:10425000812F837009F066C0B11052CF802F8295F4
:1042600086958770880F880F602F6F70862E912C2F
:10427000B12CA12C082E04C0880C991CAA1CBB1CB4
:104280000A94D2F740E050E0BA0104FF0FC04FE0BB
:1042900050E060E070E004C0440F551F661F771FB8
:1042A0008A95D2F74095509560957095812F8695A7
:1042B00086958370823019F1D8F4009142041091F0
:1042C00043042091440430914504813069F0482929
:1042D00059296A297B29CB01BA01602371238223E2
:1042E00093230E9483160CCF802A912AA22AB32AF4
:1042F000CB01BA01682979298A299B29F2CF48295B
:1043000059296A297B290091420410914304209184
:10431000440430914504CB01BA01602771278227FC
:104320009327DFCF8695BB2011F0812F81708823E2
:1043300009F4E6CE802F829586958770880F880FC6
:10434000602F6F70862E912CB12CA12C082E04C0EA
:10435000880C991CAA1CBB1C0A94D2F740E050E0C0
:10436000BA0104FF0FC04FE050E060E070E004C00D
:10437000440F551F661F771F8A95D2F740955095B9
:1043800060957095812F869586958370823019F19E
:10439000D8F400915307109154072091550730919C
:1043A0005607813069F0482959296A297B29CB01B0
:1043B000BA0160237123822393230E940116A0CEA9
:1043C000802A912AA22AB32ACB01BA016829792925
:1043D0008A299B29F2CF482959296A297B290091EA
:1043E0005307109154072091550730915607CB0180
:1043F000BA016027712782279327DFCF1F70BB2068
:1044000029F0812F0E946216802FDFCE802F0E941C
:104410005D09812F0E94271673CE802F92EF891697
:1044200009F450C0981578F0A0EF8A1619F1B1EF91
:104430008B1609F43FC0BB2009F467C0A11044CE1D
:10444000812F8F713CC0E3EF8E1609F440C0F4EF6A
:104450008F12F1CFBB2009F44DC01F71812F0E9434
:104460006216A8E01A9FC0011124836080933D0466
:10447000812F25C0BB20C9F024E02A1508F440CEC6
:104480001F7161E070E080E090E004C0660F771F6C
:10449000881F991F1A95D2F700915307109154075E
:1044A0002091550730915607A4CF35E03A1508F40E
:1044B00027CEE6CF812F8F71BB2009F4ABCF0E94AE
:1044C00062161ECE812F8F71BB20C9F3A3CF60E08F
:1044D00070E0CB01BB2009F470CF1F7161E070E088
:1044E00080E090E004C0660F771F881F991F1A951F
:1044F000D2F763CF81E00E944A16B1E0BA1508F006
:10450000FFCD82E00E944A16FBCDAA2059F08933E4
:1045100009F08FCEEFEFF7EE23E0E150F0402040BE
:10452000E1F785CE812F8F7175CF85E0F701DE0130
:10453000119601900D928A95E1F7D70112962C9170
:1045400089819A81211135C90E94FC08082F39C937
:104550001F93CF93DF938091E203807FA9F4809132
:10456000DF03882389F080911404D091E3036091E4
:10457000DD037091DE03A091E003B091E103C62F4B
:10458000C72316E0D81304C0DF91CF911F9108957F
:1045900090E0109711F0CF3F19F401968770F2CF99
:1045A000189F9001199F300D1124F901EC51FC4F17
:1045B00041814713F2CF40814613EFCF4281411131
:1045C000ECCF438154814A1B5B0B4436510528F7DD
:1045D0008091E2038F7080618093E203F901E751DB
:1045E000FC4F80818F70806180838DED93E00E940D
:1045F000A41BDF91CF911F910C945309AF92BF92EE
:10460000CF92DF92EF92FF920F931F93CF93DF939E
:10461000CDB7DEB761970FB6F894DEBF0FBECDBF42
:104620008C0185E0F801DE011D9601900D928A95BE
:10463000E1F7F80180819181E2802DEDA22E23E047
:10464000B22E6091E0037091E1036115710509F4E8
:104650002BC13091DD034091DE03232F24232F3F14
:1046600009F422C1C380D480F090DF03F601E61B79
:10467000F70BFF2009F4FBC02091E203522F507F7B
:10468000E436F10508F0BBC0511178C0FE2C491387
:1046900021C038131FC0E1101DC02F70206120936E
:1046A000E203C5010E94A41B8091E203F801858307
:1046B0008F2D61960FB6F894DEBF0FBECDBFDF9190
:1046C000CF911F910F91FF90EF90DF90CF90BF900F
:1046D000AF900895CD2829F0282F29232F3F09F0E6
:1046E00001C120E0F22FF170DF2E20FF3DC02091AC
:1046F00014044091E30356E0241315C08D879E8770
:104700008D859E850E942112292F22952F7022309F
:10471000F8F0243020F59F70F9F0F8019581907F32
:10472000D9F4D12C1FC030E0529FF001539FF00DFF
:104730001124EC51FC4F6181961306C060818613F1
:1047400003C06281E61210C02F5F3F4F2770D4CFA5
:104750009F7011F0882329F3805E883010F3C80120
:104760000E94A41BFD2CA4CFEE2009F4A1CF8091C0
:10477000E20381608093E203F12C9ACF491312C0C7
:10478000381310C0E1100EC0F8012583C8010E9443
:10479000A41B86E0F801ADEDB3E001900D928A957F
:1047A000E1F786CF8D879E878D859E850E942B128F
:1047B000882309F1EE20F9F08091E203803270F055
:1047C0002091DD033091DE0338872F831986DB8645
:1047D000CA868C87CE0107960E94A41B86E0F8014A
:1047E000ADEDB3E001900D928A95E1F70E94A82209
:1047F000FF24F3945DCFC8010E94A41BF9CF51118F
:104800000AC08DED93E00E94A41B86E0F501119291
:104810008A95E9F7B1CF49130FC038130DC0E110E5
:104820000BC0F8012583C8010E94A41B86E0F50196
:1048300011928A95E9F73CCF8D879E878D859E855D
:104840000E942B128823B9F2EE20A9F28091E20394
:10485000803220F22091DD033091DE033A832983F8
:104860001B82DD82CC828E83CE010196B5CFE436E9
:10487000F105E0F6FE2CEE2009F4BDCF491303C08C
:10488000381709F486CF8D879E878D859E850E9477
:104890002B128111A3CF8091E20381608093E20308
:1048A000C8010E94A41B04CFEE2009F4A4CF8D8779
:1048B0009E878D859E850E942B12F82E882309F4F1
:1048C0009ACF86E0F801ADEDB3E001900D928A95A4
:1048D000E1F78091DD039091DE030E9421120E9496
:1048E000A822E6CE21E02E25FDCE1F93CF93DF93A5
:1048F000CDB7DEB767970FB6F894DEBF0FBECDBF5A
:104900004B8B5C8B6D8B7E8B8F8B1A8A198A85E023
:10491000FE017396DE011D9601900D928A95E1F7D6
:1049200086E0FE013D96DE01179601900D928A9574
:10493000E1F7CE0107960E94FE22882389F016E057
:10494000809114049091E303891349C067960FB6D0
:10495000F894DEBF0FBECDBFDF91CF911F910895B8
:1049600086E0FE013796DE01119601900D928A9540
:10497000E1F78A859B85892B11F38F81988589239F
:104980008F3FE9F22091E30330E0C901019687707F
:104990009927409114044817190671F40E948D1646
:1049A0001092E3031092140486E0EDEDF3E0DF01D2
:1049B0001D928A95E9F7C3CF96E0929FD001939F0D
:1049C000B00D1124AC51BC4FFE01319601900D92F7
:1049D0009A95E1F78093E3030E945309B0CF819F3A
:1049E000C00111248C519C4F0E94FE22882309F49F
:1049F000ADCF8091140490E0019687709927809341
:104A000014049ECF2F923F924F925F926F927F92AB
:104A10008F929F92AF92BF92CF92DF92EF92FF92CE
:104A20000F931F93CF93DF9338EB832E31E0932EB8
:104A300004E714E0D801612CEE24E394F12CE401A6
:104A400089914E01E82FE295EF70F0E091A18F700F
:104A5000B70101C0660F8A95EAF7892F862B81A3DB
:104A600082A1B62EB0948B2182A3D0EADA95F1F719
:104A700022ECC22E21E0D22E50E040E020E0E60100
:104A800039916E01832F82958F7090E0EC0188A19F
:104A900090E03F7002C0959587953A95E2F780FDCA
:104AA00043C08E2D042E01C0880F0A94EAF7282BEC
:104AB0004F5F5F4F4630510511F781A18B2181A3D4
:104AC00082A1682B62A38C91281781F12C9381E03D
:104AD000682A1196DDEB8D16D1E09D0609F0AFCF67
:104AE000C0917F04662021F181E08093DB020E9467
:104AF000B9159093DA028093D9028091D9029091EE
:104B0000DA020E9437080697B8F0EC2FF0E0EB5776
:104B1000FB4FD8018D918D018193B4E009371B07BC
:104B2000C1F71092DB0208C080E0C1CF80E0D0CF97
:104B30008091DB028111E1CF0E940114882309F4E6
:104B400064C4C0917E0490E080E00E94FC30009735
:104B500009F469C08091E6028F5F8093E602863097
:104B600008F071C0C090DC02D090DD02E090DE025F
:104B7000F090DF028FB7F8942090460430904704FD
:104B800040904804509049048FBF520141018C1855
:104B90009D08AE08BF080E9446086093DC0270932F
:104BA000DD028093DE029093DF02A0914B04EBE4E0
:104BB000F4E02A2F30E0CFEFCC0EDC1EE11CF11C1C
:104BC000C218D308E408F508A31348C020934B0487
:104BD00030911A05D32FD3707D2E19F0732E769451
:104BE000769420916101213009F462C0222309F4F6
:104BF00048C0223009F4E1C3233009F4E7C3862D0D
:104C0000DF91CF911F910F91FF90EF90DF90CF90A8
:104C1000BF90AF909F908F907F906F905F904F90DC
:104C20003F902F900895EC2FF0E0EB57FB4FDC0105
:104C3000AF51BD4F2C912193019685309105B9F765
:104C40001092E6028FCFE0917E04F0E0EB57FB4F2D
:104C50001082118212821382148284CF418D528D70
:104C60001A01512C412CC214D304E404F50420F49D
:104C700021503F5F3296A8CF480D591D528F418F6A
:104C8000F8CF109262016093160570931705809318
:104C900018059093190589E2EBE4F4E0AFE1B5E083
:104CA00001900D928A95E1F781E080936101A7CF91
:104CB00090910501D1E079120AC0832F8370209171
:104CC000040130E0D1E08217130609F4D0E0D1707E
:104CD000D0936401E6E2E71540F0E72DF0E0E550FF
:104CE000FA4C0C94AE31D11102C0D0E023C040E0A8
:104CF00060E080E00E949909F8CFC09162018CE0E9
:104D0000C89FC02D11241CE01C0F012F1A3308F07E
:104D100009E360911B0570911C0580911D050E949F
:104D2000CB0CF62EE72ED82ED0E0C017A8F0D1E09D
:104D30001933D8F6809162018F5F80936201D1119F
:104D40005ECF82E08093610180916401811157CF31
:104D5000711055CF83E0A9CFFE01E258FD4F80814D
:104D600090916301892331F02D2D4F2D6E2DCE01B1
:104D70000E949B092196D9CFC09162018CE0C89F07
:104D8000C02D11241CE01C0F012F1A3308F009E379
:104D9000E0901C05F0901D05D0911B056D2F7E2D18
:104DA0008F2D0E94CB0CD62EC72EB82E60911E05DB
:104DB0006D0F7E2D8F2D0E94CB0CF62EE72EA82E88
:104DC000D0E0C01708F0B3CFFE01E258FD4F90814C
:104DD00080916301892359F02A2D4F2D6E2D90FD6E
:104DE00003C02B2D4D2D6C2DCE010E949B092196C9
:104DF000E8CFC09162018CE0C89FC02D11241CE057
:104E00001C0FF12E1A3310F099E3F92EE0901C05D7
:104E1000D0901D0520911E0500E4029F012D112454
:104E2000D0E0CF1508F083CFFE01E258FD4F80811E
:104E3000909163018923B9F0FE01EE0FFF1FE0534B
:104E4000FE4F85AD82958F7060911B05809F600D30
:104E500011247E2D8D2D0E94CB0C462F282F672FDD
:104E6000CE010E949B092196DCCFC09162018CE0AB
:104E7000C89FC02D11241CE01C0FF12E1A3310F016
:104E8000D9E3FD2EE0901C05D0901D0520911E0554
:104E900000E4029F012D1124D0E0CF1508F047CF88
:104EA000FE01E258FD4F8081909163018923D9F082
:104EB000FE01EE0FFF1FE053FE4F64AD069FB001F1
:104EC0001124B5E075956795BA95E1F780911B05BA
:104ED000680F7E2D8D2D0E94CB0C462F282F672F1B
:104EE000CE010E949B092196D8CFC09162018CE02F
:104EF000C89FC02D11241CE01C0F012F1A3308F08D
:104F000009E3F0901B05D0911C05E0901D05609110
:104F10001E05669566956695809116059091170514
:104F20000E94C10C0E944A0C805887FD8195880F11
:104F3000282F3E2D239F212D1124822F6F2D7D2F71
:104F40000E94CB0CF62EE72ED82ED0E0C01708F02A
:104F5000EECEFE01E258FD4F8081909163018923DE
:104F600031F02D2D4F2D6E2DCE010E949B092196E3
:104F7000EDCF85E59BE00E94D90FD82FDBCE8BE2E9
:104F80009BE0F9CF8CE29CE00E94790FF6CF8DE098
:104F90009CE0FACF82EF9BE00E94F80EEECF86ED08
:104FA0009BE0FACF89E29BE0E6CF80E29BE0E3CF93
:104FB00087E19BE0E0CF8EEF9AE0DDCF80EF9AE0D3
:104FC000EBCF89E99CE0E0CF85EC9BE0DDCF81EB86
:104FD0009BE0E2CF83EC9AE00E94960ECECF85E96B
:104FE0009AE0FACF8EE59AE0F7CFD1111EC060911A
:104FF0001E0520E1620F08F46FEF80911605909175
:1050000017050E94C10C6AE070E00E948631892B6E
:1050100009F06BCE0E94373269E370E00E949A314A
:10502000609163010E94A71485CEC09162018CE05B
:10503000C89FC02D1124ECE0FE2EFC0E0F2D89E33D
:105040008F1508F409E3D0E010E0C017D10734F061
:10505000D1E098E39F1508F06DCE47CE60916301D3
:10506000CE010E94A7142196F0CFD1111EC06091ED
:105070001E0520E1620F08F46FEF809116059091F4
:1050800017050E94C10C65E070E00E948631892BF3
:1050900009F02BCE0E94373269E370E00E949A310A
:1050A000609163010E94851445CEC09162018CE03D
:1050B000C89FC02D11247CE0F72EFC0E0F2DA9E314
:1050C000AF1508F409E3D0E010E0C017D10734F0C1
:1050D000D1E0B8E3BF1508F02DCE07CE6091630193
:1050E000CE010E9485142196F0CFC09162018CE020
:1050F000C89FC02D11246CE0462E4C0E142DECE3FD
:10510000E41508F41CE3DD2361F040E060E080E09A
:105110000E949909E5E9F3E08CE3DF011D928A958D
:10512000E9F7D0E0E12EF12C3AE0832E912C46E015
:10513000342E5AEA252ECE15DF0534F0D1E0BBE33C
:10514000B41508F0F7CDD1CDCE01B4010E949A314B
:105150006B015C013A9CC0013B9C900D1124FC0149
:10516000EB56FC4FE60FF71F508080539E4FFC011B
:10517000E60FF71F00810F3F51F110E0F801E258F0
:10518000FD4F808190916301892309F1252D35E53B
:10519000231B08F420E0622D621B70911C05222D58
:1051A000452D240F08F42FEF30911D05822F880F15
:1051B000820F8E5F282F239F212D1124822F0E9482
:1051C000CB0C462F282F672FC8010E949B09352D35
:1051D00041E0341B08F430E03A9CC0013B9C900D48
:1051E00011248B569C4FC80ED91ED6013C93219694
:1051F000A2CFDD2371F040E060E080E00E949909D9
:10520000E5E9F3E08CE3EF0119928A95E9F7109252
:10521000E002D0E0C0E088248A9480EDE82EF12CF2
:1052200090EC592E2FE2C22ED12C8E01912CFE0132
:10523000EB56FC4F5F018091E0028929A9F50E949D
:1052400037328535954084F5D5018C92F801E053CD
:10525000FE4FE081EF3FB1F0D801AB56BC4F2C912F
:10526000F0E0213D50F1205D330B529EC001539E72
:10527000900D1124B6010E948631262F4FEFCF01E9
:105280000E949B0993940A5F1F4FBAE09B12D3CFF1
:105290002196C630D10549F68091E0028F5F8D31AD
:1052A000B0F48093E00221CDF801EB56FC4F8081F1
:1052B00081508E3F58F68083C9CF289DC0011124AC
:1052C000B7010E948631462F20E060E0D8CF1092CF
:1052D000E00225EC33E089E06BE973E09EEFA5E99D
:1052E000B3E0F901893041F4D6964C91D6974F3FFF
:1052F00019F4D6969C93D69740814F3F11F4908332
:105300004683119631966A177B0761F781502650C4
:1053100031098111E4CFE9CC87E59AE00E94250E9E
:105320002CCE81E59AE0FACF80911F0521E0382F3D
:10533000321B08F430E0832F68E37AE00E945F0DAF
:105340001CCE68E37AE080E0F9CF80911F0521E070
:10535000482F421B08F440E0842F6DEF79E0EECF38
:105360006DEF79E0F0CF80911F0521E0382F321BDF
:1053700008F430E0832F6BEC79E0E0CF6BEC79E060
:10538000E2CF80911F0521E0482F421B08F440E046
:10539000842F63EB79E0D2CF63EB79E0D4CF8091B7
:1053A0001F0521E0382F321B08F430E0832F6DE910
:1053B00079E0C4CF6DE979E0C6CF70920501832F03
:1053C0008370809304010E94DA13C4CC40911605C7
:1053D0005091170560911805709119052FB7F89431
:1053E0008091460490914704A0914804B0914904EB
:1053F0002FBF841B950BA60BB70B4097A105B105DA
:1054000008F4FDCB10926101FACBE0917F04F0E04B
:10541000EB57FB4F90E080E02191DC01AF51BD4F95
:105420002C93019685309105B9F7E9CBCDB7DEB75E
:1054300062970FB6F894DEBF0FBECDBF84B7877FEB
:1054400084BF0FB6F894A89580916000886180931E
:105450006000109260000FBE80E890E00FB6F894F4
:1054600080936100909361000FBE85B7806885BF0F
:1054700085B7806885BF0E947B050E9446068091A3
:10548000E20084608093E200789480910C05882388
:10549000A1F01091E9001F709091EC00892F8170AC
:1054A00090FD80E8182B1092E9008091E80083FDC0
:1054B0000E94A2161F701093E90082E084BD93E061
:1054C00095BD9AEF97BD80936E000E940114809362
:1054D0000E010E940114882331F061E070E086E043
:1054E00091E00E941A3080910E0180910E0195E0AA
:1054F000811190E090937F0485E0891B80937E0466
:10550000A8EBB1E061E070E08D91E82FE295EF70DB
:10551000F0E041A18F709B0101C0220F8A95EAF74C
:10552000922F9095942391A382A1822B82A321E0B4
:10553000AD3BB20749F7A2ECB1E061E070E08D91BC
:10554000E82FE295EF70F0E041A18F709B0101C060
:10555000220F8A95EAF7922F9095942391A382A126
:10556000822B82A331E0A83CB30749F7E4E7F4E0DB
:10557000A5E8B4E011921D9244E0EE37F407D1F7AC
:1055800090E080E00E9424358C3E9E4F11F00E94F6
:10559000221410921F058FEF9FEF9093390580938F
:1055A000380590933B0580933A0590933D05809391
:1055B0003C0590933F0580933E0590934105809371
:1055C0004005909343058093420590934505809351
:1055D0004405909347058093460510924B049093A1
:1055E00065048093640490936704809366049093A9
:1055F00069048093680490936B0480936A04909389
:105600006D0480936C0490936F0480936E04909368
:10561000710480937004909373048093720490E0FB
:1056200080E00E9424358C3E9E4F21F00E9422147F
:105630000E94841545E050E06CE170E08AE195E05D
:105640000E940C3580911A058C7F11F40E948415FC
:1056500080911A05837011F41092610180911A05EE
:105660008C7F816080931A050E94ED140E940114C2
:10567000811106C061E070E086E091E00E94233075
:105680000E940114811182E08093C70480E8809316
:1056900048050E94CE2E6DE070E081EA93E00E9402
:1056A0001A13892BE9F58091C70463E070E081FD4E
:1056B000E2C08EE993E00E941A13892B89F56DE010
:1056C00070E08EE893E00E941A13892B49F50E943E
:1056D0004608605A75418F4F9F4F6093C90470937D
:1056E000CA048093CB049093CC04EBE4F5E080E013
:1056F00092E0DF019C011D9221503040E1F7F093D0
:105700005207E09351078FEF9FEF90934A058093E4
:10571000490581E08093CE048093CD041092C804A3
:1057200090E080E00E9424358C3E9E4F11F00E9454
:10573000221482E090E00E941C358093DC040E94D9
:105740006B13909381048093800483E090E00E9427
:105750001C35682F70E090E080E00E94831686E59B
:1057600091E09093830480938204DD24D394CC242D
:10577000CA9422242394312C80910C05853009F49D
:105780007DC00E940225B82E0E940114882309F4CE
:10579000B9C0ADEDB4E0E5E8F4E010E000E0302F92
:1057A00081919D91981709F4A7C0292F282790E08F
:1057B000FF24F394422F4F2109F499C09F83388727
:1057C0008F2191E009F490E099870E94B9158160DA
:1057D000782F9B878A874F81588569858B850E94A2
:1057E0007524F801E352FB4F8081F826F082809106
:1057F000CE04882309F42EC1EBE4F5E0F0935207C0
:10580000E09351070E940114882309F4FDC180919F
:10581000530790915407A0915507B09156078430D3
:105820009105A105B10509F4ECC108F07BC0009712
:10583000A105B10509F484C064E871E082309105E6
:10584000A105B10509F47EC0BF93AF939F938F93D9
:105850002FE931E03F932F931F9288E18F938FE8D8
:1058600094E09F938F930E946D320FB6F894DEBF41
:105870000FBECDBF6BC08BE993E01DCF80910C05AF
:10588000843021F11092840480E4A8E1B0E00FB6E6
:10589000F894A895A09360000FBE8093600083B732
:1058A000817F846083BF83B7816083BF789488954C
:1058B00083B78E7F83BF0FB6F894A8958091600060
:1058C000886180936000109260000FBE80910B058C
:1058D000882309F451CF0E940225E5E8F4E0819184
:1058E000811115C2B4E0EF38FB07C9F745CF9F5FC0
:1058F000FF0C963009F05ECF0F5F1F4F0A30110585
:1059000009F04DCFCC86CD861E860E94B9158160E8
:10591000782F988B8F874C855D856E8588890E944E
:10592000752465CF88309105A105B10531F08E3021
:105930009105A105B10509F087CF61E971E002C0C9
:1059400068E671E08FE894E00E9466328FE894E0A8
:105950000E94021381E00E94D012209149053091EB
:105960004A052115310509F457C08091C8048111F9
:1059700053C0082F10E07101082E02C0EE0CFF1C6E
:105980000A94E2F7A9014E215F21452B09F441C198
:105990009091C70490FD3FC18295880F80768093D7
:1059A00051019801369527953695279520935401F6
:1059B000815E809352011092550124E630E047E069
:1059C00050E06FE471E088E70E945F2F892B21F59A
:1059D000A80135E0440F551F3A95E1F78091C704BF
:1059E00080FD27C1455B5A4F04E610E020E230E01D
:1059F00060E488E70E94862F892B71F40E944A1385
:105A0000E094F0948091490590914A05E822F922AA
:105A1000F0924A05E09249058091CD048823D1F0A7
:105A20000E9446080091C9041091CA042091CB0439
:105A30003091CC04601B710B820B930B97FD0AC055
:105A400062E070E08EEA93E00E941A13892B11F451
:105A50001092CD04B1100E944A1386E0E5EDF4E007
:105A6000DE01119601900D928A95E1F7F090D7042E
:105A7000E090D8041091D9040091DA041092D70470
:105A80001092D8041092D9041092DA048F2D8E2926
:105A900009F448C08091D3049091D4040E9437083F
:105AA0009C019091D204992309F44CC12333310510
:105AB000C8F19F3F19F09F5F9093D204FF2059F0E7
:105AC0000E94AF079FEF1F140CF491E0899F802D77
:105AD00011248093D704EE2059F00E94AF079FEF66
