:100000000C9454020C949B020C949B020C94F20DE1
:100010000C949B020C949B020C949B020C949B02EC
:100020000C949B020C949B020C9470220C9444231D
:100030000C94371A0C949B020C949B020C949B0218
:100040000C949B020C949B020C949B020C949B02BC
:100050000C949B020C948E1A0C949B020C949B02A1
:100060000C949B020C949B020C949B020C949B029C
:100070000C949B020C949B020C949B020C949B028C
:100080000C949B020C949B020C949B020C949B027C
:100090000C949B020C949B020C949B020C949B026C
:1000A0000C949B020C949B020C949B0229001E0052
:1000B0001F002000210022002B0014001A0008005D
:1000C00015001700390004001600070009000A0097
:1000D000E1001D001B00060019000500E000000003
:1000E000E200295D2C0000002300240025002600EA
:1000F00027002D001C0018000C001200130028001F
:100100000B000D000E000F0033002800110010003E
:100110003600370052008700000028002A5D50009A
:10012000E7004F0035003A003B003C003D003E0038
:100130002B001E001F00200021002200E000040010
:100140001600070009000A00E1001D001B00060060
:1001500019000500E0000000E200295D2C0000000D
:100160003F0040004100420043004C0023002400B7
:1001700025002600270045000B000D000E000F0093
:100180002D0034002E008900360037005200310067
:1001900000002A002A5D500051004F0029001E0077
:1001A0001F002000210022002B001E021F0220023F
:1001B00021022202E00004001600070009000A00E4
:1001C000E1001D001B00060019000500E000000012
:1001D000E000295D2C0000002300240025002600FB
:1001E00027002A0023022402250226022F022F00C4
:1001F0000B000D00300231023300340089022E0260
:100200003000310038028702000028002A5DE60035
:10021000E700E400005C00000000000000000000B7
:1002200000000000000000000000C65C00000000AC
:100230000000C65C0000C35C000000000000B200CB
:1002400000000000000000000000295D0000000028
:1002500000000000000000000000C25C0000000080
:10026000000000000000000000000000C55C00006D
:10027000000000000000000000000000C95C000059
:10028000000000002A5DC85CCA5CC75C000000007A
:10029000000000002A2B28000000000000000000E1
:1002A0000000000000000029000000002C1E342087
:1002B000212224342627252E362D3738271E1F20AD
:1002C0002122232425263333362E37381F040506F2
:1002D0000708090A0B0C0D0E0F1011121314151636
:1002E0001718191A1B1C1D2F3130232D3504050634
:1002F0000708090A0B0C0D0E0F1011121314151616
:100300001718191A1B1C1D2F3130354C0000000026
:1003100000000000000000000000000000000000DD
:100320007E0F00D4FFFFFFC70000007804033000F9
:1003300000000C036F0077006E006C007900000075
:10034000120344006900770061006D006F007400C3
:100350006F0000000403090409025B00030100A010
:10036000FA09040000010301010009211101000143
:100370002240000705810308000A09040100020366
:10038000000000092111010001222200070582035B
:1003900020000107050303200001090402000103F6
:1003A00000000009211101000122810007058403DA
:1003B00020000A12011001000000086F7438350196
:1003C00000010203010660FF0961A1010962150035
:1003D00026FF009520750881020963150026FF009D
:1003E000952075089102C005010902A10185020945
:1003F00001A10005091901290515002501950575BB
:10040000018102950175038101050109300931154A
:1004100081257F95027508810609381581257F950C
:100420000175088106050C0A38021581257F9501A2
:1004300075088106C0C005010980A1018503190165
:100440002AB700150126B700950175108100C00577
:100450000C0901A101850419012AA002150126A099
:1004600002950175108100C005010906A10105076B
:1004700019E029E71500250195087501810295010C
:10048000750881010507190029FF150026FF009551
:100490000675088100050819012905950575019162
:1004A00002950175039101C011241FBECFEFDAE060
:1004B000DEBFCDBF04B603FE27C080917A029091C3
:1004C0007B02A0917C02B0917D028730904BA740C7
:1004D000B04BD1F410927A0210927B0210927C02FF
:1004E00010927D0214BE84B7877F84BF0FB6F89444
:1004F000A8958091600088618093600010926000F0
:100500000FBEE0E0F8E3099511E0A0E0B1E0ECE413
:10051000FBE402C005900D92A03AB107D9F722E0A2
:10052000A0EAB1E001C01D92AA37B207E1F70E942C
:10053000351F0C946D250C940000CF93FB018A327B
:100540002DE59207A9F08B322DE59207F1F0C1E07D
:1005500089329D45B9F4C28181E0CC2361F00E94CB
:10056000BC1643E062E081E00E942804C0E00AC0BB
:10057000C28182E0F2CF0E94DD1643E062E081E0BA
:100580000E9428048C2FCF910895C28183E0CC2350
:1005900019F00E94BC16EACF0E94DD16F3CF81E06D
:1005A00008950C949D0208950C94D3021F93CF9349
:1005B000DF9300D000D00F92CDB7DEB749835A83C6
:1005C0006B833091C20189819A8131111DC06623EC
:1005D000B9F02223A9F00E94AF17182F682F898144
:1005E0009A810E94581769817A81812F0F900F900C
:1005F0000F900F900F90DF91CF911F910C944D0AA7
:100600000E948617182FEFCF0E94AF1769817A8159
:10061000EDCFFC01262F408151816281738184815D
:100620000C94D602CF93DF93EC0160E00E940903A3
:10063000BE01DF91CF910C94D402FF920F931F93D0
:10064000CF93DF93E82FF0E0E457FD4FF490C82FED
:10065000C695C695C695D0E0FE01E45EFC4F0491B8
:10066000877010E0082E02C0159507950A94E2F7EE
:1006700001701127C45FDC4FFE01C491D0E002C0BD
:10068000D595C7958A95E2F7C170DD27011511054B
:1006900019F081EE0E94CD0F209719F086EE0E948E
:1006A000CD0F8F2D0E94B510CD2B19F086EE0E9434
:1006B0005F10012B41F081EEDF91CF911F910F91DF
:1006C000FF900C945F10DF91CF911F910F91FF90DD
:1006D0000895EF92FF920F931F93CF93DF93EC0156
:1006E000162F0AE08881882309F454C0813009F06C
:1006F0004EC08981813099F47E0122E0E20EF11C26
:100700008A810E94B510E7012196812F815050F314
:10071000EFE9FFE03197F1F700C00000F7CF82303A
:1007200041F47E0182E0E80EF11C8A810E94CD0F27
:10073000EACF833041F47E01E2E0EE0EF11C8A81C3
:100740000E945F10E0CF843011F02196DDCF2A8126
:10075000229690E080E0AE014F5F5F4F2053330B55
:100760002A30310548F0019778F2EFE9FFE0319740
:10077000F1F700C00000F7CF089FB001099F700D8E
:100780001124C901860F971F2981EA01E4CF0E9435
:100790001D03BACFDF91CF911F910F91FF90EF9082
:1007A000089560E00C9469038F929F92AF92BF927C
:1007B000CF92DF92EF92FF920F931F936B017C0118
:1007C00081E090E0A0E0B0E04C015D0104C0880C45
:1007D000991CAA1CBB1C4A95D2F7B501A4014C0177
:1007E0005D0104C0880C991CAA1CBB1C2A95D2F779
:1007F000482959296A297B2904C0880F991FAA1FF3
:10080000BB1F0A95D2F78A019B010C211D212E21C5
:100810003F21041715072607370789F48C299D29DE
:10082000AE29BF29BC01CD011F910F91FF90EF9020
:10083000DF90CF90BF90AF909F908F90089580955C
:100840009095A095B0958C219D21AE21BF21EACF36
:100850000F93382F262F60912302709124028091EC
:10086000250290912602042F432F0E94D4030F915A
:100870000C9496160E94C51A0E94EC18811102C0B1
:100880000E9489190C947C060C947F0608950C94A0
:10089000460481E008950C944904CF93C82F0E9428
:1008A00047048C2FCF910C944B0408950E9437136A
:1008B0000E9455042FEF84E39CE02150804090403B
:1008C000E1F700C000000C94B21A0F931F93CF936E
:1008D000DF93EC0161E00E9409038C01BE010E94DC
:1008E0008408882359F1BE01C8010E94D1028823DF
:1008F00029F1BE01C8010E94A30B8823F9F0BE01B3
:10090000C8010E94F50B8823C9F0BE01C8010E94EE
:10091000180D882399F08A81882339F001158CE518
:10092000180751F00E3D1C4579F0CE01DF91CF91B3
:100930001F910F910C94CF020E94560480E0DF912A
:10094000CF911F910F9108950E948919F7CFCF93EE
:10095000DF930E944D0A0E94A105EC01811521E55B
:10096000920708F042C0811530E5930708F09DC05A
:10097000883E910530F5803E910508F092C0883A96
:10098000910588F4853A910508F084C0813091057D
:1009900009F487C0009709F484C0049708F081C067
:1009A000D0E0C0E07EC08F3B9105D0F7C85AD0E0C0
:1009B000CC0FDD1FC25EDE4F0990D881C02DD464FC
:1009C00070C08115904250F4C11581E0D80708F03D
:1009D00068C0C03FD10520F3D06563C0C11590E465
:1009E000D907F0F2DF70D06A5CC0811525E5920767
:1009F00000F5811534E5930708F08BC0811543E5B8
:100A0000940708F073C0C11582E5D80708F469C0DF
:100A1000CE018370992721E030E002C0220F331FFE
:100A20008A95E2F7C695C69580E2C89FE001112439
:100A300054C0C11599E5D907A8F4C11528E5D20716
:100A400008F06CC0C11536E5D30708F0A9CF8C2F8C
:100A50000E943806C82FD0E0DC2FCC27CC27DF71CE
:100A6000D0621FC0C1154AE5D40708F45CC0CE01AE
:100A700090568115904208F093CF8D2F8F710E9470
:100A8000380690E0982F882788279F719C012C2B8F
:100A9000E901E6CFC55AD0E0C45BDE4FC881D0E0A3
:100AA000D064CE01DF91CF910895E4E096958795CB
:100AB000EA95E1F783702C2F26952695237040E266
:100AC000249F90011124382B8C2F8370C1E0D0E03B
:100AD00002C0CC0FDD1F8A95E2F7C22BD32BDC6856
:100AE000E0CFDC2FCC27C16FD06ADBCF8370992792
:100AF00021E030E002C0220F331F8A95E2F7C6954D
:100B0000C69590E2C99FE0011124C22BD32BDA686D
:100B1000C8CFD82FCC27C46FD06AC3CFDC2FCC2747
:100B2000C06FD06ABECF8C2F8F700E94380634E021
:100B3000D695C7953A95E1F7CF709C2FEC01D06917
:100B4000B0CF82389105B1F1B0F48133910509F449
:100B500075C048F48932910509F469C08A3291055B
:100B600009F473C008958533910509F459C0893398
:100B7000910501F10895833E9105A9F138F4803E75
:100B80009105F9F0823E910549F10895863E91055F
:100B9000A9F1873E9105C9F1843E910519F520918F
:100BA0006C0221FF1FC080916B0284FD14C087EE90
:100BB00090E0089520916B022370A1F080EE90E008
:100BC000089520916B0220FD47C030916C0230FFE8
:100BD00009C024FF44C090E080E004C020916B0273
:100BE00022FDF7CF089520916B0222FD3BC030918A
:100BF0006C0230FDE3CF24FFF5CFEDCF20916B02E7
:100C000023FFF0CF24FDE7CFD2CF20916B0223FD4D
:100C10002CC030916C0231FFEECF84EE90E008954D
:100C200020916B0225FFDECF89E290E008952091AC
:100C30006B0225FFD7CF85E390E0089520916B02EA
:100C400026FFD0CF8AE290E0089520916B0226FF24
:100C5000C9CF81E390E0089589E390E0089583EEA1
:100C600090E0089582EE90E0089586EE90E0089579
:100C700090916B0292FF06C0282F28712830F9F45A
:100C8000877F846093FF06C0282F28712831F1F4F4
:100C9000877E846120916C0220FF06C0382F387156
:100CA0003830D9F4877F816021FF06C0282F287152
:100CB0002831D1F4877E816194FD877E0895282FA5
:100CC00024712430F9F68B7F8860DCCF282F2471C3
:100CD000243101F78B7E8861DDCF382F31713130BF
:100CE00019F78E7F8860E0CF282F2171213121F7FD
:100CF0008E7E8861E1CF08950C947B0608950C9454
:100D00007E06E82FF0E0E55AFD4F808108950895B2
:100D100080EA8A95F1F7089508950E94E807809186
:100D200000018091000195E0811190E090936602AE
:100D300085E0891B80936502A5E5B1E061E070E084
:100D40008D91E82FE295EF70F0E041A18F709B014B
:100D500001C0220F8A95EAF7922F9095942391A3D0
:100D600082A1822B82A381E0AA35B80749F7AFE4BC
:100D7000B1E061E070E08D91E82FE295EF70F0E076
:100D800041A18F709B0101C0220F8A95EAF7922F33
:100D90009095942391A382A1822B82A381E0A53513
:100DA000B80749F7E1E5F2E0ABE5B2E08BE592E0A8
:100DB00011921D928E179F07D9F785E00E94930725
:100DC0000E943A040C94F2070E94CA078823F9F0A3
:100DD0008091650290E0855A9D4F0E94050881111F
:100DE00013C08091A0018F5F8093A001863050F0E6
:100DF000E0916502F0E0E55AFD4F10821182128207
:100E0000138214820C9444041092A001FBCF8091B1
:100E1000660290E0855A9D4F0E941E080C948C0635
:100E20008F929F92AF92BF92CF92DF92EF92FF92FA
:100E30000F931F93CF93DF9385E5A82E81E0B82E03
:100E400001E512E0912CCC24C394D12CF5018191C1
:100E50005F01C82FC295CF70D0E099A18F70760145
:100E600001C0EE0C8A95EAF7892F8E2989A38AA101
:100E70008E2C809488218AA30E948806EFE4F1E0FA
:100E800050E040E020E03191A32FA295AF70B0E098
:100E900090968C9190E03F7002C0959587953A9519
:100EA000E2F780FD3CC08C2D042E01C0880F0A940F
:100EB000EAF7282B4F5F5F4F4630510521F789A194
:100EC000882289A28AA1E82AEAA2F801808128174B
:100ED00041F1208381E0982A0F5F1F4FFAE5AF169A
:100EE000F1E0BF0609F0B2CF6091660270E0655A8A
:100EF0007D4F292D45E081E592E00E9494070E94F4
:100F0000E406892DDF91CF911F910F91FF90EF9013
:100F1000DF90CF90BF90AF909F908F90089580E02A
:100F2000C8CF80E0D8CF0895FF920F931F93CF933F
:100F3000DF93F82E092F162FD72FC42F222349F025
:100F400081E08093A3010E94671A9093A20180938D
:100F5000A1018091A3018823A1F08091A10190912A
:100F6000A2010E947F1A069760F0EF2DF02FA12FAB
:100F7000BD2FCE0FDF2FD11DEC17FD0741F41092CE
:100F8000A301DF91CF911F910F91FF90089581915F
:100F90008D93F2CF8091A401811111C08091D8006E
:100FA00080618093D8008AE18A95F1F700C0909122
:100FB000D900892F817090FF82E08093A40181E0A5
:100FC0009091A401913009F080E008950C94CA0733
:100FD0000E94E607809300010E94CA0781110C94C9
:100FE000F90708950E94CA07811102C00C94FF07F7
:100FF000089561E070E081E091E00C94A30D61E060
:1010000070E081E091E00C94AA0DCF93DF93D82F8C
:10101000C92F0E94440E009779F4ED2FFC2FDC01BC
:10102000AA55BE4F2C912193019685309105B9F7B1
:1010300081E0DF91CF91089580E0FBCF30E020E0A8
:10104000FC014191CF01F901EA55FE4F40832F5F2A
:101050003F4F25303105A1F7089582E290E00E94CC
:101060002B25813289F483E290E00E942B25833086
:1010700059F484E290E00E942B2591E0823009F03F
:1010800090E0892F8170089580E0FCCFCF93C82F26
:101090006FEF811161E282E290E00E9439256FEFEB
:1010A000C11163E083E290E00E9439256FEFC11126
:1010B00062E084E290E0CF910C94392580E00E94B8
:1010C00046080C94E618089585E290E00E942B25CE
:1010D000682F70E090E080E0089585E290E00C9445
:1010E00039250E9463080E942D0881110CC060E020
:1010F00070E0CB010E946D080E94C5090E94B10AF0
:1011000081E00C9446080895CF93FB01C281CC2363
:1011100009F19C0122513F452031310520F58251D2
:101120000E94C10AC0E08C2FCF91089581E00E94F7
:10113000BC1643E062E081E00E942804F3CF81E026
:101140000E94DD1643E062E081E00E942804EBCFBC
:1011500082E0F6CF8031FFE59F0789F381319F451B
:10116000B9F3C1E0E0CF8031EFE59E07F9F28131BC
:101170009F45C9F682E0DBCF2FEFFC012083089565
:10118000EF92FF920F931F93CF93DF93EC01062F03
:10119000E881E150E33108F05EC0F0E0E159FA4D3A
:1011A0000C940A25198289E08A83602FCE01DF9191
:1011B000CF911F910F91FF90EF900C94291E898180
:1011C000823069F0833071F08130D9F40E94731A53
:1011D0000E9410256A837B838C839D83E6CF0E94C7
:1011E0006408F6CF7E0122E0E20EF11C10E0812FB0
:1011F0000E948106F70181937F011F5F1A30B9F7C2
:10120000D4CF602FCE010E94BC08CFCF898182301D
:10121000C1F76A817B818C819D810E9410250E948B
:101220006D08C3CF4B816A8189810E9497099827F5
:10123000892798279D838C83B8CF2C813D813227C5
:10124000232732274B816A8189810E94B009ADCF63
:101250000E94C509AACF8FEF8883A7CF0E945A0AA0
:101260008983A3CF0E945C0A9827892798279A83AD
:1012700089839BCF6B8170E089819A81AE014C5F3D
:101280005F4F9827892798270E945F0A8ECF6B812E
:1012900070E089819A81AE014C5F5F4F9827892762
:1012A00098270E94860A81CF0E94B10A7ECF0E94B1
:1012B0008509D6CF6B8170E089819A81AE014C5F40
:1012C0005F4F9827892798270E94FD096ECF6B8171
:1012D00070E089819A81AE014C5F5F4F9827892722
:1012E00098270E94230A61CF0E945E085ECF0E9469
:1012F000291EFFEF21EE84E0F15020408040E1F70D
:1013000000C000000E94B21A50CF84E0089550E05F
:10131000440F551F9CE0699F400D511D112498E713
:10132000899F400D511D1124CA01869608950F937F
:101330001F93CF93DF930E9487098C010E942B2576
:10134000C82FD0E0DC2FCC27C80101960E942B25A6
:101350009E01282BC901DF91CF911F910F91089514
:101360000F931F93CF93DF93122F032F0E948709B0
:10137000EC01602F0E943925612FCE010196DF918B
:10138000CF911F910F910C943925AF92BF92CF92BC
:10139000DF92EF92FF921F93CF93DF938CEAC82ED8
:1013A00080E0D82ED0E07601C0E014C0F501259190
:1013B0003491412F6C2F8D2F0E94B00982E0A80E2E
:1013C000B11C1F5F163091F78CE0E80EF11CCF5F67
:1013D000CA3019F0570110E0E9CFDF5F88E7C80E87
:1013E000D11CD43001F7DF91CF911F91FF90EF9086
:1013F000DF90CF90BF90AF900895EF92FF920F9340
:101400001F93CF93DF93EC018A017C01E60EF71E58
:10141000CE018696CE15DF0539F4DF91CF911F916D
:101420000F91FF90EF900895C03E21E0D20740F465
:101430000E942B25F80180830F5F1F4F2196E8CF74
:10144000F8011082F9CFCF92DF92EF92FF920F93C3
:101450001F93CF93DF937C016A018C01060F171F46
:10146000EC01CE018696C017D10749F4DF91CF91E8
:101470001F910F91FF90EF90DF90CF900895C03EA5
:1014800021E0D20740F4FE01EE19FF09EC0DFD1D2D
:1014900060810E9439252196E4CF462F843038F4AC
:1014A0007A3028F4663018F4672F0C94970990E08E
:1014B00080E0089580E108958AEF91E00895EF9229
:1014C000FF920F931F93CF93DF93EC018A017C016E
:1014D000E60EF71ECE018A5F9D4FCE15DF0539F46B
:1014E000DF91CF911F910F91FF90EF900895CA3F28
:1014F00021E0D20740F40E942B25F80180830F5F82
:101500001F4F2196E7CFF8011082F9CFCF92DF92DB
:10151000EF92FF920F931F93CF93DF937C016A01A9
:101520008C01060F171FEC01CE018A5F9D4FC0177B
:10153000D10749F4DF91CF911F910F91FF90EF9068
:10154000DF90CF900895CA3F21E0D20740F4FE011A
:10155000EE19FF09EC0DFD1D60810E9439252196D1
:10156000E3CFCF93DF93C6E0D2E060E0CE010E94EC
:1015700039252196C11584E0D807B9F7DF91CF91BD
:101580000895DF92EF92FF920F931F93CF93DF9313
:1015900000D000D0CDB7DEB7F82E8FE08F1540F029
:1015A0008FEF93E00E942B2506E012E08823C1F024
:1015B0000F900F900F900F90DF91CF911F910F918F
:1015C000FF90EF90DF900895011584E0180781F3F4
:1015D000C8010E942B25811101C0FA940F5F1F4F93
:1015E000F110F2CF19821A821B821C82DD24D3945F
:1015F00078018FEFE81AF80AC8010E942B25898329
:101600001A828823A9F29FEF980F933078F48A8387
:10161000D9820E5F1F4FC7010E942B258B83882321
:1016200039F2CE0101960E94D103E2CF8701F9CFB2
:10163000AF92BF92CF92DF92EF92FF920F931F93E0
:10164000CF93DF937C015B01C42FD22FFC018281F9
:101650008823F9F04093AD010E94671A9093AC0182
:101660008093AB0180E28C0F883008F061C0C770B6
:1016700081E001C0880FCA95EAF7DF91CF911F91F1
:101680000F91FF90EF90DF90CF90BF90AF900C94B0
:10169000C8101091AD01141340C08091AB0190911E
:1016A000AC010E947F1A6C01B701C5010E94AD1503
:1016B000C816D90690F5C0E2CD0F1D17B9F080E22B
:1016C000810F883040F4177081E001C0880F1A95AF
:1016D000EAF70E94CF10C83048F481E09D2F977040
:1016E00001C0880F9A95EAF70E94C810802F0E94C7
:1016F000B510C830E8F4D77081E001C0880FDA95E2
:10170000EAF7DF91CF911F910F91FF90EF90DF905B
:10171000CF90BF90AF900C94CF1080E28C0F8830A8
:1017200038F4C77081E001C0880FCA95EAF7E9CFA5
:10173000DF91CF911F910F91FF90EF90DF90CF90AD
:10174000BF90AF9008950F939C01CB01233F4CE5D0
:10175000340759F1A8F4283DFCE53F0701F1293D84
:101760004CE53407D1F1273D3C4591F406E221EEEA
:1017700041EE67ED7CE50E94180B80E00F91089523
:10178000253FFCE53F07E9F0B0F0263F3C45F9F086
:10179000FC018281882339F11092AD01EFCF07E27D
:1017A00025EE45EE68ED7CE5E6CF06E221EE40EE63
:1017B00063EF7CE5E0CF07E225EE44EE64EF7CE5E5
:1017C000DACF06E221EE42EE65EF7CE5D4CF07E208
:1017D00025EE46EE66EF7CE5CECF08E221E045EE51
:1017E00069ED7CE5C8CF81E0C9CFCF93DF93EC01F1
:1017F000FB018281882309F419C1C230FCE5DF07AF
:10180000C0F1C6319CE5D90730F09E012A5F3C4506
:101810002930310570F50E94FF1890936C02809377
:101820006B02C031ECE5DE0709F4CFC008F05BC005
:10183000C8308CE5D80709F4B6C088F5C430ECE5AB
:10184000DE0709F4A8C0C0F4C2308CE5D80709F45B
:101850009CC080916B028260C330DC4509F498C063
:1018600080916B0290916C020E940D190E943713B7
:1018700080E0DF91CF91089580916B028061C63046
:10188000ECE5DE0709F484C080916B028860C73004
:10189000DC4508F47DC080916B02806279C0CC3059
:1018A0008CE5D80709F489C070F480916B028C60D4
:1018B000CA30ECE5DE0709F46BC008F478C080910B
:1018C0006B028E7F65C0CE308CE5D80709F479C0F5
:1018D00080916B028B7FCF30DC4508F459C080913A
:1018E0006B028F7E55C0CB3FECE5DE0709F457C095
:1018F00030F5C3318CE5D80709F46FC078F4C131F5
:10190000ECE5DE0709F465C0C231DC4509F0A8CF7B
:101910000E94371380916B028F773AC0C5318CE5F6
:10192000D80709F462C008F476C080916C02816027
:10193000CA3FDC4509F094CF80936C0291CFCF3F32
:10194000FCE5DF0709F44DC088F480916C028D7FBF
:10195000CD3F9CE5D90781F380916C028E7FCE3F0D
:10196000DC4550F380916C028360E6CFC130FDE529
:10197000DF0709F459C008F444C080E0C230DD45F7
:1019800009F06ECF0E948B196BCF80916B02816042
:1019900080936B0265CF80916B028460F9CF809158
:1019A0006C028260C9CF80916B028064F1CF0E948B
:1019B000371380916B028068EBCF80916B028D7F33
:1019C000E7CF80916B02877FE3CF80916B028F7DA1
:1019D000DFCF80916B028F7BDBCF80916B02837FA7
:1019E000D7CF80916C028C7FA7CF80916B0282FB56
:1019F000992790F921E0922790FB82F990FB83F9D7
:101A0000C7CF80916C02982F909591708E7F892B13
:101A100090FB81F991CF0E94371390916B02892F2F
:101A200097FB87F98058B4CF81E0ACCF81E021CF1C
:101A3000CF93DF93EB0186319C4511F50E9444184A
:101A40009A81992399F08A7A91E009F490E0909331
:101A5000AE01811109C089E20E941F180E948318FB
:101A600080E0DF91CF91089585E3F6CF8091AE01BC
:101A7000811104C089E20E942618F0CF85E3FBCFD4
:101A800081E0EFCF8EE14A9B02C08150E1F74A9B93
:101A9000FECF08955A9880E28A95F1F75A9A0895F0
:101AA000FC013BE03A95F1F798E020E080E031E07E
:101AB00040E14A95F1F7880F4A9B02C081602327D5
:101AC00042E04A95F1F7000040E14A95F1F7915064
:101AD00079F790E19A95F1F799B132E03A95F1F7FB
:101AE000000040E14A95F1F792FB992790F992277F
:101AF0002081920F90830895EF92FF920F931F938E
:101B0000CF93DF930F92CDB7DEB719828C017C01A2
:101B1000E60EF11C0E151F0561F481E0998191110B
:101B200080E00F90DF91CF911F910F91FF90EF9088
:101B300008950E94420DCE0101960E94500DF801B9
:101B400081938F01E7CF9093B0018093AF01529AB8
:101B50005A9A08959093B0018093AF0152985A9A7F
:101B6000EA9AE9E6F0E080818F7C808308956150F5
:101B7000770B91E001C0990F6A95EAF720E031E018
:101B8000911108C0222391F05A9A80E28A95F1F7C8
:101B90005A980895492F482339F05A9A232740E24A
:101BA0004A95F1F79695ECCF5A98F9CF5A98EDCF20
:101BB000FF920F931F93CF93DF93EC018C01060FDD
:101BC000111DC017D10731F4DF91CF911F910F91F3
:101BD000FF900895F9900E944A0D68E08F2D0E94B1
:101BE000B70DEFCF1F920F920FB60F9211242F93C4
:101BF0003F934F935F936F937F938F939F93AF9395
:101C0000BF93CF93DF93EF93FF935A98529AC0916B
:101C1000AF01D091B0016D81662321F08E819F814B
:101C20000E94D80D0E944A0D80E18A95F1F75A98DA
:101C300052985A9A80E18A95F1F76A81662309F1F0
:101C40008B819C810E947C0DE881F981882311F0B1
:101C500088E001C082E080830E94420DFF91EF91F5
:101C6000DF91CF91BF91AF919F918F917F916F91B4
:101C70005F914F913F912F910F900FBE0F901F904A
:101C80001895E881F981E4CFCF93DF93C091AF013C
:101C9000D091B001F894529A5A9885E08A95F1F75C
:101CA000000052985A9A80E28A95F1F74A9B0CC03C
:101CB000529A5A9AE881F98181E08083789481E090
:101CC00090E0DF91CF9108956D81662381F08E8140
:101CD0009F810E947C0D81110AC0529A5A9AE88114
:101CE000F98182E08083789482E090E0EACF0E94DC
:101CF000420D80E28A95F1F75A98529A80E18A95CE
:101D0000F1F76A81662321F08B819C810E94D80DB6
:101D10000E944A0DE881F9811082789490E080E079
:101D2000D0CF9093B6018093B5010895E091B501AD
:101D3000F091B601309721F00190F081E02D0994E7
:101D400080E00895E091B501F091B601309721F05F
:101D50000280F381E02D09940895E091B501F0919E
:101D6000B601309739F022E0DC012C930480F58134
:101D7000E02D099408952091B3013091B401281702
:101D8000390771F09093B4018093B301E091B501EC
:101D9000F091B601309721F00680F781E02D09948B
:101DA00008952091B1013091B2012817390771F0DF
:101DB0009093B2018093B101E091B501F091B60129
:101DC000309721F00084F185E02D0994089585B7BE
:101DD000806885BF85B7806885BF08950895089598
:101DE0000C94EE0E08950C94F20E0E94E70E0E94E1
:101DF000EF0E0C94F00E0C94CA070E945E1A0E941B
:101E00008D060E9471080E94D91A0C94F30EBF929D
:101E1000CF92DF92EF92FF920F931F93CF93DF93B6
:101E2000CDB7DEB72A970FB6F894DEBF0FBECDBF91
:101E30000E9410070E94FB0E882309F45EC088EB05
:101E4000C82E81E0D82E10E000E0B02E802F0E9436
:101E50008106E82EF601F1906F01F81609F447C0EB
:101E60008091380281FD0E9487069F2D9E2580E08B
:101E7000FF24F394292F2F21B1F18E83BF82EF200D
:101E800081E009F480E088870E94671A8160782FDA
:101E90009A8789874E815F8168858A850E949E0F17
:101EA000F801E854FE4F8081F826F0820E94841CDD
:101EB0000E94960E9091B701891781F10E94960EAB
:101EC0008093B7012A960FB6F894DEBF0FBECDBF40
:101ED000DF91CF911F910F91FF90EF90DF90CF9006
:101EE000BF900C944D048F5FFF0C863019F60F5F86
:101EF0001F4F0A30110509F0A8CF8FEF89838A831D
:101F00001B820E94671A8160782F9D838C83498190
:101F10005A816B818D810E949E0FC8CF2A960FB681
:101F2000F894DEBF0FBECDBFDF91CF911F910F910F
:101F3000FF90EF90DF90CF90BF900895CF93DF9305
:101F4000CDB7DEB72B970FB6F894DEBF0FBECDBF6F
:101F50004F83588769877A878B871E821D8285E029
:101F6000FE013796DE01119601900D928A95E1F7F8
:101F700049815A816B817C818D819E812B960FB620
:101F8000F894DEBF0FBECDBFDF91CF910C94B0159A
:101F9000FC01808191810C94F117CF93C82F882385
:101FA00009F48BC08238C1F40E94960E81FD85C071
:101FB00089E30E941F180E9483182FEF81EE94E09E
:101FC000215080409040E1F700C0000089E30E946A
:101FD0002618CF910C9483188338A1F40E94960E92
:101FE00080FD6BC083E50E941F180E9483182FEFAD
:101FF00081EE94E0215080409040E1F700C0000065
:1020000083E5E5CF8438A1F40E94960E82FD55C089
:1020100087E40E941F180E9483182FEF81EE94E03E
:10202000215080409040E1F700C0000087E4CFCF0E
:102030008CEF8C0F813A90F46C2F80910901909174
:102040000A010E94A219882329F08C2F0E942618C9
:102050000E9483188C2F0E941F18BBCF80E28C0F28
:10206000883048F4C77081E001C0880FCA95EAF74C
:102070000E944718AECFEBE5EC0FE33040F4F0E000
:10208000E357FE4F808190E0CF910C94BB0EE8E5C2
:10209000EC0FE73150F4F0E0EE0FFF1FE15AFE4F76
:1020A00080819181CF910C94D10EC03F30F08C2F64
:1020B0000E947E1BCF910C94691CCF9108958823B8
:1020C00009F452C0823871F40E94960E81FF4CC010
:1020D00089E30E941F180E94831889E30E94261832
:1020E0000C948318833859F40E94960E80FF3CC0EC
:1020F00083E50E941F180E94831883E5EFCF843880
:1021000059F40E94960E82FF2FC087E40E941F1888
:102110000E94831887E4E2CF9CEF980F913AF0F287
:1021200090E2980F983050F4877091E001C0990FB9
:102130008A95EAF7892F0E944D18D2CF9BE5980F18
:10214000933020F490E080E00C94BB0E98E5980F5B
:10215000973120F490E080E00C94D10E803F20F085
:102160000E94E61B0C94691C0895CF93C82F0E940F
:10217000CD0FC93349F42FEF87EE93E02150804013
:102180009040E1F700C000008C2FCF910C945F10BD
:10219000882321F00E9447180C94831808958823FF
:1021A00021F00E944D180C9483180895BF92CF928D
:1021B000DF92EF92FF920F931F93CF93DF936C0107
:1021C000D62FC72FFC01058102950F7012811111C6
:1021D0000E9464180E943D18E82E882391F0112374
:1021E000E9F08C2F807F803421F080E28D0F8830E1
:1021F000A8F082E00E94CE180E943D1891E0E82EDF
:10220000E926BC2EB2949FE0B922FBE0FB15A8F1B1
:10221000EB2DF0E0EE57FA4D0C940A25E12CF1CFAE
:102220000C2F0F70C07F11F00295007F1123A9F0D1
:10223000002359F080E28D0F883010F0D11109C0D1
:10224000802F0E9447180E9483188D2F0E94CD0F67
:1022500014C0802F0E945718F6CF8D2F0E945F1058
:10226000002359F080E28D0F883010F0D1112CC07E
:10227000802F0E944D180E9483182B2D2850330B5D
:102280002430310520F40E94960E0E944D04EE2069
:1022900009F48EC10E94391880FD8AC1F6011282AC
:1022A0000E9433180E94BC16C6010E94F9120E94B7
:1022B0003318DF91CF911F910F91FF90EF90DF9036
:1022C000CF90BF900C94DD16802F0E945D18D3CF65
:1022D0002C2F2F70F22EC07FC03219F0F29480EFB5
:1022E000F822DD2369F0D13049F1112391F1002367
:1022F00051F1F601858180FFA8CF8F70858323C0BF
:10230000112381F0011106C00E946A188F290E94D2
:10231000C810B3CF0130C1F70E946A188F290E94FC
:102320007018ABCF011106C00E9479188F2D0E9442
:10233000CF10A3CF013009F4A0CFF6CF112329F09D
:10234000063008F09ACF8F2DE2CF053008F095CFF8
:10235000EDCF002359F3D93349F4FFEF27EE33E0F3
:10236000F15020403040E1F700C000008D2F0E9466
:102370005F1083CF8C2F86958695837069F08130AE
:1023800009F07BCF8D2F9C2F9370111102C090E02C
:1023900080E00E94D10E71CF8D2F9C2F9370111170
:1023A00002C090E080E00E94BB0E67CF8D2F11230A
:1023B00029F00E947E1B0E94691C5FCF0E94E61BD1
:1023C000FACF8C2F837009F041C0111156CF4D2FD9
:1023D000429546954770440F440F0D2F0F7010E043
:1023E00030E020E0042E04C0000F111F221F331F15
:1023F0000A94D2F760E070E0CB01D4FF0FC06FE029
:1024000070E080E090E004C0660F771F881F991F7E
:102410004A95D2F76095709580959095C695C6952A
:10242000C370602B712B822B932BC23049F058F470
:10243000C13019F00E946E1620CF0E945C161DCF8D
:102440000E9480161ACF0E945A1617CF8695112324
:1024500011F08C2F8170882309F40FCF4D2F4295F6
:1024600046954770440F440F0D2F0F7010E030E079
:1024700020E0042E04C0000F111F221F331F0A94F6
:10248000D2F760E070E0CB01D4FF0FC06FE070E0E6
:1024900080E090E004C0660F771F881F991F4A955F
:1024A000D2F76095709580959095C695C695C37046
:1024B000602B712B822B932BC23049F058F4C13022
:1024C00019F00E943317D9CE0E942117D6CE0E9450
:1024D0004517D3CE0E949616D0CECF70112329F087
:1024E0008C2F0E94BC168D2F12CF8D2F0E94CF10E3
:1024F0008C2F0E94DD16C1CED23F89F160F4D03F0F
:10250000C9F0D13F29F1112309F442C001119DCE38
:102510008C2F8F7121C0D33F39F1D43FA1F7112304
:1025200069F1CF718C2F0E94BC1663E08C2F0E9442
:10253000B918A3CE112341F0053008F09ECE8C2FA0
:102540008F710E94001799CE063008F096CEF7CF13
:102550008C2F8F71112369F20E94BC168ECE8C2FA6
:102560008F711123C9F3C5CF112329F08C2F8F71DF
:102570000E94A71682CE0E94A2167FCE81E00E9402
:10258000CE18023008F479CE82E00E94CE1875CEC3
:10259000002359F0D93309F0E9CE8FEF97EEE3E04D
:1025A00081509040E040E1F7DFCE8C2F8F71A1CFBA
:1025B000DF91CF911F910F91FF90EF90DF90CF901F
:1025C000BF9008950F931F93CF93DF93EC01688121
:1025D00079818A810E94FB178C010E9457170E9403
:1025E0005916B801CE01DF91CF911F910F910C9434
:1025F000D610CF93DF93EC018B819C81892B29F03E
:102600008881998189238F3F59F4DF91CF91089573
:10261000CE010E94E212CE01DF91CF910C94120301
:10262000CE010E9465048111F3CF0E943D188823DA
:1026300061F38A81882349F382E0DF91CF910C9482
:10264000CE180E9464180E9467180E9483180E9486
:10265000901D0E94691C90E080E00E94BB0E90E0FB
:1026600080E00C94D10E0E942D180C9421130E942E
:1026700054180C943313E92FE295EF70E250EE30CA
:1026800070F4F0E0E257FA4D0C940A25803F19F0FF
:1026900020F4883E20F481E00895843FE1F380E057
:1026A0000895883EC0F3813FD1F7F5CF93FB88278B
:1026B00080F908950E94F1170C943B13CF93DF9398
:1026C00000D000D00F92CDB7DEB70F900F900F90D3
:1026D0000F900F90DF91CF910895CF93DF9300D0AB
:1026E00000D000D0CDB7DEB726960FB6F894DEBF87
:1026F0000FBECDBFDF91CF9108951F93CF93DF938E
:10270000C091C30116E08091C4018C1304C0DF9115
:10271000CF911F910895D0E01C9FF0011D9FF00DF7
:102720001124EB53FE4F408151816281738184817A
:1027300095810E946D132196C770E5CF4091F501F8
:102740005091F6016091F7017091F8018091F901C3
:102750009091FA010C946D131F93CF93DF938091A6
:10276000FA01807FA9F48091F701882389F0809194
:10277000C301C091C4016091F5017091F601A0916F
:10278000F801B091F901D62FD72316E0C81304C081
:10279000DF91CF911F91089590E0109711F0DF3FE6
:1027A00019F401968770F2CF189F9001199F300D90
:1027B0001124F901EB53FE4F41814713F2CF4081C1
:1027C0004613EFCF42814111ECCF438154814A1B24
:1027D0005B0B483C510528F78091FA018F708061AE
:1027E0008093FA01F901E653FE4F80818F7080617A
:1027F000808385EF91E00E94F912DF91CF911F91C4
:102800000C947D13AF92BF92CF92DF92EF92FF9222
:102810000F931F93CF93DF93CDB7DEB761970FB6BA
:10282000F894DEBF0FBECDBF8C0185E0F801DE015C
:102830001D9601900D928A95E1F7F8014081518132
:10284000E28085EFC82E81E0D82E6091F80170916A
:10285000F9016115710509F461C19091F5012091AB
:10286000F601892F82238F3F09F458C1A380B480D9
:10287000F090F701F501E61BF70BFF2009F4FCC00F
:102880008091FA01382F307FE83CF10508F0B2C0A2
:10289000311179C0FE2C251323C0941321C0E110FF
:1028A0001FC08F7080618093FA010E949E13C60141
:1028B0000E94F9128091FA01F80185838F2D6196AB
:1028C0000FB6F894DEBF0FBECDBFDF91CF911F9141
:1028D0000F91FF90EF90DF90CF90BF90AF90089551
:1028E000AB2829F0842F85238F3F09F033C180E086
:1028F000F82FF170DF2E80FF3CC08091C301209142
:10290000C40136E0821315C04D875E878D859E8594
:102910000E94F117292F22952F702230F0F02430D9
:1029200018F59F70F1F0F8019581907FD1F4D12CCA
:102930001EC090E0389FF001399FF00D1124EB5339
:10294000FE4F6181651306C06081641303C062811C
:102950006E110FC001968770D5CF9F7011F088233C
:1029600031F3805E883018F3C8010E94F912FD2C03
:10297000A5CFEE2009F4A2CF8091FA018160809367
:10298000FA01F12C9BCF251306C0941304C0F80163
:10299000EE2009F48DC04D875E878D859E850E944F
:1029A0005A13882319F1EE2009F18091FA0180323F
:1029B00070F02091F5013091F60138872F83198648
:1029C000BB86AA868C87CE0107960E94F91286E004
:1029D000F801A5EFB1E001900D928A95E1F70E9410
:1029E000AC130E949E13FF24F39468CFC8010E9489
:1029F000F912F9CF311113C07A2DB98AA88A6E2D38
:102A000089890E945E1385EF91E00E94F91286E0A9
:102A1000F60111928A95E9F70E949E13B2CF251311
:102A20000FC094130DC0E1100BC0F8018583C801DD
:102A30000E94F91286E0F60111928A95E9F73ECFDD
:102A40004D875E878D859E850E945A13882371F27B
:102A5000EE2061F28091FA01803208F4B8CF209123
:102A6000F5013091F6013A8329831B82BD82AC8245
:102A70008E83CE010196A9CFE83CF10508F041C054
:102A8000FE2CEE2009F4B2CF25132AC0941328C0DF
:102A90008091FA0180FD1BC0982F907FC1F0F80152
:102AA0008583903F31F0982F907F905F8F70892BB6
:102AB0008583C8010E94F91286E0F801A5EFB1E014
:102AC00001900D928A95E1F70E949E13F7CE86E061
:102AD000F801A5EFB1E001900D928A95E1F7EECEF5
:102AE0004D875E878D859E850E945A1381116FCF19
:102AF0008091FA0181608093FA01C8010E94F91265
:102B0000DDCE7A2DB98AA88A6E2D89890E945E133E
:102B100086E0F60111928A95E9F7D6CFEE2009F406
:102B200065CF4D875E878D859E850E945A13F82E4E
:102B3000882309F45BCF86E0F801A5EFB1E00190AE
:102B40000D928A95E1F785EF91E00E94C80F0E94EF
:102B5000AC13BACF81E08E25CBCE88EC90E00895FF
:102B60001F93CF93DF93CDB7DEB72C970FB6F894B2
:102B7000DEBF0FBECDBF4F83588769877A878B87AB
:102B80009C87CE0107960E940214882369F08A85EB
:102B90009B85892B39F04F815885842F85238F3F62
:102BA00009F071C016E05FC086E0FE013796DE01D5
:102BB000119601900D928A95E1F78A859B85892B64
:102BC00089F38F81988589238F3F61F32091C40118
:102BD00030E0C9010196877099274091C3014817D9
:102BE000190671F40E9437131092C4011092C301A8
:102BF00086E0E5EFF1E0DF011D928A95E9F7D2CF9B
:102C000096E0929FD001939FB00D1124AB53BE4F1D
:102C1000FE01319601900D929A95E1F78093C401DF
:102C20000E947D13BFCF819FC00111248B539E4F03
:102C30000E9402148823E9F0E091C3011E9FF00175
:102C40001124EB53FE4F4081518162817381848155
:102C500095810E946D138091C30190E00196877069
:102C600099278093C3018091C3019091C401891376
:102C7000DACF2C960FB6F894DEBF0FBECDBFDF9132
:102C8000CF911F91089569857A858B859C850E94D7
:102C90006D1388CF08950C944A160E944B166093CA
:102CA0002702709328028093290290932A020C94A1
:102CB000211308950C944D160F931F930091270232
:102CC000109128022091290230912A02602B712B49
:102CD000822B932B1F910F910C944D160F931F93E2
:102CE00000912702109128022091290230912A0296
:102CF00060237123822393231F910F910C944D160F
:102D00000F931F930091270210912802209129020E
:102D100030912A0260277127822793271F910F91F4
:102D20000C944D160C944A160C9492160E9494160C
:102D300060932302709324028093250290932602CD
:102D40000C94211360E070E0CB010C9496160F9365
:102D50001F9341E050E060E070E08A019B0104C0F5
:102D6000000F111F221F331F8A95D2F7C901B80126
:102D70001F910F910C9496160F931F9341E050E012
:102D800060E070E004C0440F551F661F771F8A95EE
:102D9000D2F78091230290912402A0912502B09154
:102DA00026028A019B01082B192B2A2B3B2BC901D8
:102DB000B8011F910F910C9496160F931F9341E049
:102DC00050E060E070E004C0440F551F661F771F9D
:102DD0008A95D2F7CB01BA01609570958095909550
:102DE00000912302109124022091250230912602A5
:102DF00060237123822393231F910F910C949616C5
:102E00000F931F9341E050E060E070E004C0440F76
:102E1000551F661F771F8A95D2F7809123029091E4
:102E20002402A0912502B09126028A019B01082765
:102E300019272A273B27C901B8011F910F910C942C
:102E400096160F931F930091230210912402209154
:102E5000250230912602602B712B822B932B1F9120
:102E60000F910C9496160F931F93009123021091CB
:102E700024022091250230912602602371238223AF
:102E800093231F910F910C9496160F931F9300910B
:102E900023021091240220912502309126026027FE
:102EA0007127822793271F910F910C9496160895EE
:102EB000E92FEE0FE90FEE0F8E0F982F977041E07C
:102EC00001C0440F9A95EAF786958695869595E018
:102ED000899FF0011124E550FE4F30E020E070E0C2
:102EE0005191DF011197CB01022E02C09695879573
:102EF0000A94E2F7817081958527842385278C9336
:102F00002F5F3F4F2530310559F70895E92FEE0F18
:102F1000E90FEE0F8E0F982F977086958695869500
:102F200025E0829FF0011124E550FE4F50E040E083
:102F300080E0219130E0092E02C0369527950A9451
:102F4000E2F721703327042E01C0220F0A94EAF71A
:102F5000822B4F5F5F4F4530510559F70895BF925F
:102F6000CF92DF92EF92FF920F931F93CF93DF9355
:102F70008C01C0902302D0902402E0902502F090B2
:102F800026028091270290912802A0912902B091F7
:102F90002A02C82AD92AEA2AFB2ACFE1D0E0BC2E8D
:102FA000D701C6010C2E04C0B695A79597958795B5
:102FB0000A94D2F780FD0EC0219788F7B12C8B2D93
:102FC000DF91CF911F910F91FF90EF90DF90CF9005
:102FD000BF900895B8018C2F0E94A704019761F358
:102FE000EECFCF93DF93EC010E94AF17BE01DF91CC
:102FF000CF910C94A7041F93CF93DF93EB01909193
:10300000C201992331F0CB01DF91CF911F910C9434
:10301000F117882379F0CB010E94AF17182F682F82
:10302000CE010E945817BE01812FDF91CF911F91D1
:103030000C94A704CB010E948617182FF4CF682F99
:103040008091090190910A010C94D819682F809100
:10305000090190910A010C94DA198091090190916B
:103060000A010C94DC1980912B0285958595859534
:10307000089580912B028770089590912B0297708C
:1030800081E009F480E008958091370208959091DD
:103090003702892B809337020895809590913702EB
:1030A00098239093370208951092370208959091D3
:1030B0003602892B809336020895809590913602CE
:1030C0009823909336020895109236020895109234
:1030D0003502089580912C02089508950C946D187E
:1030E00090912C02981721F080932C020C946E186A
:1030F000089580912C02882329F010922C0280E000
:103100000C946E180895E0910901F0910A018091E4
:1031100037028083E0910901F0910A01808190914A
:103120003602892B8083E0910901F0910A018081A8
:1031300090913502892B808390912C02992381F004
:10314000E0910901F0910A018081892B80838091AF
:10315000090190910A010E94901981110E94791829
:103160008091090190910A010C94A20E08950C948B
:10317000B61898E0899F90011124622B60932B026E
:103180000E94BC1680912B028595859585950C949F
:10319000B71810922B0280E00C94B71890912B0274
:1031A0008095892380932B02282F277071F4282F74
:1031B000082E000C330B9217130639F08595859570
:1031C00085950E94DD160C94C91808956FEF7FEF66
:1031D00090E080E00C94572590E080E00E94332539
:1031E00021E08C3E9E4F09F020E0822F089582E07E
:1031F00090E00C942B2583E090E00C942B25CF934A
:1032000084E090E00E942B25C82F81E290E00E948C
:103210002B25982F8C2FCF910895CF93C92F682FEE
:1032200084E090E00E9439256C2F81E290E0CF91FC
:103230000C943925AB01BC018FE090E00C944B2538
:10324000AB01BC0183E190E00C944B2560E070E0A1
:10325000CB010C94201960E070E0CB010E941A1998
:103260000C9426196CEE7EEF90E080E00E945725CA
:1032700060E082E090E00E94392560E083E090E029
:103280000E943925109227021092280210922902DA
:1032900010922A0260E084E090E00E94392560E00C
:1032A00081E290E00E94392560E085E090E00E9494
:1032B000392560E086E090E00E9439256FEF87E0D5
:1032C00090E00E94392540E050E0BA0188E090E0AB
:1032D0000E944B2560E08DE090E00E94392540E09F
:1032E00050E0BA0188E190E00E944B2560E087E160
:1032F00090E00E94392540E050E0BA018CE190E076
:103300000E944B2560E080E290E00E9439250C94F9
:103310002B190C943219682F8EE090E00C9439250B
:103320009C012E5F3F4FAC01485F5F4F80E0241748
:10333000350709F40895F90191919F019923B9F393
:103340008F5FF5CF662349F0FC01329608962191F4
:10335000261729F0E817F907D1F780E0089581E0F2
:1033600008959C01FC0132969FEF80E04191461741
:1033700051F09F3F19F4411101C0982F8F5F8630A3
:10338000A9F79F3F09F40895290F311D97FD3A953C
:10339000F90162830895FC01329608962191261363
:1033A00003C0DF0111971C92E817F907B9F70895D8
:1033B0000C94B1190C94CB19029626E0FC011192E1
:1033C0002A95E9F70895089508950C94E4190E9448
:1033D000E51980917102843049F11092390288E137
:1033E00090E020E40FB6F894A895809360000FBE9B
:1033F0002093600080E00E944D040E94E51983B78D
:10340000817F846083BF83B7816083BF7894889510
:1034100083B78E7F83BF0FB6F894A8958091600024
:10342000886180936000109260000FBE0895089537
:10343000CF930E94E3190E9410070E94171AC0E060
:103440008C2F0E948106811105C0CF5FCA30C1F761
:10345000CF91089581E0FCCF08950C942C1A0E941E
:1034600037130E94960E0E944D040C942D1A1F9241
:103470001FB61F9211248F939F93AF93BF93809198
:103480003902811113C08091670290916802A09166
:103490006902B0916A024196A11DB11D8093670235
:1034A00090936802A0936902B0936A02BF91AF91B2
:1034B0009F918F911F901FBE1F90189582E084BD31
:1034C00093E095BD9AEF97BD80936E0008952FB756
:1034D000F8948091670290916802A0916902B0917E
:1034E0006A022FBF08952FB7F89460916702709118
:1034F00068028091690290916A022FBF08959C0131
:103500004FB7F8948091670290916802A091690288
:10351000B0916A024FBF821B930B089578941F925B
:103520001FB61F9211248F939F93AF93BF938091E7
:10353000670290916802A0916902B0916A020196B7
:10354000A11DB11D8093670290936802A093690248
:10355000B0936A02BF91AF919F918F911F901FBE50
:103560001F90189587E797E79093010880930008CC
:1035700088E19AE00FB6F894A895809360000FBE9A
:1035800090936000FFCF0C945E080E9410078FE3B9
:103590009CE90197F1F700C000000E94100780E04D
:1035A0000E94810680FF04C00E94C31A0C94B21AC4
:1035B00008950E94EC18811102C00E9489190E948E
:1035C000F718809338020E94FF1890936C02809342
:1035D0006B020E94FB18682F70E090E080E00E9470
:1035E0005A166091230270912402809125029091D5
:1035F00026020C9494168091400280FF12C06091C4
:10360000100185E0689FB001112475956795759547
:10361000679560387105A8F561157105A1F1862FD0
:10362000089581FF09C06091100185E0689FB00195
:10363000112475956795EDCF6091100182FD0AC048
:1036400080913F028823D1F090910F016091100189
:10365000891728F085E0689FB0011124DACF869F92
:10366000B001112485E0869F9001879F300D1124C1
:10367000692F70E0C9010E94F624CBCF65E070E0AD
:10368000CECF8FE7089581E008958091400280FFBA
:103690000CC060910C0170E0759567957595679504
:1036A0006115710549F1862F089581FF06C060916B
:1036B0000C0170E075956795F3CF60910C0182FD68
:1036C0000BC090913E029923A1F060910B01809173
:1036D0000C01961738F0682F70E06038710500F320
:1036E0008FE70895899FC001112470E00E94F6249D
:1036F000F4CF61E070E0D7CF81E00895803F31F4EE
:103700000E94FB1A8195809344020895813F19F429
:103710000E94FB1AF8CF823F31F40E94FB1A819578
:10372000809343020895833F19F40E94FB1AF8CF57
:10373000893F29F40E94451B8093450208958A3FE2
:1037400021F40E94451B8195F7CF8B3F31F40E94F5
:10375000451B81958093460208958C3F19F40E9481
:10376000451BF8CF843F31F4809142028160809301
:1037700042020895853F21F4809142028260F7CF92
:10378000863F21F4809142028460F1CF873F21F48B
:10379000809142028860EBCF883F21F48091420201
:1037A0008061E5CF8D3F31F480914002816080934C
:1037B000400208958E3F21F4809140028260F7CF4D
:1037C0008F3FB9F7809140028460F1CF909143021E
:1037D000803F59F48091440287FF0DC0109244024B
:1037E00091110BC010923F0208C0813F81F480917B
:1037F000440218169CF3992381F080914502909120
:103800004602892B09F064C010923E020895823F5F
:1038100049F497FFF0CF1092430280914402811146
:10382000ECCFE0CF833F19F41916ACF3E4CF20912D
:103830004502893F29F41216F4F610924502DBCFB7
:103840008A3F19F427FFD7CFF8CF209146028B3F4C
:1038500029F427FFD0CF10924602CDCF8C3F19F428
:103860001216CCF3C8CF843F31F4809142028E7F90
:1038700080934202C0CF853F21F4809142028D7F28
:10388000F7CF863F21F4809142028B7FF1CF873FB3
:1038900021F480914202877FEBCF883F21F4809111
:1038A00042028F7EE5CF8D3F31F4809140028E7FC2
:1038B00080934002A0CF8E3F21F4809140028D7F03
:1038C000F7CF8F3F09F097CF809140028B7FF0CFE9
:1038D00008950E94671A9C019091430280914402CE
:1038E000982B21F030933D0220933C0290914502A9
:1038F00080914602982B21F030933B0220933A02AC
:1039000081E492E00C94AD0EEF92FF920F931F931F
:10391000CF93DF9300D000D000D0CDB7DEB786E0E4
:10392000E1E4F2E0DE01119601900D928A95E1F753
:10393000E0904302F090440200914502109146024B
:1039400010924302109244021092450210924602D5
:103950008E2D8F2991F080913C0290913D020E9422
:103960007F1AAC0190913F02992309F43FC08091E6
:1039700011018417150608F447C0802F812B91F0A0
:1039800080913A0290913B020E947F1AAC01909183
:103990003E02992309F477C080910D018417150622
:1039A00008F47FC08091430290914402892B90914A
:1039B0004502892B90914602892B11F00E94691CC7
:1039C00086E0FE013196A1E4B2E001900D928A9565
:1039D000E1F726960FB6F894DEBF0FBECDBFDF919C
:1039E000CF911F910F91FF90EF90089520911201B8
:1039F0008AE0289F900111242417350708F0BDCFD5
:103A00009F5F90933F0202C09F3FD1F7EE2059F095
:103A10000E94FB1A9FEF1E140CF491E0899F802DE9
:103A2000112480934302FF2059F00E94FB1A9FEF5C
:103A30001F140CF491E0899F802D1124809344027F
:103A400030914302332309F498CF2091440222237A
:103A500009F493CF45EB3403C0011124992359F0A5
:103A60009093430245EB240390011124332339F052
:103A70003093440282CF81E080934302F3CF81E010
:103A8000809344027ACF20910E018AE0289F900112
:103A900011242417350708F085CF9F5F90933E02CD
:103AA00002C09F3FD1F7002359F00E94451B9FEFB2
:103AB00010160CF491E0899F802D1124809345020B
:103AC000112359F00E94451B9FEF11160CF491E051
:103AD000899F802D11248093460230914502332323
:103AE00009F460CF20914602222309F45BCF45EB15
:103AF0003403C0011124992359F09093450245EBFA
:103B0000240390011124332339F0309346024ACF25
:103B100081E080934502F3CF81E08093460242CF5B
:103B200086E0E1E4F2E0DF011D928A95E9F7109268
:103B30003F0210923E0210924002089580914F027F
:103B40000895CF93DF9300D00F92CDB7DEB7909159
:103B50007102943011F589837B836A839093E90025
:103B60008FEF9091E800815095FD06C095ED9A95F4
:103B7000F1F700008111F5CF8091E80085FF0DC0BD
:103B800050E040E063E070E0CE0101960E94162014
:103B90008091E8008E778093E8000F900F900F904F
:103BA000DF91CF910895BC0184E00C94A11DBC016C
:103BB00083E00C94A11D9C0184E08093E9009FEFB9
:103BC0008091E800915085FD06C085ED8A95F1F75A
:103BD00000009111F5CF8091E80085FF0CC050E006
:103BE00040E066E070E0C9010E9416208091E80084
:103BF0008E778093E8000895CF93DF93EC0181E006
:103C00008093E9008FEF9091E800815095FD06C008
:103C100095ED9A95F1F700008111F5CF8091E800BC
:103C200085FF14C050E040E068E070E0CE010E94E3
:103C300016208091E8008E778093E80088E0FE01EE
:103C4000A7E4B2E001900D928A95E1F7DF91CF9160
:103C50000895CF93FC01603221F580917102843088
:103C600001F5C091E900CF702091EC00922F917086
:103C700020FD90E8C92B82E08093E9008091E80064
:103C800080FF0CC050E040E060E270E0CF010E9495
:103C900016208091E8008E778093E800CF70C09363
:103CA000E900CF91089580917002811109C00E94AE
:103CB000F5210E9452228091E20084608093E2000C
:103CC0000895109270020895089508950C942F1A83
:103CD00042E061EC81E00E94712142E261EC84E00B
:103CE0000E94712142E261EC82E00E94712142E275
:103CF00060EC83E00C94712180917302833009F4AD
:103D000061C030F48130D1F1823009F49DC0089552
:103D10008A3009F489C08B3009F46FC0893009F00A
:103D200050C080917202813209F04BC080917602BE
:103D300090917702009719F0029709F042C08091A4
:103D4000E800877F8093E8008091E80082FF35C01B
:103D50009091F3008091F200029729F48091F10094
:103D60008B7F813021F48091F10080934F0280910C
:103D7000E8008B778093E8000C94A5218091720273
:103D8000813AF9F48091E800877F8093E800809180
:103D9000760290917702892B61F468E087E492E0E3
:103DA00070E00E94B4208091E8008B778093E80057
:103DB000089560E090E080E0F3CF8091710281117E
:103DC000C3CF089580917202813AD9F7809176022B
:103DD00090917702892BA9F78091E800877F8093E3
:103DE000E8008091E80080FFFCCF80911D01809366
:103DF000F1008091E8008E77BDCF80917202813210
:103E000001F78091760290917702892BD1F680910B
:103E1000E800877F8093E8000E94A52180917402CA
:103E200080931D010C94371380917202813249F600
:103E30008091E800877F8093E8000E94A52180910F
:103E4000750280935002089580917202813A09F0C0
:103E5000B8CF8091E800877F8093E8008091E800E8
:103E600080FFFCCF80915002C2CFCDB7DEB7A097C4
:103E70000FB6F894DEBF0FBECDBF84B7877F84BF77
:103E80000FB6F894A89580916000886180936000D7
:103E9000109260000FBE80E890E00FB6F894809317
:103EA0006100909361000FBE0E94F50E0E94F52103
:103EB0000E9452228091E20084608093E200789414
:103EC0000E94DB240E94FD0E83E191E00E94910E8E
:103ED00013E080917102853039F10E94070F8091C3
:103EE00071028430B1F71093E9008091E80082FFFD
:103EF000F0CF8091E80090E085FF09C050E040E0FD
:103F000060E270E0CE0101960E94652091E0809110
:103F1000E8008B778093E8009923D9F260E2CE0124
:103F200001960E94C008D5CF0E94E71980916F02C8
:103F3000882379F20E94181A882359F20E940020DF
:103F4000C8CF0C94A31F292F33272330310521F12B
:103F500068F42130310509F449C02230310509F4F3
:103F60004AC090E080E030E020E029C021323105F5
:103F700081F122323105A9F76330710590F7FB0119
:103F8000EE0FFF1FED56FE4F2081318160577E4FAF
:103F9000FB01808190E013C099278130910599F051
:103FA000009741F08230910589F00397D1F6ECE259
:103FB000F3E002C0E4E5F3E0849190E09F01FA01B0
:103FC000318320830895E0E4F3E0F6CFE2E3F3E009
:103FD000F3CF6330710528F6660F771FFB01E756B4
:103FE000FE4F2081318189E090E0E9CF82E190E0CD
:103FF00023EB33E0E4CF8BE590E028E533E0DFCF3F
:1040000080E189BD82E189BD09B400FEFDCF8091C8
:10401000D8008F7D8093D8008091E00082608093EB
:10402000E0008091E00081FDFCCF0895AF92BF9247
:10403000CF92DF92FF920F931F93CF93DF936C0188
:10404000EB018A010E94C421F82E811123C00115C1
:10405000110539F0F80180819181C81BD90BC80E78
:10406000D91EB12CA12C2097A9F08091E80085FDE4
:1040700022C08091E8008E778093E8000115110539
:10408000A1F0F80180819181A80EB91EB182A082B1
:1040900085E0F82E8F2DDF91CF911F910F91FF902A
:1040A000DF90CF90BF90AF9008950E94C4218823E5
:1040B000D1F2F82EEFCFF60181916F018093F100DC
:1040C0002197FFEFAF1ABF0ACECFAF92BF92CF9228
:1040D000DF92FF920F931F93CF93DF936C01EB015D
:1040E0008A010E94C421F82E811123C001151105F7
:1040F00039F0F80180819181C81BD90BC80ED91EF7
:10410000B12CA12C2097A9F08091E80085FD22C058
:104110008091E8008B778093E80001151105A1F0EC
:10412000F80180819181A80EB91EB182A08285E03C
:10413000F82E8F2DDF91CF911F910F91FF90DF907F
:10414000CF90BF90AF9008950E94C4218823D1F2F0
:10415000F82EEFCF8091F100F60181936F01219746
:10416000FFEFAF1ABF0ACECFFC0180917802909189
:10417000790286179707A0F06115710529F49091CF
:10418000E8009E779093E80090E06115710551F486
:10419000911108C08091E80082FF34C080E008954A
:1041A000BC01F2CF809171028823C1F18530C1F149
:1041B0008091E80083FD30C08091E80082FDEACF65
:1041C0008091E80080FFE1CF8091F3002091F20020
:1041D000382F6115710519F02830310558F091E03C
:1041E0002830310509F090E02091E8002E772093E7
:1041F000E800CBCF81918093F100615071092F5F6E
:104200003F4FE7CF80917102882341F0853041F024
:104210008091E80083FFBECF81E0089582E0089599
:1042200083E00895FC0180917802909179028617CD
:104230009707A0F06115710529F48091E8008E7749
:104240008093E80090E06115710551F4911108C068
:104250008091E80082FF35C080E00895BC01F2CF74
:10426000809171028823C9F18530C9F18091E800FD
:1042700083FD31C08091E80082FDEACF8091E800A3
:1042800080FFE1CF8091F3002091F200382F61157B
:10429000710519F02830310558F091E028303105CA
:1042A00009F090E08091E8008E778093E800CBCF12
:1042B00084918093F1003196615071092F5F3F4FD7
:1042C000E6CF80917102882341F0853041F08091E2
:1042D000E80083FFBDCF81E0089582E0089583E088
:1042E0000895982F973028F08F708093E90081E02F
:1042F00008959093E900242F762F50E0981731F01D
:104300007091EC002091ED005091F00021FD02C071
:104310009F5FE8CF3091EB003E7F3093EB00309110
:10432000ED003D7F3093ED003091EB003160309334
:10433000EB007093EC002093ED005093F00020917F
:10434000EE0027FDE5CF80E008958091720287FF9F
:1043500013C08091E80082FF06C08091E8008B774F
:104360008093E80004C0809171028111F2CF08951A
:10437000809171028823D9F38091E80080FFF8CF03
:104380008091E8008E77ECCF2091E4003091E50039
:1043900095E6A9012091EC00822F817020FF06C0D4
:1043A0008091E80080FF06C080E008952091E80039
:1043B00022FD1AC080917102882389F0853089F02E
:1043C0008091EB0085FD0FC02091E4003091E50065
:1043D00042175307F9F29150E1F684E0089582E024
:1043E000089583E0089581E008950E9463220E9469
:1043F0006B22E0EEF0E0808181608083E8EDF0E008
:1044000080818F77808319BCA7EDB0E08C918E7F7F
:104410008C9380818F7E80831092700208950F9319
:104420001F93CF93DF930E9463220E946B22C8EDFB
:10443000D0E088818F7788838881806888838881AD
:104440008F7D888319BC1092710210926D021092B8
:104450006F0210926E0200EE10E0F80180818B7FF7
:10446000808388818160888342E060E080E00E94F0
:104470007121E1EEF0E080818E7F8083E2EEF0E05A
:10448000808181608083808188608083F801808161
:104490008E7F8083888180618883DF91CF911F9197
:1044A0000F910895E8EDF0E080818F7E8083E7ED45
:1044B000F0E080818160808384E082BF81E080932E
:1044C00070020C940F22E8EDF0E080818E7F8083F3
:1044D0001092E20008951092DA001092E10008951F
:1044E0001F920F920FB60F9211242F933F934F9369
:1044F0005F936F937F938F939F93AF93BF93EF934C
:10450000FF938091E10082FF0BC08091E20082FF67
:1045100007C08091E1008B7F8093E1000E94DA2444
:104520008091DA0080FF19C08091D80080FF15C00B
:104530008091DA008E7F8093DA008091D90080FF2D
:1045400096C080E189BD82E189BD09B400FEFDCF3E
:1045500081E0809371020E94531E8091E10080FFF0
:1045600019C08091E20080FF15C08091E2008E7F2B
:104570008093E2008091E20080618093E20080916C
:10458000D80080628093D80019BC85E080937102C6
:104590000E94651E8091E10084FF2BC08091E200A3
:1045A00084FF27C080E189BD82E189BD89B5982F4C
:1045B000917080FFFBCF8091D8008F7D8093D800D1
:1045C0008091E1008F7E8093E1008091E2008F7EF8
:1045D0008093E2008091E20081608093E20080910C
:1045E0006D02882309F449C084E0809371020E941F
:1045F000661E8091E10083FF29C08091E20083FF65
:1046000025C08091E100877F8093E10082E0809364
:10461000710210926D028091E1008E7F8093E10023
:104620008091E2008E7F8093E2008091E2008061C1
:104630008093E20042E060E080E00E94712180917E
:10464000F00088608093F0000E94641EFF91EF915B
:10465000BF91AF919F918F917F916F915F914F919A
:104660003F912F910F900FBE0F901F90189519BC7E
:10467000109271020E94611E70CF8091E30087FD4D
:1046800093E090937102B3CF1F920F920FB60F92E7
:1046900011242F933F934F935F936F937F938F9347
:1046A0009F93AF93BF93CF93DF93EF93FF93D091FB
:1046B000E900DF708091EC00C82FC17080FDC0E878
:1046C0001092E9008091F000877F8093F000789449
:1046D0000E9488231092E9008091F0008860809306
:1046E000F000CD2BCF70C093E900FF91EF91DF91E7
:1046F000CF91BF91AF919F918F917F916F915F917A
:104700004F913F912F910F900FBE0F901F901895D2
:104710001F93CF93DF93CDB7DEB7AA970FB6F89468
:10472000DEBF0FBECDBF82E792E02091F100FC0119
:104730002193CF01F2E08A379F07B9F70E947C1ED0
:104740008091E80083FF1EC18091720290917302F4
:104750009A3008F017C1E92FF0E0E456FA4D0C94B6
:104760000A25803899F0823809F00CC180917602D0
:104770008F70873008F006C18093E9008091EB00CC
:1047800085FB882780F91092E90006C080916E02AF
:1047900090916F02911182609091E800977F9093C1
:1047A000E8008093F1001092F1008091E8008E778C
:1047B000E5C0882309F4D3C0823009F0E3C08091BA
:1047C00074028111D6C0809176028F702FEF280F6E
:1047D000263008F0D7C08093E9002091EB0020FF3D
:1047E000C8C0933031F48091EB0080628093EB007D
:1047F000C0C09091EB0090619093EB0021E030E01D
:1048000001C0220F8A95EAF72093EA001092EA008D
:104810008091EB008860EACF8111B4C010917402DE
:104820001F778091E3008078812B8093E300809153
:10483000E800877F8093E8000E94A5218091E8002E
:1048400080FFFCCF8091E30080688093E30082E0EA
:10485000111183E08093710295C08058823008F076
:1048600091C080917402909175028C3D23E0920773
:10487000A1F583E08A838AE289834FB7F894DE0149
:10488000139620E03EE051E2E32FF0E05093570012
:10489000E49120FF03C0E295EF703F5FEF708E2F31
:1048A00090E0EA30C0F0C7968D939D932F5F24313E
:1048B00059F74FBF8091E800877F8093E8006AE254
:1048C00070E0CE0101960E94B4208091E8008B77C1
:1048D0008093E80057C0C096E7CF60917602709150
:1048E0007702AE014F5F5F4F0E94A11FBC01892B71
:1048F00009F448C09091E800977F9093E80089817F
:104900009A810E941221E1CF8038E1F58091E80080
:10491000877F8093E80080916D028093F10045CFFE
:10492000811130C090917402923060F58091E8005E
:10493000877F8093E80090936D020E94A52180916B
:104940006D02882311F084E005C08091E30087FDAB
:10495000FACF81E0809371020E94681E13C080919B
:104960007402813079F481E0933009F080E0809323
:104970006F021092E9008091E800877F8093E80041
:104980000E94A5218091E80083FF0AC08091E80081
:10499000877F8093E8008091EB0080628093EB003A
:1049A000AA960FB6F894DEBF0FBECDBFDF91CF91B0
:1049B0001F9108950895CF93809171028823A1F0EB
:1049C000C091E900CF709091EC00892F817090FD2B
:1049D00080E8C82B1092E9008091E80083FD0E94D6
:1049E0008823CF70C093E900CF91089597FB072EDD
:1049F00016F4009407D077FD09D00E94172507FC14
:104A000005D03EF4909581959F4F089570956195DE
:104A10007F4F0895EE0FFF1F0590F491E02D09944C
:104A20006927962769277827872778270895AA1B5B
:104A3000BB1B51E107C0AA1FBB1FA617B70710F089
:104A4000A61BB70B881F991F5A95A9F780959095BB
:104A5000BC01CD010895F999FECF92BD81BDF89AB0
:104A6000992780B50895A8E1B0E042E050E00C94A9
:104A70005F25262FF999FECF92BD81BDF89A019747
:104A800000B4021639F01FBA20BD0FB6F894FA9A96
:104A9000F99A0FBE08950396272F0E943A250E9487
:104AA0003925252F0E943A25242F0C943A2501966A
:104AB000272F0E943A250C943925DC01CB01FC01FB
:104AC000F999FECF06C0F2BDE1BDF89A319600B467
:104AD0000D9241505040B8F70895F894FFCFD20896
:104AE000DF08060912091D0928092B092B092B09C2
:104AF000740977092E0932093A09470954095709F7
:104B00005A0967091011101168116811BA11D611EC
:104B10003D113D11E1116D127C127C1246134613BA
:104B20004F134F1351134F134F134F134613461385
:104B300056134F134F135613B123D923C224D9232D
:0C4B4000C2240C242D24C22484249024C0
:104B4C0001A50100A60105A6012D022808641E146A
:104B5C000A321E9E1DFC1DDB1DD71DD31D01E2005C
:104B6C00E900EA00B500B600B700CD008301CC0027
:104B7C008A019201940121022302240225022602B9
:104B8C0027022A02B300B4006F007000818283F404
:104B9C00F5F6F73133946697C6340000000000E256
:104BAC0000E900EA00B500B600B700CD008301CCE7
:104BBC00008A01920194012102230224022502267B
:104BCC000227022A02B300B4006F007000818283B6
:104BDC004022816804C503E7036A038303A303002F
:00000001FF
